:100000000C94D5050C9479170C94FD050C94FD0502
:100010000C94FD050C94FD050C94FD050C94301713
:100020000C94FD050C94FD050C94FD050C944217F1
:100030000C94FD050C94FD050C9467170C94FD05BC
:100040000C94FD050C94FD050C94FD050C94FD0528
:100050000C94FD050C94FD050C94FD050C94FD0518
:100060000C94FD050C94FD050901809611800A3A57
:1000700081550A3601082A04000000F02B04000014
:10008000014021800A13800A29800A000000000034
:10009000010000000100000000000000010000005D
:1000A000010001000000010000000000010000004C
:1000B000000000000100000000000000010000003E
:1000C000000001000000000001010000000000002D
:1000D000000000010100000000000100000000001D
:1000E000010000000000000001000000000000000E
:1000F00001000000000001000000010001000000FC
:1001000001000000000000000100000001000000EC
:1001100000000000000000000000000000000000DF
:1001200000000000000100010001000000000000CC
:1001300000000000010000000000000000000000BE
:1001400001000000010100010000000000000000AB
:100150000001000101000100000000000001000199
:100160000101010101010000000000000100010186
:100170000101010101000000000000000001010177
:100180000101010101000000000000010101010165
:100190000101010101000100010000010000000057
:1001A000000000000001000001000000000100004C
:1001B0000000010100000100000100000000010139
:1001C000000000000000000000000001000000002E
:1001D0000000000100000000010001010000010119
:1001E000000000010001000000000101010000000A
:1001F00001000000000101010101010101010000F5
:1002000000000000010001010101010101000000E6
:1002100000000101000101010101010100000100D4
:1002200000000000003E5B4F5B3E3E6B4F6B3E1C90
:100230003E7C3E1C183C7E3C181C577D571C1C5EA7
:100240007F5E1C00183C1800FFE7C3E7FF0018247E
:100250001800FFE7DBE7FF30483A060E2629792928
:1002600026407F050507407F05253F5A3CE73C5A5D
:100270007F3E1C1C08081C1C3E7F14227F22145F3A
:100280005F005F5F06097F017F006689956A606095
:1002900060606094A2FFA29408047E040810207E8F
:1002A000201008082A1C08081C2A08081E10101014
:1002B000100C1E0C1E0C30383E3830060E3E0E065A
:1002C000000000000000005F0000000700070014AD
:1002D0007F147F14242A7F2A12231308646236496C
:1002E0005620500008070300001C22410000412254
:1002F0001C002A1C7F1C2A08083E08080080703059
:1003000000080808080800006060002010080402C7
:100310003E5149453E00427F4000724949494621CD
:1003200041494D331814127F1027454545393C4A41
:100330004949314121110907364949493646494958
:10034000291E0000140000004034000000081422A0
:10035000411414141414004122140802015909060E
:100360003E415D594E7C1211127C7F494949363E0F
:10037000414141227F4141413E7F494949417F09F5
:100380000909013E414151737F0808087F00417F00
:1003900041002040413F017F081422417F404040FE
:1003A000407F021C027F7F0408107F3E4141413E96
:1003B0007F090909063E4151215E7F091929462618
:1003C0004949493203017F01033F4040403F1F201C
:1003D00040201F3F4038403F6314081463030478F3
:1003E00004036159494D43007F4141410204081013
:1003F00020004141417F040201020440404040404E
:10040000000307080020545478407F2844443838BB
:1004100044444428384444287F385454541800082D
:100420007E090218A4A49C787F0804047800447D07
:1004300040002040403D007F1028440000417F40A4
:10044000007C047804787C080404783844444438F8
:10045000FC1824241818242418FC7C0804040848D8
:100460005454542404043F44243C4040207C1C2029
:1004700040201C3C4030403C44281028444C909084
:10048000907C4464544C44000836410000007700DE
:1004900000004136080002010204023C2623263CEB
:1004A0001EA1A161123A4040207A38545455592176
:1004B000555579412254547842215554784020545E
:1004C0005579400C1E5272123955555559395454AC
:1004D000545939555454580000457C410002457D1B
:1004E000420001457C407D1211127DF0282528F044
:1004F0007C545545002054547C547C0A097F493271
:10050000494949323A4444443A324A4848303A41E7
:1005100041217A3A42402078009DA0A07D3D424290
:10052000423D3D4040403D3C24FF2424487E494319
:10053000662B2FFC2F2BFF0929F620C0887E09038C
:1005400020545479410000447D413048484A3238B3
:100550004040227A007A0A0A727D0D19317D2629DF
:10056000292F28262929292630484D4020380808D7
:10057000080808080808382F10C8ACBA2F1028340B
:10058000FA00007B000008142A142222142A1408FE
:100590005500550055AA55AA55AAFF55FF55FF000D
:1005A0000000FF00101010FF00141414FF001010C2
:1005B000FF00FF1010F010F0141414FC001414F7D6
:1005C00000FF0000FF00FF1414F404FC14141710C3
:1005D0001F10101F101F1414141F00101010F00013
:1005E0000000001F101010101F10101010F010004D
:1005F0000000FF101010101010101010FF1000005D
:1006000000FF140000FF00FF00001F10170000FC97
:1006100004F414141710171414F404F40000FF0069
:10062000F714141414141414F700F71414141714F2
:1006300010101F101F141414F4141010F010F000F8
:10064000001F101F0000001F14000000FC14000019
:10065000F010F01010FF10FF141414FF14101010FD
:100660001F00000000F010FFFFFFFFFFF0F0F0F0B0
:10067000F0FFFFFF0000000000FFFF0F0F0F0F0F44
:100680003844443844FC4A4A4A347E020206060290
:100690007E027E0263554941633844443C04407EF7
:1006A000201E2006027E020299A5E7A5991C2A4970
:1006B0002A1C4C7201724C304A4D4D3030487848FB
:1006C00030BC625A463D3E494949007E0101017EE7
:1006D0002A2A2A2A2A44445F444440514A4440403A
:1006E000444A51400000FF0103E080FF0000080879
:1006F0006B6B083612362436060F090F06000018F9
:10070000180000001010003040FF0101001F01011F
:100710001E00191D1712003C3C3C3C00000000006C
:1007200000000000240027002A000000000025002F
:1007300028002B000404040404040404020202023E
:100740000202030303030303010204081020408094
:100750000102040810200102040810200000000813
:100760000002010000030407000000000000000078
:100770000000000100000001000001000000000076
:100780000000000001000000010000000000000067
:100790000000010101010101000000000000000053
:1007A0000101010101010101000000000000000140
:1007B000010101010101010100000000000001012F
:1007C0000101010101000000000000000000010122
:1007D0000101010000000000000000000000010015
:1007E0000001000000000000000000010000010006
:1007F00000000100000000000000000000010100F6
:1008000000000000000000000000000101010100E4
:1008100000000000000000000001010101010100D2
:1008200000000000000000010100010100010100C2
:1008300000000000000001010101010101010000B0
:1008400000000000000000010000010000000000A6
:100850000000000000010001010001000000000094
:100860000000000100010000010001000000000084
:100870000000000000000000000000000000000078
:100880000000010000000000010000000000000066
:100890000000010000000100000000000000000056
:1008A000010101010101010000000000000001013F
:1008B000000101010001010000000000010101012F
:1008C000010101010101010000000001000101011D
:1008D0000101010100010000000001000100000011
:1008E0000000010001000000000000000101000103
:1008F00001000000000000000000000000000000F7
:1009000000000000000000000000010101010100E2
:1009100000000000000001010101010101010101CD
:1009200001000000010101010101010101010101BA
:1009300001000001010100000101010000010101AD
:10094000000001010101010101010101010101009A
:100950000000000001010000000101000000000093
:10096000000001010001010100010100000000017F
:100970000100000000000000000001010000000074
:100980000000000000000000000000000000000067
:10099000000101010101000000000000000101014F
:1009A000010101010101010100000001010101013A
:1009B000010101010101010100000101010000012B
:1009C000010100000101010000010101010101011B
:1009D000010101010101000000000101010000000E
:1009E00001010100000000000101000001010100FF
:1009F00000010100000000000101000000000001F2
:100A000001000000000000000000000000000000E5
:100A100000000000000000010000000000010000D4
:100A200000000000010000010000000100000100C2
:100A300000000001000101010101010100010000AD
:100A4000000001010100010101000101010000009D
:100A5000000101010101010101010101000000008B
:100A6000000101010101010101010000000000007D
:100A70000001000000000001000000000000000173
:100A80000000000000000001000000000000000065
:100A90000000000000000000000000000000000056
:100AA0000101000000000000000000000000010142
:100AB0000101000000000000000000000101010130
:100AC0000101000000000000000001010001010020
:100AD000010100000000000000010101010101010D
:100AE0000100000000000000000100010100010001
:100AF00000000000000000010000000000000100F4
:100B000000000000000000010000000001000000E3
:100B100000000000000000000000000000000000D5
:100B200000000000000000000100000000000000C4
:100B300000000000000001010100000000000000B2
:100B400000000000000101010000000000000000A2
:100B50000000000001010100000000000000000191
:100B60000101010101010101010100000101010177
:100B70000101010101010101010101010101010165
:100B80000101010101010101010101010101010155
:100B90000101010101010101010101010101010145
:100BA00001010101010101018D1711241FBECFEFC9
:100BB000D8E0DEBFCDBF12E0A0E0B1E0ECEAFBE59B
:100BC00002C005900D92AA36B107D9F727E0AAE630
:100BD000B2E001C01D92AA30B207E1F715E0C5ED01
:100BE000D5E004C02197FE010E94B02AC43DD10780
:100BF000C9F70E9438180C94D42D0C94000090E092
:100C0000FC01E45AF84F2491FC01E85BF84F349161
:100C1000FC01EC5CF84FE491EE23C9F0222339F09B
:100C2000233001F1A8F4213019F1223029F1F0E04C
:100C3000EE0FFF1FE65DF84FA591B4918FB7F894C2
:100C4000EC91611126C030953E233C938FBF0895EF
:100C50002730A9F02830C9F0243049F7809180006E
:100C60008F7D03C0809180008F7780938000DFCFDD
:100C700084B58F7784BDDBCF84B58F7DFBCF80912A
:100C8000B0008F778093B000D2CF8091B0008F7D7D
:100C9000F9CF3E2BDACFCF93DF9390E0FC01E85BF6
:100CA000F84F24918C5C984FFC0184918823D1F0FB
:100CB00090E0880F991FFC01E05EF84FA591B49178
:100CC000FC01E65DF84FC591D49161110EC09FB74C
:100CD000F8948C91E22FE0958E238C932881E22367
:100CE000E8839FBFDF91CF9108958FB7F894EC917F
:100CF000E22BEC938FBFF6CFAF92BF92CF92DF92F1
:100D0000EF92FF920F931F93CF93DF936C017B01C0
:100D10008B01040F151FEB015E01AE18BF08C01751
:100D2000D10759F06991D601ED91FC910190F081C4
:100D3000E02DC6010995892B79F7C501DF91CF9187
:100D40001F910F91FF90EF90DF90CF90BF90AF90E9
:100D50000895FC01A5A1B6A18C9192A589238C933D
:100D6000A5A1B6A18C9191A5892B8C930895DC0146
:100D70009396ED91FC919497908198968C9189230C
:100D800080830895DC019396ED91FC919497908176
:100D900097968C91892B80830895DC019196ED9133
:100DA000FC919297908196968C91892380830895E7
:100DB000DC019196ED91FC919297908195968C91A2
:100DC000892B80830895CF92DF92EF92FF921F9339
:100DD000CF93DF93EC016A017B018DA9811123C0C0
:100DE0008F2D9927AA27BB278EBD0DB407FEFDCFF7
:100DF000C701AA27BB278EBD0DB407FEFDCFBB27B9
:100E0000AF2D9E2D8D2D8EBD0DB407FEFDCFCEBC1A
:100E10000DB407FEFDCFDF91CF911F91FF90EF90B2
:100E2000DF90CF9008958130B1F410E2CE01F7FE4B
:100E30000FC00E94D806CE010E94C206CE010E94B9
:100E4000B706CC0CDD1CEE1CFF1C115079F7E3CF6C
:100E50000E94CD06F0CFEF8DF8A18F2D9927AA27FC
:100E6000BB278083CE010E94A906EF8DF8A1C701A0
:100E7000AA27BB278083CE010E94A906EF8DF8A187
:100E8000BB27AF2D9E2D8D2D8083CE010E94A906FC
:100E9000EF8DF8A1C082CE01DF91CF911F91FF901D
:100EA000EF90DF90CF900C94A906FF920F931F93C1
:100EB000CF93DF93EC018B018DA981110EC01EBD74
:100EC0000DB407FEFDCF0EBD0DB407FEFDCFDF91C3
:100ED000CF911F910F91FF9008958130B1F490E16F
:100EE000F92ECE0117FF0EC00E94D806CE010E9437
:100EF000C206CE010E94B706000F111FFA94F1102E
:100F0000F0CFE5CF0E94CD06F1CFEF8DF8A1108391
:100F1000CE010E94A906EF8DF8A10083CE01DF91DA
:100F2000CF911F910F91FF900C94A9060F931F93DF
:100F3000CF93DF93EC01162F8DA9811109C06EBDEF
:100F40000DB407FEFDCFDF91CF911F910F91089552
:100F5000813099F408E0CE0117FF0CC00E94D8063A
:100F6000CE010E94C206110FCE010E94B7060150A9
:100F700091F7E9CF0E94CD06F3CFEF8DF8A1608302
:100F8000CE01DF91CF911F910F910C94A906CF93C1
:100F9000DF93EC01ED8DFE8D80819CA989238083F8
:100FA000CE010E949607ED8DFE8D80819BA9892B35
:100FB0008083DF91CF9108958F929F92AF92BF92DD
:100FC000CF92DF92EF92FF920F931F93CF93DF9315
:100FD000EC0189AD9AAD680F791F8BAD9CAD480FC0
:100FE000591F21503109260F371F4901B12CA12C5F
:100FF000CB01B0E0A0E0DC0199278827882A992A54
:10100000AA2ABB2A680181E0C81AD108C40ED51EDD
:10101000F12CE12C70E060E0BA0155274427C42A86
:10102000D52AE62AF72A6AE2CE010E94C707B5014F
:10103000A401CE010E94E3066BE2CE010E94C70725
:10104000B701A601CE010E94E3066CE2CE01DF915A
:10105000CF911F910F91FF90EF90DF90CF90BF90B5
:10106000AF909F908F900C94C707FC0185A98111C8
:1010700004C091A182A19CBD8DBD08951F93CF9303
:10108000DF93EC01162FE881F9810284F385E02DCE
:101090000995112371F06DADCE010E94C707E8815B
:1010A000F9810688F789E02DCE01DF91CF911F915C
:1010B00009946EADF1CFAF92BF92CF92DF92EF92D3
:1010C000FF920F931F93CF93DF93EC0177FD38C00E
:1010D00088859985681779079CF557FD31C08A8501
:1010E0009B854817590764F569017A015B01E8811E
:1010F000F9810284F385E02DCE010995E881F9811B
:1011000002A4F3A5E02D01E010E021E030E0A7010A
:10111000B501CE010995B601CE010E945507E881BF
:10112000F9810688F789E02DCE01DF91CF911F91DB
:101130000F91FF90EF90DF90CF90BF90AF90099408
:10114000DF91CF911F910F91FF90EF90DF90CF90A3
:10115000BF90AF9008958F929F92AF92BF92CF921F
:10116000DF92EF92FF920F931F93CF93DF93EC01E7
:1011700049015701E881F98102A4F3A5E02D099501
:101180009401D8010E948D2A6B017C01C114D10405
:10119000E104F10409F47DC08DA9811115C081E03D
:1011A000C81AD108E108F1088FEFC816D806E8067A
:1011B000F80609F46EC0BEBC0DB407FEFDCFAEBC90
:1011C0000DB407FEFDCFEBCF813099F581E0C81A51
:1011D000D108E108F1088FEFC816D806E806F8062E
:1011E00009F457C00B2D18E0CE0107FF1CC00E9468
:1011F000D806CE010E94C206CE010E94B706000F9B
:10120000115091F70A2D18E0CE0107FF0FC00E9480
:10121000D806CE010E94C206CE010E94B706000F7A
:10122000115091F7D3CF0E94CD06E3CF0E94CD0697
:10123000F0CFBA1016C0CC0CDD1CEE1CFF1CEF8DDD
:10124000F8A1B08281E0C81AD108E108F1088FEF57
:10125000C816D806E806F806E1F0CE010E94A906F5
:10126000F1CF81E0C81AD108E108F1088FEFC81664
:10127000D806E806F80669F0EF8DF8A1B082CE0135
:101280000E94A906EF8DF8A1A082CE010E94A906B6
:10129000E8CFDF91CF911F910F91FF90EF90DF90FA
:1012A000CF90BF90AF909F908F9008958F929F9214
:1012B000AF92BF92CF92DF92EF92FF920F931F9364
:1012C000CF93DF935C014B016A01E90177FD52C0C6
:1012D000DC0118968D919C91681779070CF04AC033
:1012E000209709F447C037FF07C0C9010196C80E0F
:1012F000D91ED195C195D109F50182859385C8166E
:10130000D906C4F5A6014C0F5D1F9A012150310981
:1013100037FD30C0D7FE03C0EA01D12CC12C2817FD
:1013200039071CF0EC01CC19DD09D501ED91FC91D8
:101330000284F385E02DC501099578018E0121E035
:1013400030E0A601B401C5010E94AB08D501ED91C2
:10135000FC910688F789E02DC501DF91CF911F919F
:101360000F91FF90EF90DF90CF90BF90AF909F9044
:101370008F900994DF91CF911F910F91FF90EF9083
:10138000DF90CF90BF90AF909F908F9008958F92F5
:101390009F92AF92BF92CF92DF92EF92FF920F9304
:1013A0001F93CF93DF935C016B014A01E90157FD65
:1013B00052C0DC011A968D919C91481759070CF088
:1013C0004AC0209709F447C037FF07C0C9010196FA
:1013D000C80ED91ED195C195D109F5018085918599
:1013E000C816D906C4F5A6014C0F5D1F9A012150FD
:1013F000310937FD30C0D7FE03C0EA01D12CC12C22
:10140000281739071CF0EC01CC19DD09D501ED9145
:10141000FC910284F385E02DC5010995780101E076
:1014200010E09E01A401B601C5010E94AB08D501E0
:10143000ED91FC910688F789E02DC501DF91CF91F0
:101440001F910F91FF90EF90DF90CF90BF90AF90E2
:101450009F908F900994DF91CF911F910F91FF90F2
:10146000EF90DF90CF90BF90AF909F908F900895B6
:101470008F929F92AF92BF92CF92DF92EF92FF92A4
:101480000F931F93CF93DF934C016B015A01E90136
:10149000209709F46CC00115110509F468C037FFE5
:1014A00007C0C9010196C80ED91ED195C195D109B1
:1014B000F401A085B185CA16DB060CF058C017FFF1
:1014C00007C0C8010196A80EB91E11950195110912
:1014D000F40182859385A816B9060CF048C0F60180
:1014E000EC0FFD1FAF014150510957FD40C0B50140
:1014F000600F711F9B012150310937FD38C0D7FEA5
:1015000003C0EF01D12CC12CB7FE03C08B01B12C5D
:10151000A12C4A175B071CF0ED01CC19DD09281737
:1015200039071CF08C010A191B09D401ED91FC91BB
:101530000284F385E02DC40109959E01A501B60141
:10154000C4010E94AB08D401ED91FC910688F78993
:10155000E02DC401DF91CF911F910F91FF90EF908B
:10156000DF90CF90BF90AF909F908F900994DF91C4
:10157000CF911F910F91FF90EF90DF90CF90BF9090
:10158000AF909F908F900895EF92FF920F931F93CB
:10159000F12CE12C89019A01AB01BC0188EB96E0AA
:1015A0000E94380A1F910F91FF90EF900895EF92DB
:1015B000FF920F931F93CF93DF9377FD32C0DC012F
:1015C0001896ED91FC916E177F075CF5211531059A
:1015D00041F137FF07C0F90131964E0F5F1F31957A
:1015E00021953109DC011A96ED91FC914E175F07A8
:1015F000C4F4EA01C20FD31FDE011197B7FD11C079
:1016000057FF03C09E0150E040E0AE17BF071CF03B
:101610009F01241B350B7801890121E030E00E94F5
:10162000AB08DF91CF911F910F91FF90EF9008953C
:10163000EF92FF920F931F93CF93DF9357FD31C02B
:10164000DC011A96ED91FC914E175F0754F52115B8
:10165000310539F137FF07C0F90131966E0F7F1F51
:10166000319521953109DC011896ED91FC916E17A9
:101670007F07BCF4EB01C20FD31FDE011197B7FD4A
:1016800010C077FF03C09E0170E060E0AE17BF0797
:101690001CF09F01261B370B780101E010E00E942F
:1016A000AB08DF91CF911F910F91FF90EF900895BC
:1016B0008F929F92AF92BF92CF92DF92EF92FF9262
:1016C0000F931F93CF93DF9347012115310509F441
:1016D0004BC00115110509F447C037FF07C0F901D8
:1016E00031966E0F7F1F319521953109DC011896D7
:1016F000AD90BC906A157B05BCF517FF07C0F801DB
:1017000031964E0F5F1F119501951109DC011A9654
:10171000ED91FC914E175F073CF56B01C20ED31E95
:10172000E6012197D7FD20C07A01E00EF11ED70116
:101730001197B7FD19C077FF03C0960170E060E014
:1017400057FF03C0870150E040E0CA15DB051CF0DD
:101750009501261B370BAE17BF071CF08F01041B2A
:10176000150B74010E94AB08DF91CF911F910F916F
:10177000FF90EF90DF90CF90BF90AF909F908F90B1
:101780000895EF92FF920F931F93CF93DF93EC0195
:1017900077FD22C08885998568177907ECF457FD95
:1017A0001BC08A859B8548175907B4F47901E881E5
:1017B000F98102A4F3A5E02D01E010E021E030E082
:1017C000CE010995B701CE01DF91CF911F910F9105
:1017D000FF90EF900C945507DF91CF911F910F91DF
:1017E000FF90EF900895CF93DF93EC010E943508AE
:1017F0008FA987FD06C0EB8DFC8D80819AA9892376
:101800008083DF91CF91089508950F931F93CF9315
:10181000DF93EC018B010E9435088FA987FD06C07C
:10182000EB8DFC8D80819AA989238083ED8DFE8DBF
:1018300080819CA98923808366E3CE010E9496075C
:10184000ED8DFE8D80819BA9892B80838DA9F80168
:10185000823091F06081CE010E9496078FA987FDAA
:1018600006C0EB8DFC8D808199A9892B8083DF9147
:10187000CF911F910F91089588A9882359F3608112
:101880007181CE010E945507E9CFCF93DF931F925C
:10189000CDB7DEB7FC0119826370668BDC01AD5BEE
:1018A000BF4F2C9130E011968C9190E0623031F076
:1018B0006330C9F0613081F040EC498332AF21AF31
:1018C00094AF83AFBE016F5F7F4FCF010E94050CC5
:1018D0000F90DF91CF91089540EA498334AF23AF51
:1018E00092AF81AFEFCF40E6F8CF0F931F93CF9326
:1018F000DF931F92CDB7DEB7FC0119826370668B50
:10190000DC01A85BBF4F2D913C91119712968D91F0
:101910009C916230D1F1633009F440C08F010C5BBF
:101920001F4F6130F9F040EC4983AF014D5B5F4FD1
:10193000DA014C9150E052AF41AFD8014C9150E0E8
:1019400054AF43AF3187208793878287BE016F5F93
:101950007F4FCF010E94050C0F90DF91CF911F9117
:101960000F91089540EA4983D8014C9150E052AF5D
:1019700041AFDF01AA5BBF4F4C9150E054AF43AF82
:101980003387228791878087E1CFDF01AA5BBF4F32
:101990004C9150E052AF41AF1196D0CF40E6498311
:1019A000DF01A95BBF4F4C9150E052AF41AF14979C
:1019B000E3CFFC0187A987FD06C0A38DB48D9C9160
:1019C00081A9892B8C9308950895FC016370668B1F
:1019D0008481958126813781613039F0633029F027
:1019E000918780873387228708953187208793875F
:1019F000828708952F923F924F925F926F927F92CB
:101A00008F929F92AF92BF92CF92DF92EF92FF920E
:101A10000F931F93CF93DF93CDB7DEB76A970FB6BF
:101A2000F894DEBF0FBECDBF9A8F898F7A8369830A
:101A30004A01D22E18870F833701BC2CDC0159963E
:101A40002D913C915A972115310509F015C1189631
:101A50008D919C911997681779070CF0D7C11A9648
:101A60008D919C91481759070CF0D0C14C2C512CEA
:101A7000B6E0CB9E600D711D11247C876B87161616
:101A800017060CF0C3C1EA2DF0E0FA87E98793E06E
:101A9000EE0FFF1F9A95E1F7F88BEF87CF01840FC8
:101AA000951F181619060CF0B1C1A98DBA8D58965C
:101AB0008C91811104C0BFEABD1508F4D394A98D9F
:101AC000BA8DED91FC9111970284F385E02DCD0143
:101AD0000995B5E0DB9EC0011124E981FA81FC8300
:101AE000EB83312C212C9C01205E3D4F388F2F8BB6
:101AF0004A2D50E05E8B4D8BEF89F88DE20DF31D82
:101B000044919E828D82D12CC12C69817A81620D93
:101B1000731D7A8B698B842F90E09C8B8B8BE98D66
:101B2000FA8DA081B18140FF82C0F1E0BF126FC089
:101B3000AF126DC01C96ED91FC912F813885A401E8
:101B40004C0D5D1D69897A89898D9A8D0995EB897E
:101B5000FC89F595E7954E2F5FEFC51AD50A6D8183
:101B60007E818D899E89680F791F7E836D8398E0C1
:101B7000C916D10481F6AFEF2A1A3A0AEB81FC812B
:101B8000E40DF51DFC83EB83F5E02F16310409F01D
:101B9000B3CF2F81388526153705B9F0A98DBA8DB9
:101BA000ED91FC91B1E0BB1257C0AB1255C06981F9
:101BB0007A816B5F7F4F0088F189E02D830128E0F7
:101BC00030E0A401898D9A8D0995A98DBA8DED918A
:101BD000FC9111970688F789E02DCD016A960FB622
:101BE000F894DEBF0FBECDBFDF91CF911F910F9153
:101BF000FF90EF90DF90CF90BF90AF909F908F902D
:101C00007F906F905F904F903F902F9009941E9619
:101C1000ED91FC91EF80F88409851A8592014D8140
:101C20005E816B817C81898D9A8D099590CF2F8102
:101C300038852615370509F48ACF31E0B31207C07D
:101C4000A31205C01C96ED91FC91930178CF1E96CE
:101C5000ED91FC917301E0CF6B857C85641975096A
:101C60000684F785E02D73010F8518899201A40180
:101C7000898D9A8D0995A9CFF9013496949132975F
:101C800045915491D91AB7E0DB9E400D511D1124A6
:101C9000F901259134913C8B2B8BFA0125903490DE
:101CA000FA013296749031963491398B3296649061
:101CB0003196449041E04C1518F04A1508F07FC069
:101CC000662D062C000C770B7C836B83842D042CF3
:101CD000000C990B9E838D83A98DBA8DED91FC919B
:101CE00011970284F385E02DCD010995512CD12C5B
:101CF000C12CEA2DF0E0FA87E9872B2D30E03C87F4
:101D00002B87A401440D511D47FC5A95588F4F8BCA
:101D100069817A81660D711D67FC7A957E876D8772
:101D20007989C71608F051CF2C2D30E04D815E81A6
:101D3000420F531FA985BA854A9FC0014B9F900D42
:101D40005A9F900D1124FC01E80DF91DF88BEF87C7
:101D5000852D612C4F89588D420F531F5E8B4D8B03
:101D6000671408F050C044244394480E877041F42F
:101D7000C1010196EB89FC89E20DF31DD4901C0191
:101D8000D7FE19C0A98DBA8DED91FC91662D70E03A
:101D9000B1E0BB1219C0AB1217C02D853E85620F92
:101DA000731F0484F585E02D2F8138854D895E8968
:101DB000898D9A8D0995DD0C6394842DD1CF1E8277
:101DC0001D821C821B8288CF4B815C81640F751F32
:101DD000AB85BC856A9FC0016B9F900D7A9F900D6B
:101DE000112469817A81680F791F0684F785E02DB7
:101DF000EF80F88409851A859D014F855889898D62
:101E00009A8D0995D8CF570CC3948ACF6A960FB68E
:101E1000F894DEBF0FBECDBFDF91CF911F910F9120
:101E2000FF90EF90DF90CF90BF90AF909F908F90FA
:101E30007F906F905F904F903F902F9008958F927A
:101E40009F92AF92CF92EF92FF920F931F93CF93F7
:101E5000DF93EC01262F898D9A8D009709F051C0F0
:101E60006A30D1F41D861C868D8948E0849F9001DC
:101E700011248E859F85820F931F9F878E8781E017
:101E800090E0DF91CF911F910F91FF90EF90CF9055
:101E9000AF909F908F9008956D3089F3CC88AD8876
:101EA0008F898823C1F08C859D8536E0C39E800D87
:101EB000911D1124488559854817590764F44E85AA
:101EC0005F851D861C8638E0A39EC0011124840F07
:101ED000951F9F878E87EA88FB88088919894E8518
:101EE0005F856C857D85CE010E94FA0C2C898C85DE
:101EF0009D8546E0249F800D911D11249D878C8730
:101F0000BECF6A3069F41D861C86FC013896E491C8
:101F10002D898E859F85E29F800D911D1124ADCF67
:101F20006D3009F4ACCFFC0134963491631708F49A
:101F3000A6CF3296E491E61708F4A1CFFC013296C1
:101F400085909490462F431B342F47E0349F800C9C
:101F5000911C1124F401329634913196E49133238B
:101F6000A9F1EE2399F1CC88F4013596E491AD887E
:101F70004F89442301F10E2E000CFF0BE30FF11DDE
:101F8000CE9EA001CF9E500D11246C857D85460FFD
:101F9000571F68857985641775076CF44E855F85D2
:101FA0001D861C86FC013896E491AE9E400D511DA5
:101FB00011245F874E87EA88FB88088919894E8536
:101FC0005F856C857D85CE010E94FA0CF401349604
:101FD000E4912C898C859D85E29F800D911D1124B3
:101FE0008DCF6F927F928F929F92AF92BF92CF923E
:101FF000DF92EF92FF920F931F93CF93DF93EC0149
:102000006B015A0139014801E881F9810284F385A5
:10201000E02D0995E881F9810288F389E02D870197
:102020009301A501B601CE010995A501480D591DE1
:1020300041505109E881F9810288F389E02D93012B
:10204000B601CE010995E881F9810088F189E02D7A
:102050009401A501B601CE010995C60CD71CB601A5
:1020600061507109E881F9810088F189E02D9401BE
:10207000A501CE010995E881F9810688F789E02D4F
:10208000CE01DF91CF911F910F91FF90EF90DF90E4
:10209000CF90BF90AF909F908F907F906F9009945A
:1020A000CF92DF92EF92FF920F931F93CF93DF9324
:1020B000EC016B017A01675F7F4F2AE030E042E07C
:1020C00050E00E94C40A09E010E022E030E0A601DE
:1020D000BE0188EB96E00E94F10FDF91CF911F9136
:1020E0000F91FF90EF90DF90CF900895CF92DF9205
:1020F000EF92FF920F931F93CF93DF936C01EB014D
:102100007A01645171092AE030E042E050E00E9417
:10211000C40AAE014950510909E010E022E030E064
:10212000B60188EB96E00E94F10FDF91CF911F91ED
:102130000F91FF90EF90DF90CF9008956F927F9274
:102140008F929F92AF92BF92CF92DF92EF92FF92C7
:102150000F931F93CF93DF935C01EB016A01490159
:1021600038018701DC01ED91FC916217730719F5C5
:10217000641675062CF0962D872D3A01C92ED82E9F
:102180009601261937092F5F3F4F048CF58DE02DFE
:10219000A301BE01C5010995DF91CF911F910F9158
:1021A000FF90EF90DF90CF90BF90AF909F908F9077
:1021B0007F906F9008954615570591F426173707BD
:1021C00024F0892D4B01C22FD82F9E0128193909DF
:1021D0002F5F3F4F068CF78DE02DA601B401DACFBB
:1021E0000284F385E02D0995D501ED91FC910488D9
:1021F000F589E02D83019401A601BE01C501099571
:10220000D501ED91FC910688F789E02DC501DF919C
:10221000CF911F910F91FF90EF90DF90CF90BF90E3
:10222000AF909F908F907F906F900994EF92FF9264
:102230000F931F93DC011A960D911C911B97189612
:102240002D913C911997ED91FC9100A0F1A1E02D09
:102250007B0150E040E070E060E009951F910F9134
:10226000FF90EF9008954F925F926F927F928F92BE
:102270009F92AF92BF92CF92DF92EF92FF920F9315
:102280001F93CF93DF936C012B015A013901480151
:10229000DC01ED91FC910284F385E02D0995E201CA
:1022A000640C751CD601ED91FC91C615D7055CF444
:1022B0000088F189E02D87019401A501BE01C601C6
:1022C00009952196EFCF0688F789E02DC601DF91A9
:1022D000CF911F910F91FF90EF90DF90CF90BF9023
:1022E000AF909F908F907F906F905F904F900994E8
:1022F0008F929F92AF92BF92CF92DF92EF92FF9216
:102300000F931F93CF93DF93EC015B014A016901A7
:10231000E881F9810284F385E02D099595012C0D62
:102320003D1D21503109E881F9810488F589E02DAE
:1023300078018401A401B501CE010995E881F981F4
:102340000688F789E02DCE01DF91CF911F910F9183
:10235000FF90EF90DF90CF90BF90AF909F908F90C5
:1023600009948F929F92AF92BF92CF92DF92EF9299
:10237000FF920F931F93CF93DF93EC015B014A0110
:1023800069017801E881F9810284F385E02D0995DE
:10239000C80CD91C860101501109E881F981048813
:1023A000F589E02D9501A401B501CE010995E881DB
:1023B000F9810688F789E02DCE01DF91CF911F9139
:1023C0000F91FF90EF90DF90CF90BF90AF909F90D4
:1023D0008F9009940895EF92FF920F931F93DC0161
:1023E000ED91FC9100A0F1A1E02D09951F910F91B5
:1023F000FF90EF9008950F931F93DC01ED91FC91F6
:10240000068CF78DE02D09951F910F9108950F937C
:102410001F93DC01ED91FC91048CF58DE02D099565
:102420001F910F910895DC01ED91FC910084F185DD
:10243000E02D09942F923F924F925F926F927F927C
:102440008F929F92AF92BF92CF92DF92EF92FF92C4
:102450000F931F93CF93DF9300D000D000D0CDB760
:10246000DEB73C016A013E832D83FC82EB8258017A
:10247000A41AB50AB7FE03C0B194A194B1088D8027
:102480009E80861A970A97FE03C0919481949108C2
:102490008A149B045CF0902F812F0D811E819D83F7
:1024A0008E839C2D8D2D6B01692F782F0C151D05AA
:1024B0005CF09D818E817E836D83692F782F902FB4
:1024C000812F8601C92ED82E1601201A310A2B0120
:1024D0002D813E81421A530A57FE03C05194419404
:1024E0005108710137FE03C03FEFE31AF30AF59478
:1024F000E7948D819E81861797075CF5A1E0B0E097
:10250000BA83A983C016D1064CF1D301ED91FC9199
:102510000484F585E02D2B813C81A8016D817E81AD
:102520008A149B041CF04D815E81B801C30109959A
:10253000E418F508F7FE0AC02D813E8189819A8151
:10254000280F391F3E832D83E20CF31C0F5F1F4FB2
:10255000D9CF2FEF3FEF3A832983D4CF26960FB6FA
:10256000F894DEBF0FBECDBFDF91CF911F910F91C9
:10257000FF90EF90DF90CF90BF90AF909F908F90A3
:102580007F906F905F904F903F902F9008950895A7
:1025900090E080E00895CF93CFB7F89480917F02C8
:1025A000811127C0EEE3F7E08491E2E5F7E0949132
:1025B000E82FF0E0EE0FFF1FE05EF84FA591B49119
:1025C000EC91E92321F461E08AE00E94FF0561E0DB
:1025D0008AE00E944B068CB580618CBD8CB580640E
:1025E0008CBD61E08DE00E944B0661E08BE00E94B3
:1025F0004B0680917F028F5F80937F02CFBFCF9188
:102600000895CF93C82F8A3019F48DE00E940113EA
:102610008091C00085FFFCCFC093C60090E080E0B1
:10262000CF9108958093BB0084EC8093BC0080918F
:10263000BC0087FFFCCF089590917C00907E909322
:102640007C0090917C00892B80937C0080917A00A3
:10265000806480937A0080917A0084FFFCCF80911F
:1026600078009091790008950F931F93CF93DF9393
:10267000EC01FC0101900020E9F731978F01081B64
:10268000190B70E060E088EB96E00E9416112EEEC8
:102690002003C001219F900D112480519F4F97FD71
:1026A0000196959587959093C5068093C40688E812
:1026B00090E09093C7068093C6068FEF9FEF9093AC
:1026C000CB068093CA069093C9068093C80683E020
:1026D0008093CC068093CD0681E08093CF06FE01E7
:1026E00001900020E9F73197AF014C1B5D0BBE0153
:1026F00088EB96E0DF91CF911F910F910C947C06AF
:102700004F925F926F927F928F929F92AF92BF9201
:10271000CF92DF92EF92FF920F931F93CF93DF93AD
:102720007C016B018091C0069091C106E816F90604
:1027300084F42091C2063091C306621773074CF4EB
:10274000B701635E7F4F77FD04C0D6015196B7FF96
:1027500027C0DF91CF911F910F91FF90EF90DF90F5
:10276000CF90BF90AF909F908F907F906F905F9031
:102770004F900895EC965AC088EB96E0DF91CF9188
:102780001F910F91FF90EF90DF90CF90BF90AF908F
:102790009F908F907F906F905F904F900C94D90C8A
:1027A00050E040E0EEE18E2E912CF7FE0AC047018A
:1027B0004EE1840E911C442755274E195F09F12CD8
:1027C000E12CF0E0E0E0C2E1AC2EB12CD7FE0AC073
:1027D0005601E2E1AE0EB11CEE27FF27EC19FD0910
:1027E000D12CC12C681779071CF04C018E189F085A
:1027F000A217B3071CF05901AC18BD088EE18E9FDB
:10280000E0018F9FD00D1124C40FD51FCC0FDD1F09
:10281000C058DD4F88EB96E00E94F30B85019401D0
:10282000A601B70188EB96E00E94DC07F1E0AF1A41
:10283000B10808F4A1CF2401092C000C6608770820
:10284000411451046104710409F494CF7E0181E0C4
:10285000481A510861087108EFEF4E165E066E06C1
:102860007E0609F487CFF701619171917F0188EBB2
:1028700096E00E945507EBCF0F931F93CF93DF9302
:10288000EC0122E130E047E050E068E171E00797B9
:102890000E94C40A22E130E047E050E068E171E0C4
:1028A000CE014E960E94C40A60E872E030E020E05B
:1028B000DB0150E040E089010F5D144FF801E40FA7
:1028C000F51FE49180EE97E0E11102C090E080E016
:1028D00011969C938E9313969C938E931297DD96EC
:1028E0009C938E93DC97DF969C938E93DE974F5F3D
:1028F0005F4F14964F30510509F768587F4F215F9D
:102900003F4F27383105A1F668E171E0CE01DF9134
:10291000CF911F910F910C948013DF92EF92FF9251
:102920000F931F93CF93DF93EC018B0122E130E0F3
:102930004EE150E068E171E00E94C40A60E872E094
:1029400030E020E08FE0D82ED29E7001D39EF00CB4
:102950001124E00EF11EDB0150E040E0FA01EE0D23
:10296000FF1DE49180EE97E0E11102C090E080E06D
:1029700011969C938E9313969C938E931297DD964B
:102980009C938E93DC97DF969C938E93DE974F5F9C
:102990005F4F14964F30510509F72F5F3F4F68582E
:1029A0007F4F2930310581F668E171E0CE01DF917A
:1029B000CF911F910F91FF90EF90DF900C948013B7
:1029C0008F929F92AF92BF92CF92DF92EF92FF923F
:1029D0000F931F93CF93DF936C015A0180E8E82E89
:1029E00082E0F82ED0E0C0E08FE08C9F40018D9F08
:1029F000900C11248A0C9B1CD70110E000E0F80118
:102A0000E80DF91DE491522F932FE11102C050E01F
:102A100090E05C9311969C93119712965C93129799
:102A200013969C931397DC965C93DC97DD969C93AE
:102A3000DD97DE965C93DE97DF969C93DF970F5FC2
:102A40001F4F14960F301105D1F6219698E7E90E25
:102A5000F11CC930D10549F6C601DF91CF911F9114
:102A60000F91FF90EF90DF90CF90BF90AF909F902D
:102A70008F900C9480138F929F92AF92BF92CF92BF
:102A8000DF92EF92FF920F931F93CF93DF934C014E
:102A9000EB015A01690122E130E0AB01B50190E0A0
:102AA00080E00E94C40AC114D10459F0D7FC04C0CC
:102AB00083E0C816D1046CF1012BB1F505E019E0F3
:102AC00004C0012B59F507EF17E074014E01E2ED48
:102AD0008E0E911CF701819191917F01C816D90644
:102AE00034F52FEF3FEFA801B501CE010E94E014AD
:102AF0006E96C815D90571F7DF91CF911F910F918F
:102B0000FF90EF90DF90CF90BF90AF909F908F900D
:102B10000895012B31F40EE718E0D7CF0AE91AE047
:102B2000D4CF03E11AE0D1CF0CE819E0CECF22E1F7
:102B300030E04EE150E0B501CE010E94C40AD8CF8A
:102B4000EF92FF920F931F93CF93DF9300E812E071
:102B500050E040E0D801D0E0C0E09A012059384F61
:102B60007901F701EC0FFD1FE49120E038EFE1114E
:102B700002C030E020E011963C932E9313963C93D4
:102B80002E931297DD963C932E93DC97DF963C9321
:102B90002E93DE9721961496CF30D10511F7085861
:102BA0001F4F415F5F4F47385105A1F6DF91CF912D
:102BB0001F910F91FF90EF900C9480130E94B62A02
:102BC000CF93DF93C82FD62F84EA8093BC008091E7
:102BD000BC0087FFFCCF8EE40E941213CD2BDC2FAC
:102BE000D8608D2F0E9412138C2F8C600E941213BC
:102BF0008D2F0E94121384E98093BC0087EC90E033
:102C00000197F1F700C00000DF91CF910895CF93B5
:102C1000C82F61E0807F0E94E01561E08C2F8295D3
:102C2000807F0E94E01587EC90E00197F1F700C0EB
:102C30000000CF910895CF93C82F60E0807F0E945D
:102C4000E01560E08C2F8295807F0E94E0158FE375
:102C50009FE10197F1F700C00000CF910895CF9355
:102C600080E80E941B16C0E180E20E940716C15056
:102C7000D9F780E8CF910C941B160F931F93CF9335
:102C8000DF938B0180680E941B16E80189918823DD
:102C900019F00E940716FACFDF91CF911F910F9183
:102CA0000895CF92DF92EF92FF920F931F93CF93ED
:102CB000DF93EC016A017B01C114D104E104F1044A
:102CC00039F4C12C28E4D22E28EEE22EFF24F3940E
:102CD000FE01FF96C082D182E282F38281E28DAF53
:102CE00080E28EAF369610818FA987FD07C061E024
:102CF0000E944B0661E08FA90E94FF0561E088AD4C
:102D00000E944B0661E088AD0E94FF058DA98111EC
:102D10005BC040E052E16AE770E0C416D506E60603
:102D2000F70640F476956795579547958F5F8630FF
:102D3000A1F787E0212F2C702065982F9695922B74
:102D400099A3809581708AA3812F90E0B0E0A0E0E4
:102D50008BA39CA3ADA3BEA30E94CB128EA987FD1B
:102D60002AC061E00E944B0661E08EA90E94FF0527
:102D70002FEF81EE94E0215080409040E1F700C0B9
:102D8000000060E08EA90E94FF05EFEFF1EE24E065
:102D9000E150F0402040E1F700C0000061E08EA962
:102DA0000E94FF058FEF93ECE9E081509040E040F6
:102DB000E1F700C00000DF91CF911F910F91FF90CC
:102DC000EF90DF90CF90089504E317E0F12C81306D
:102DD000B9F461E08AA50E944B0660E08AA50E94D2
:102DE000FF0561E08CA50E944B0660E08CA50E9467
:102DF000FF058BA587FDB2CF60E00E944B06AECFEA
:102E0000F8018491E82FF0E0EE0FFF1FE65DF84F28
:102E1000859194912F8D38A12817390741F461E0ED
:102E20008F2D0E944B0660E08F2D0E94FF05F394CA
:102E30000F5F1F4FF4E1FF12E3CF61E08EA50E9408
:102E40004B0661E08EA50E94FF058FA587FD86CF0A
:102E500061E00E944B0661E08FA50E94FF057ECFD6
:102E60001F920F920FB60F9211248F939F938BB1E5
:102E700090E489278BB99F918F910F900FBE0F908F
:102E80001F9018951F920F920FB60F9211248F93D7
:102E90009F93AF93BF9380917B0290917C02A0910E
:102EA0007D02B0917E020196A11DB11D80937B022F
:102EB00090937C02A0937D02B0937E02BF91AF916C
:102EC0009F918F910F900FBE0F901F9018951F929A
:102ED0000F920FB60F9211248F939F938BB190E2B4
:102EE00089278BB99F918F910F900FBE0F901F90E4
:102EF00018951F920F920FB60F9211248F939F93E4
:102F000081E090E090937902809378029F918F9175
:102F10000F900FBE0F901F901895A8EBB6E0139678
:102F20001C921E92129720EF30E015963C932E9340
:102F3000149780E491E017969C938E9316971996B8
:102F40003C932E9318971B969C938E931A975696A4
:102F50001C9256971D961C921E921C971F961C92AF
:102F60001E921E9781E055968C93559754968C939C
:102F700054972FEF3FEF53963C932E9352975196D1
:102F80003C932E93509757968C93579758961C9234
:102F900058975A961C921E925997D5961C92D5977F
:102FA0008FEFD6968C93D6978AE0D7968C93D79747
:102FB00089E0D8968C93D897DA961C921E92D9976E
:102FC000DC961C921E92DB97DD961C92DD97DE96B6
:102FD0001C92DE971092F7061092F8061092F906EE
:102FE0001092FA068AE792E090969C938E935F97F0
:102FF000EDE3F7E0E491F0E0EE0FFF1FE65DF84F40
:10300000859194915E969C938E935D97E1E5F7E0B0
:103010008491D3968C93D397EEE3F7E0E491F0E0BC
:10302000EE0FFF1FE65DF84F259134915C963C93BF
:103030002E935B97E2E5F7E0E491D196EC93D1977C
:10304000E095D296EC93D297E82FE095D496EC9346
:10305000D4971092FB061092FC061092FD068EE4A7
:1030600091E08D939C931092FE061092FF060895B6
:10307000CF93DF93CDB7DEB7C95ED1090FB6F89411
:10308000DEBF0FBECDBFF89480916900836080934E
:103090006900E89A7894259A5298569A1092C50039
:1030A00087E68093C40088E18093C1008EE080931E
:1030B000C20081E093E190937302809372021092B8
:1030C00075021092740282E080936D021092770272
:1030D000109276028AE692E09093070780930607A3
:1030E0008AE791E00E94D12A14BC15BC84B58260A5
:1030F00084BD85B5846085BD80916E0082608093BB
:103100006E00109280001092810080918100886092
:103110008093810080918100826080938100809102
:103120006F00826080936F008CED95E09093890032
:10313000809388001092B0001092B1008091B0008E
:1031400082608093B0008091B10086608093B1006E
:10315000809170008260809370008DE891E00E9401
:10316000D12A80917A00876080937A0080917C00D8
:10317000806480937C0080917A00806880937A00DC
:1031800081EA91E00E94D12A0E94CB128CB58C7FFB
:1031900081608CBD8DB58E7F8DBD82EB91E00E94EC
:1031A000D12A1092FD0640E050E0BA0188EB96E08B
:1031B0000E9451161092FF061092FC061092FE0615
:1031C0001092FB0680EF90E0909301078093000738
:1031D00080E491E09093030780930207E8E6F0E033
:1031E000849089E690E08A94EE24EA948E1409F49F
:1031F0007EC0FC01F4908C010E5F1F4F31969490BD
:10320000E92CE894E7F888EB96E00E943508809175
:10321000EF0687FD09C0E091D306F091D4068081C6
:103220009091EA0689238083E091D506F091D60635
:1032300080819091EC06892380836F2D88EB96E046
:103240000E949607E091D506F091D6068081909174
:10325000EB06892B8083F801B12CA12CF12CAE1444
:10326000BF04FCF48091ED066F01823089F48091F7
:10327000E806882369F0DF016D917D916D0188EB8F
:1032800096E00E945507EFEFAE1ABE0AF601E7CFAF
:10329000BFEFCB1ADB0A649188EB96E00E94960799
:1032A000F2CF8091EF0687FD09C0E091D306F0913F
:1032B000D40680819091E906892B80830E0D1F1D15
:1032C000C80197FE90CF0196F801049110E00F3FDE
:1032D000110511F404EF11E00150110908F483CF36
:1032E000AFE9BFE01197F1F700C00000F5CF60E053
:1032F00088EB96E00E94750C60E088EB96E00E94F7
:103300003E0883EC91E00E94D12A1092BC0088E430
:103310008093B8008091B9008E7F8093B90080912E
:10332000B9008D7F8093B90010E000E054EAD52EFB
:1033300068EDE62E61E0F62ED092BC008091BC00D4
:1033400087FFFCCF802F880F81600E94121380912D
:10335000B900887F803451F41F930F93FF92EF924E
:103360000E94BB2A0F900F900F900F900F5F1F4F7E
:103370000F37110509F784E98093BC00BFEFE0E740
:10338000F2E0B150E040F040E1F700C0000060E042
:1033900080E30E94E0158FE19EE40197F1F700C001
:1033A000000060E080E30E94E015A7E5B2E011971D
:1033B000F1F700C0000060E080E20E94E015E7E560
:1033C000F2E03197F1F700C0000088E20E941B167E
:1033D0008CE00E941B1681E00E941B168FE39FE188
:1033E0000197F1F700C0000086E00E941B1683EFF2
:1033F00091E00E94D12A80E00E941C130E940B2AB7
:103400008BE0E5E5F2E0DE01D19601900D928A9520
:10341000E1F78AE0E0E6F2E0DE01DC9601900D9251
:103420008A95E1F785E090E09CA38BA39EA38DA3F2
:1034300098A78FA39AA789A79CA78BA79EA78DA7BC
:1034400098AB8FA7A5961FAEA597A6961FAEA69779
:10345000A7961FAEA7978E010A5B1F4FA9961FAFB5
:103460000EAFA99728961FAE1EAE28972A961FAEBC
:103470001EAE2A972C961FAE1EAE2C975E011CE442
:10348000A10EB11CD50111961C921E9213961C928E
:103490001E92129715961C921E9214976E01B2E519
:1034A000CB0ED11CF601118210821382128215827A
:1034B00014828E01085A1F4FD80111961C921E9239
:1034C00013961C921E92129715961C921E92149798
:1034D0007E01BEE5EB0EF11CF70111821082138212
:1034E00012821582148264E072E080E00E943D1630
:1034F00064E172E080E40E943D1684E292E00E9462
:10350000D12ACE01C1960E943413C158DF4F1882D0
:10351000CF57D040C456DF4F19821882CC59D040C3
:10352000C053DF4F188219821A821B82C05DD040BF
:10353000C054DF4F19821882C05CD04024E130E0D3
:10354000C255DF4F39832883CE5AD040C254DF4F53
:1035500019821882CE5BD040E9961FAE1EAEE99765
:10356000C656DF4F19821882CA59D04049E150E04F
:10357000C455DF4F59834883CC5AD04066E470E08D
:10358000C655DF4F79836883CA5AD040C856DF4F8B
:1035900019821882C859D040C957DF4F1982188242
:1035A000C758D040C453DF4F188219821A821B8239
:1035B000CC5CD040CE53DF4F1882C25CD040CD539C
:1035C000DF4F1882C35CD040C855DF4F1982188284
:1035D000C85AD040EF961FAE1EAEEF97AD961FAE05
:1035E0001EAEAD97ED961FAE1EAEED97912C812CC1
:1035F000AA961FAEAA97CB57DF4F19821882C558DB
:10360000D04088E190E0EB969FAF8EAFEB97712CA6
:10361000612CA1E0B0E0C256DF4FB983A883CE5938
:10362000D040E0E1F0E0E196FFAFEEAFE19724E0BB
:1036300030E0C654DF4F39832883CA5BD0404EE167
:1036400050E0CC54DF4F59834883C45BD040C75708
:10365000DF4F19821882C958D0406EE170E0AF96F2
:103660007FAF6EAFAF9784E090E0CF57DF4F998385
:103670008883C158D040CE55DF4FB983A883C25A42
:10368000D040E3E2F0E0C056DF4FF983E883C05A50
:10369000D0404AE6442E512CE5961CAE1DAE1EAE1F
:1036A0001FAEE597C157DF4F188219821A821B821D
:1036B000CF58D040CA54DF4F188219821A821B8219
:1036C000C65BD04021E030E0C653DF4F398328830A
:1036D000CA5CD04043E050E0CD57DF4F5983488368
:1036E000C358D040C357DF4F19821882CD58D040FD
:1036F000312C212CCA55DF4F19821882C65AD0406E
:10370000CB56DF4F19821882C559D040CA53DF4FBC
:10371000188219821A821B82C65CD040C557DF4FBF
:1037200019821882CB58D040CC55DF4F19821882AD
:10373000C45AD04061E070E0CD56DF4F7983688392
:10374000C359D04080917B0290917C02A0917D0270
:10375000B0917E02CA54DF4FE880F9800A811B8154
:10376000C65BD0408E159F05A007B10708F050C07A
:1037700000917B0210917C0220917D0230917E02AB
:10378000CA54DF4F088319832A833B83C65BD0402A
:1037900020917B0230917C0240917D0250917E020B
:1037A000C157DF4F288339834A835B83CF58D0408A
:1037B00040917B0250917C0260917D0270917E026B
:1037C000CA53DF4F488359836A837B83C65CD040EA
:1037D00060917B0270917C0280917D0290917E02CB
:1037E000C453DF4F688379838A839B83CC5CD0404A
:1037F00080917B0290917C02A0917D02B0917E022B
:10380000C053DF4F88839983AA83BB83C05DD040B8
:103810002114310409F0DFC1C158DF4FE880CF57D0
:10382000D040EE2009F41AC1CE01C1960E94341393
:1038300064E072E080E00E943D1664E172E080E4A2
:103840000E943D1685E090E09CA38BA39EA38DA3D0
:1038500098A78FA39AA789A79CA78BA79EA78DA798
:1038600098AB8FA7FE01EC59FF4FBE016A5B7F4FFB
:10387000AE01445B5F4F9E012E5A3F4FCE01885AE6
:103880009F4F7E010EE5E00EF11C8F010D5F1F4F73
:103890001192DB011D921D92BD01DA011D921D9254
:1038A000AD01D9011D921D929D01DC011D921D9259
:1038B000CD01D7011D921D927D010E171F0741F703
:1038C000C254DF4F19821882CE5BD040E9961FAEFA
:1038D0001EAEE997C656DF4F19821882CA59D040EA
:1038E000C856DF4F19821882C859D040EF961FAED4
:1038F0001EAEEF97AD961FAE1EAEAD97CB57DF4F06
:1039000019821882C558D040712C612CC757DF4FDF
:1039100019821882C958D040C357DF4F19821882C4
:10392000CD58D040C557DF4F19821882CB58D040B0
:10393000E4E1F0E0C255DF4FF983E883CE5AD0408E
:1039400006E410E0C655DF4F19830883CA5AD040F9
:10395000C957DF4F19821882C758D040CE53DF4F66
:103960001882C25CD040CD53DF4F1882C35CD04078
:10397000C855DF4F19821882C85AD040ED961FAE45
:103980001EAEED97912C812CAA961FAEAA9728E126
:1039900030E0EB963FAF2EAFEB9741E050E0C256E0
:1039A000DF4F59834883CE59D04060E170E0E19603
:1039B0007FAF6EAFE19784E090E0C654DF4F99830C
:1039C0008883CA5BD040AEE1B0E0CC54DF4FB9830E
:1039D000A883C45BD040EEE1F0E0AF96FFAFEEAF5E
:1039E000AF9704E010E0CF57DF4F19830883C15829
:1039F000D04021E030E0CE55DF4F39832883C25AD2
:103A0000D04043E250E0C056DF4F59834883C05A4C
:103A1000D0402AE6422E512CE5961CAE1DAE1EAEBD
:103A20001FAEE597C157DF4F188219821A821B8299
:103A3000CF58D04063E070E0CD57DF4F7983688383
:103A4000C358D040CA55DF4F19821882C65AD04099
:103A5000CB56DF4F19821882C559D04080917B0226
:103A600090917C02A0917D02B0917E02CA54DF4FFA
:103A7000E880F9800A811B81C65BD0408E199F09BE
:103A8000A00BB10B80329340A105B10508F47AC0B8
:103A900020917B0230917C0240917D0250917E0208
:103AA000CA54DF4F288339834A835B83C65BD04087
:103AB00081E090E0C653DF4F48815981CA5CD04015
:103AC000452B11F490E080E066277727681B790B7F
:103AD000E7967FAF6EAFE797DE01D196FD010190CB
:103AE0000020E9F731979F012A1B3B0B4EEE420362
:103AF0006001439FD00C112470EFC70ED11CD7FE7C
:103B000003C08FEFC81AD80AD594C79482E1829F68
:103B1000A001839F500D112494EAA92EB12CD60147
:103B2000A40FB51FC158DF4FB983A883CF57D0402A
:103B3000E796EEACFFACE7978501C158DF4F2881CF
:103B40003981CF57D040A501B60188EB96E00E949D
:103B50009E10BFEFAB1ABB0AE9EAAE16B10441F7FB
:103B600081E0C653DF4FE880F980CA5CD040EF287F
:103B700009F080E0082F10E0C653DF4F1983088357
:103B8000CA5CD040C158DF4F1882CF57D0400C9448
:103B9000232971E0C158DF4F7883CF57D04033E0FD
:103BA000232E312CCFCDCD56DF4F28803980C359FD
:103BB000D04081E090E0CD56DF4F99838883C35990
:103BC000D040C0CDA1E0B0E0C357DF4FB983A88398
:103BD000CD58D040B7CD11E02116310409F005C40D
:103BE00080917B0290917C02A0917D02B0917E0237
:103BF000C157DF4F288139814A815B81CF58D0403E
:103C0000821B930BA40BB50B8197A105B10510F492
:103C10000C94232940917B0250917C0260917D029B
:103C200070917E02C157DF4F488359836A837B833B
:103C3000CF58D04081E00E941C13925064EB70E09A
:103C40000E94792A640D751D633D710514F062EDC3
:103C500070E0E7967FAF6EAFE7971616170634F061
:103C600061E070E0E7967FAF6EAFE797E796EEAC66
:103C7000FFACE7974E145F0419F0C7010E943C1493
:103C800083010F5F1F4FC454DF4F19830883CC5B40
:103C9000D040EB962EAD3FADEB97621673060CF459
:103CA000DDC0C956DF4F3881C759D0403111D6C069
:103CB0008AE1CF57DF4F48815981C158D040849F56
:103CC0007001859FF00C1124AF966EAD7FADAF975C
:103CD000E60EF71ECB57DF4F08811981C558D0403B
:103CE0009A01A701E1966EAD7FADE197CE01839673
:103CF0000E943B15C757DF4F88819981C958D04032
:103D0000009791F00197C757DF4F99838883C9586F
:103D1000D040B7016A5071092AE030E040EF50E02E
:103D200090E080E00E94C40ACF57DF4FA881B9819C
:103D3000C158D0401197CF57DF4FB983A883C158DE
:103D4000D040B7FF85C0CC54DF4FE881F981C45B18
:103D5000D040E196EEACFFACE197EE16FF06D4F052
:103D6000AF960EAD1FADAF97065F1F4FAF961FAF5B
:103D70000EAFAF972FEF3FEFC256DF4F3983288347
:103D8000CE59D04045E050E0C757DF4F59834883B4
:103D9000C958D040C654DF4F68817981CA5BD04092
:103DA000E1968EAD9FADE19768177907CCF0AF969D
:103DB000AEADBFADAF971A96AF96BFAFAEAFAF97F0
:103DC000E1E0F0E0C256DF4FF983E883CE59D040FE
:103DD00005E010E0C757DF4F19830883C958D0406A
:103DE000C256DF4F88819981CE59D040880F991FE4
:103DF000E1962EAD3FADE197280F391FE1963FAF19
:103E00002EAFE19785E090E0AC01CE55DF4F6881A1
:103E10007981C25AD040461B570BCF57DF4F598389
:103E20004883C158D04091E080E0CB57DF4FA88154
:103E3000B981C558D040AB2B09F090E0CB57DF4F8C
:103E40009883C558D040CA57DF4F8883C658D040A2
:103E5000C454DF4F19821882CC5BD040AA96BFAD04
:103E6000AA97BB2311F40C946727AD96EEADFFAD76
:103E7000AD97EF2B09F4C1C1ED96EEACFFACED9719
:103E8000CC53DF4FF982E882C45CD04057010AE08E
:103E9000A01AB108ED96BFAEAEAEED9794012F5FBC
:103EA0003F4FCA52DF4F39832883C65DD04049E077
:103EB00051E0C055DF4F59834883C05BD04014E0C8
:103EC000E12E11E0F12EAF966EAD7FADAF97AD96BE
:103ED0007FAF6EAFAD97F0E0E0E0C901092E000CB6
:103EE000AA0BBB0BCE51DF4F88839983AA83BB8378
:103EF000C25ED0408401092C000C220B330BCA5146
:103F0000DF4F088319832A833B83C65ED040AD967A
:103F10002EAD3FADAD97A216B3060CF48AC0C90111
:103F200041968A159B050CF484C06E0133E2C30EE2
:103F3000D11CE1968EAD9FADE197AC01990F660B58
:103F4000770BC852DF4FD982C882C85DD040CE54AB
:103F5000DF4F19821882C25BD04010E000E0C852E7
:103F6000DF4FA881B981C85DD0408D919D91C85225
:103F7000DF4FB983A883C85DD040E817F9070CF07C
:103F800041C0C055DF4FA881B981C05BD0408C9142
:103F900090E0880F991F092E000CAA0BBB0B2C0177
:103FA0003D01440E551E661E771ECE51DF4F88819F
:103FB0009981AA81BB81C25ED04084159505A60572
:103FC000B70504F19DE1490E511C611C711CD7011C
:103FD0002C9130E0220F331FC901330FAA0BBB0B0A
:103FE000481A590A6A0A7B0ACA51DF4F88819981A7
:103FF000AA81BB81C65ED040481659066A067B0678
:104000000CF0FDC50F5F1F4F425E5F4F6F4F7F4F3C
:10401000CE54DF4FA881B981C25BD0405E96CE54AA
:10402000DF4FB983A883C25BD0400730110509F088
:1040300096CF3196AD960EAD1FADAD97065E1F4F74
:10404000AD961FAF0EAFAD97C055DF4F28813981B8
:10405000C05BD0402F5F3F4FC055DF4F398328836F
:10406000C05BD0403FEFE31AF30AE530F10509F0F9
:104070004ECFAE014C595F4FFE01EA5BFF4FF12C72
:10408000E12CCC53DF4F88819981C45CD0400996E4
:10409000DA012D91AD01222309F46EC06080718098
:1040A00093012F5F3F4F281539050CF465C0CA52A4
:1040B000DF4F08811981C65DD040061517050CF445
:1040C0005BC08701000F111F2CE430E02C0F3D1F57
:1040D000200F311FD901CD90DC90CA14DB040CF401
:1040E0004BC0960123513109821793070CF444C049
:1040F0001092B30050E040E0B501C4010E9450109E
:10410000E4E6F0E0EC0FFD1FEE0DFF1D1082E2E58E
:10411000F0E0EC0FFD1FE00FF11F87E090E09183CE
:1041200080837301BFE0EB1AF108E8E5F0E0EC0FE3
:10413000FD1FE00FF11FF182E082EEE5F0E0EC0FF1
:10414000FD1FE00FF11FD182C08250E040E0B601B8
:10415000C3010E947610B601C7010E94A015B0C627
:1041600084E190E05FC561E070E0CC52DF4F1982DE
:104170001882C45DD0401BC60FEFE01AF00A3296D9
:1041800013E0E116F10409F083CF2AE0A216B1048E
:1041900058F040EE57E0B501C4010E945010AD96B2
:1041A0001FAE1EAEAD9793C694012E503109C8556F
:1041B000DF4F39832883C85AD04050E040E0B50132
:1041C000C4010E945010B501C855DF4F8881998104
:1041D000C85AD0400E94A015CE53DF4FA882C25CBF
:1041E000D040CD53DF4FB882C35CD0404FE050E0A9
:1041F000EF965FAF4EAFEF9763C661E070E0AD96AC
:104200007FAF6EAFAD9763C6E4E6F0E0EC0FFD1F45
:10421000C856DF4FE880F980C859D040EE0DFF1D29
:104220008081811169C081E08083DE01939610E076
:1042300000E090E080E02D913D91121613066CF4A1
:10424000F801EE0FFF1F21E030E02C0F3D1FE20FC1
:10425000F31F958B848B0F5F1F4F0196873091055D
:1042600051F78FEF9FEF0115110561F00E94062AAB
:10427000B8010E94792AFC01EE0FFF1FEC0FFD1F11
:1042800085899689C856DF4F48815981C859D040E1
:10429000440F551FE6E4F0E0EC0FFD1FE40FF51F9F
:1042A0006EE1689F9001699F300D1124E1966EAD1B
:1042B0007FADE197260F371F215F3F4F318320836A
:1042C000ACE4B0E0AC0FBD1F4A0F5B1F880F991F15
:1042D000FE01E80FF91F23A134A16AE1629FC0012A
:1042E000639F900D1124AF96EEADFFADAF978E0F8B
:1042F0009F1FDA018D939C93C856DF4F8881998167
:10430000C859D040019663E070E00E94792AC856EF
:10431000DF4F99838883C859D040C656DF4F198232
:104320001882CA59D040EAC5E7966EAD7FADE797CF
:104330002617370754F021E0C055DF4FA881B98117
:10434000C05BD040AE15BF050CF420E08E5091400C
:10435000859708F4A2C6B6E3CB16B1E0DB063CF4C1
:104360004FEF5FEFB601C7010E94761082C6F501DC
:104370001082E2E5F0E0EC0FFD1FE00FF11F2FE0EF
:1043800030E031832083A7014F505109E9965FAF98
:104390004EAFE997E8E5F0E0EC0FFD1FE00FF11FED
:1043A00051834083EEE5F0E0EC0FFD1FE00FF11FBD
:1043B0006EE271E07183608350E040E0B601C701B6
:1043C0000E9476106EE271E0E9968EAD9FADE9979E
:1043D0000E94A0154EC6E996AEADBFADE997119605
:1043E000E996BFAFAEAFE997A4C6F2E02F1631044D
:1043F00009F02EC180917B0290917C02A0917D02F8
:10440000B0917E02C157DF4FE880F9800A811B819D
:10441000CF58D0408E199F09A00BB10B8197A105F1
:10442000B10508F4ACC000917B0210917C02209190
:104430007D0230917E02C157DF4F088319832A83A2
:104440003B83CF58D040C255DF4F28813981CE5AA7
:10445000D0402431310509F45CC02F5F3F4FC25575
:10446000DF4F39832883CE5AD040C054DF4FA88114
:10447000B981C05CD04017970CF481C0CD57DF4F95
:10448000E881F981C358D0403197CD57DF4FF98388
:10449000E883C358D040FF93EF9380E492E09F936A
:1044A0008F938E010F5F1F4F1F930F930E94FC2A63
:1044B000B80180E40E943D160F900F900F900F906E
:1044C0000F900F90CD57DF4FE880F980C358D04050
:1044D0001E141F040CF05DCB1092B300C2010E94A9
:1044E0003C14C456DF4F19821882CC59D040C054B6
:1044F000DF4F19821882C05CD04022242394312CD3
:1045000001E010E0CC55DF4F19830883C45AD04036
:1045100019C9C254DF4F48815981CE5BD040413028
:104520005105F9F469E971E0C2010E948D14C25489
:10453000DF4F19821882CE5BD040C054DF4F888194
:104540009981C05CD0400196C054DF4F9983888325
:10455000C05CD040C255DF4F19821882CE5AD0407D
:1045600084CF62E171E0C2010E948D1461E070E0CD
:10457000C254DF4F79836883CE5BD040DECFC45610
:10458000DF4F28813981CC59D0402430310508F0E3
:104590005CC000917B0210917C0220917D023091E1
:1045A0007E02C053DF4F488159816A817B81C05DA3
:1045B000D040041B150B260B370BC456DF4F8881E8
:1045C0009981CC59D040880F991FFC01EE5BFE4FBA
:1045D0004081518170E060E0041715072607370716
:1045E00008F431C6E0907B02F0907C0200917D02DD
:1045F00010917E02C053DF4FE882F9820A831B8349
:10460000C05DD040C456DF4F08811981CC59D040DD
:104610000F5F1F4F865C9E4FDC012D913C9150E057
:1046200040E064E274EF80E090E00E94162A20935C
:10463000B3000430110509F086C1E4E0F0E0C4568F
:10464000DF4FF983E883CC59D0401092B300FBC50B
:10465000F3E02F16310441F5C158DF4FE880CF5702
:10466000D040EE2009F4EFC570E060E088EB96E002
:104670000E941611CE01CC960E94341364E072E0C1
:1046800080E00E943D166AE472E080E40E943D16DC
:10469000C158DF4F1882CF57D040CD56DF4F198217
:1046A0001882C359D040CFC504E02016310409F068
:1046B000CAC5C557DF4F28813981CB58D0402F5FFD
:1046C0003F4FC557DF4F39832883CB58D04070E028
:1046D00060E088EB96E00E94161185E090E09CA3D4
:1046E0008BA39EA38DA398A78FA39AA789A79CA706
:1046F0008BA79EA78DA798AB8FA72AE0C557DF4F42
:1047000048815981CB58D040249FC001259F900DEE
:10471000112468E770E00E94792ABC01625E7F4F35
:10472000AF967FAF6EAFAF9788E190E0DC01C557E1
:10473000DF4FE881F981CB58D040AE1BBF0BEB9621
:10474000BFAFAEAFEB971A161B0634F001E010E0D6
:10475000EB961FAF0EAFEB97C557DF4F888199815E
:10476000CB58D04073E0880F991F7A95E1F7C55771
:10477000DF4F28813981CB58D040281B390BA90144
:104780004A5B5F4FC655DF4F59834883CA5AD040B2
:104790004332510544F463E270E0C655DF4F79833C
:1047A0006883CA5AD0409E012C593F4FBE01685AB7
:1047B0007F4FFE01E25AFF4F90E080E0D9011D9249
:1047C0009D0146E450E04C0F5D1F480F591FDA0170
:1047D0001D921C924CE450E04C0F5D1F480F591F76
:1047E000DA011D921C9242E550E04C0F5D1F480F0C
:1047F000591FDA011D921C92DB011D921D92BD0111
:1048000011921192029686309105C1F6E4E0F0E033
:10481000C654DF4FF983E883CA5BD04004E010E060
:10482000CF57DF4F19830883C158D040E9961FAE98
:104830001EAEE997C656DF4F19821882CA59D0407A
:10484000C856DF4F19821882C859D040C957DF4F68
:1048500019821882C758D040CE53DF4F1882C25CED
:10486000D040CD53DF4F1882C35CD040C855DF4FD6
:1048700019821882C85AD040EF961FAE1EAEEF972D
:10488000AD961FAE1EAEAD97ED961FAE1EAEED9768
:10489000912C812CAA961FAEAA97CB57DF4F198275
:1048A0001882C558D040712C612C21E030E0C256EE
:1048B000DF4F39832883CE59D04040E150E0E19664
:1048C0005FAF4EAFE1976EE170E0CC54DF4F79837C
:1048D0006883C45BD040C757DF4F19821882C9581C
:1048E000D04081E090E0CE55DF4F99838883C25A53
:1048F000D040A3E2B0E0C056DF4FB983A883C05ACE
:10490000D0405AE6452E512C22242394312CCA55EE
:10491000DF4F19821882C65AD040CB56DF4F19821A
:104920001882C559D0408FC4EF96DFAECEAEEF9758
:10493000C454DF4F68807980CC5BD040E7964EACA2
:104940005FACE79780C4C456DF4F19830883CC5906
:10495000D04079C481E02816310409F002C1C35760
:10496000DF4FA881B981CD58D040AB2B09F42AC9BB
:10497000AA96BFADAA97B11102C1C956DF4FE8810F
:10498000C759D040E111FBC08FE48093B3004201CE
:10499000FEE08F0E911CC357DF4FE880F980CD58A1
:1049A000D040AD96FFAEEEAEAD9717010FE011E02F
:1049B000ED961FAF0EAFED9711E0AA961FAFAA9725
:1049C000CB56DF4F88819981C559D040880F991FF8
:1049D000FC01E65EFE4F20813181232B09F4D6C015
:1049E00030E020E0CC55DF4F48815981C45AD04097
:1049F000452B11F40C94A21B40917B0250917C0238
:104A000060917D0270917E02CA53DF4FE880F98089
:104A10000A811B81C65CD0404E195F09600B710B87
:104A2000865D9E4FDC018D919C91821B930BB0E0C3
:104A3000A0E0481759076A077B0760F1E0907B0206
:104A4000F0907C0200917D0210917E02CA53DF4FEC
:104A5000E882F9820A831B83C65CD040CB56DF4FC5
:104A600088819981C559D04001968C010770112722
:104A7000CB56DF4F19830883C559D040F801EE0F9C
:104A8000FF1FE65EFE4F208131812115310509F0BF
:104A900084C017BCC956DF4F3881C759D040332373
:104AA00011F40C94A21B40917B0250917C02609106
:104AB0007D0270917E02C453DF4F88819981AA8163
:104AC000BB81CC5CD040481B590B6A0B7B0BC95790
:104AD000DF4FE881F981C758D040EE0FFF1FEC5E31
:104AE000FE4F80819181B0E0A0E0481759076A0726
:104AF0007B0710F40C94A21BE0907B02F0907C02E8
:104B000000917D0210917E02C453DF4FE882F9824A
:104B10000A831B83CC5CD040C957DF4F08811981C1
:104B2000C758D0400330110508F041C00F5F1F4F38
:104B3000C957DF4F19830883C758D040F801EE0FDB
:104B4000FF1FE25FFE4F2081318150E040E064E2D0
:104B500074EF80E090E00E94162A2093B3000C943A
:104B6000A21B23E02216310409F02ACF31E0C158FC
:104B7000DF4F3883CF57D040312C212C21CFC35762
:104B8000DF4F28803980CD58D0401ACFCA55DF4F2B
:104B900028813981C65AD04025CF50E040E064E2F8
:104BA00074EF80E090E00E94162A27BD73CFAA968A
:104BB0001FADAA9780E1111101C080E08093B3007E
:104BC00022E130E04EE150E0C452DF4F688179814C
:104BD000CC5DD040C652DF4F88819981CA5DD040FC
:104BE0000E94C40AC957DF4F19821882C758D040A3
:104BF000C956DF4F1882C759D0400C94A21B10929F
:104C0000B300F801EE0FFF1FEC0FFD1F83A194A16D
:104C10008130910509F43EC21CF004970CF4A0CA3F
:104C20008AE090E0092E000CAA0BBB0BE5964CAD78
:104C30005DAD6EAD7FADE597480F591F6A1F7B1FB5
:104C4000E5964CAF5DAF6EAF7FAFE5970E942F1634
:104C5000E5965FADE5975F93E4966FADE4976F934C
:104C6000E3967FADE3977F93E2968FADE2978F93C4
:104C700085E392E09F938F93DE0111967D01BF93B0
:104C8000AF930E94FC2AB70180E00E943D16C80144
:104C9000880F991FE80EF91EF70182A193A10197D1
:104CA0006AE1762E789EB001799E700D1124AF9640
:104CB0002EAD3FADAF97620F731F2EE1209FC00155
:104CC000219F900D112420E038EF4BE850E0E19651
:104CD000AEADBFADE1978A0F9B1F0E94E014E19635
:104CE000EEADFFADE197CE54DF4F08811981C25B75
:104CF000D040E00FF11FC652DF4FF983E883CA5D51
:104D0000D040D70192968D919C9193970197789E70
:104D10009001799E300D1124AF96EEADFFADAF97A7
:104D2000E20FF31FC452DF4FF983E883CC5DD0401C
:104D300093969C938E939297C056DF4F088119816A
:104D4000C05AD040015011090FB6F894DEBF0FBE13
:104D5000CDBFEE24E3940115110511F444E0E42ED7
:104D6000F12CF6013E9630E020E070E060E08FEF3D
:104D70009FEFD6014D915D916D01841795070CF45D
:104D8000CA01452B09F0EFC9CC52DF4F4881598148
:104D9000C45DD0404F5F5F4FCC52DF4F5983488393
:104DA000C45DD0406115710511F42F5F3F4FCE16E1
:104DB000DF06F9F646E050E0BA01681B790BCE55E4
:104DC000DF4F79836883C25AD04042EE4203C0016C
:104DD000439F900D1124DC011496C654DF4FB98314
:104DE000A883CA5BD040CC52DF4F88819981C45DD3
:104DF000D04001962EE1289FF001299FF00D11244B
:104E0000CC54DF4FF983E883C45BD040C056DF4FFA
:104E100088819981C05AD04063E070E00E94792A6D
:104E2000892BC9F5EB962EAD3FADEB97225031099A
:104E3000EB963FAF2EAFEB971216130634F041E01E
:104E400050E0EB965FAF4EAFEB97C455DF4F6881F4
:104E50007981CC5AD04062507109C455DF4F7983B3
:104E60006883CC5AD0401616170644F081E090E0D3
:104E7000C455DF4F99838883CC5AD040CA55DF4F41
:104E8000A881B981C65AD040D296CA55DF4FB9839E
:104E9000A883C65AD04050E040E0B501C4010E944A
:104EA0005010AA96BFADAA97C956DF4FB883C7590D
:104EB000D040C056DF4F19830883C05AD040170135
:104EC000AD961FAE1EAEAD97AA961FAEAA97C65559
:104ED000DF4F88819981CA5AD040C656DF4FA881DA
:104EE000B981CA59D040A817B9070CF08DC91196DD
:104EF000C656DF4FB983A883CA59D040C455DF4F87
:104F0000E881F981CC5AD040E996EEACFFACE99744
:104F1000EE15FF050CF05FCA2E0104E6400E511C91
:104F20003E011CE4610E711C520110E000E0E796A6
:104F30002EAD3FADE797235E3F4FC055DF4F39831E
:104F40002883C05BD040A4014F5F5F4FCE54DF4F3A
:104F500059834883C25BD040ED966EAD7FADED972F
:104F60006D5E7F4FCC53DF4F79836883C45CD04044
:104F7000D5018C91882309F47CC0F3018081918153
:104F80006C01FAE0CF0ED11CD301CD92DC92E6E4A5
:104F9000F0E0EC0FFD1FE00FF11FE080F1809701C2
:104FA0002F5F3F4FAA96BFADAA97BB2309F4BCC998
:104FB000281539050CF4B8C9CE54DF4FE881F981C2
:104FC000C25BD040EE15FF050CF4AEC9ED964EADB8
:104FD0005FADED97C416D5060CF4A6C9AC014950D7
:104FE0005109CC53DF4F68817981C45CD04064178C
:104FF00075070CF499C91092B30050E040E0ED96AB
:105000006EAD7FADED97C4010E945010D5011C928A
:10501000E2E5F0E0EC0FFD1FE00FF11F27E030E0CC
:1050200031832083A7014F505109AB965FAF4EAF3C
:10503000AB97E8E5F0E0EC0FFD1FE00FF11F5183A7
:105040004083EEE5F0E0EC0FFD1FE00FF11FD18291
:10505000C08250E040E0B601C7010E947610B60160
:10506000AB968EAD9FADAB970E94A015AA961FAED2
:10507000AA977FEFA71AB70A82E0680E711C0E5F2D
:105080001F4F0630110509F073CFE9961FAE1EAE13
:10509000E9974FC08EE190E0C5CD222309F45BC9AA
:1050A000AA96EFADAA97EE2349F050E040E0ED96C6
:1050B0006EAD7FADED97C4010E94501010E000E08E
:1050C000D2018D912D018823B9F0ECE4F0E0EC0FD2
:1050D000FD1FE00FF11F6081718150E040E0E6E4C8
:1050E000F0E0EC0FFD1FE00FF11F808191810E9425
:1050F0007610F201319710820E5F1F4F06301105B6
:10510000F9F617BC1092B300E9961FAE1EAEE997F0
:10511000C956DF4F1882C759D040AA961FAEAA972A
:10512000B2E02B2E312CCC55DF4F19821882C45A95
:10513000D040EF96CEACDFACEF97B1E0CB1AD10800
:10514000EF96EEADFFADEF973197C1F41092B3003B
:1051500022E130E04EE150E0CE53DF4F6881C25C87
:10516000D040CD53DF4F7881C35CD040C855DF4F6E
:1051700088819981C85AD0400E94C40A7E01F2E514
:10518000EF0EF11C10E000E0D7018D919D917D01A3
:10519000FD0132979C012150310931832083019711
:1051A000B1F4EEE5F0E0EC0FFD1FE00FF11F6081C0
:1051B000718122E130E04EE150E0E8E5F0E0EC0FF3
:1051C000FD1FE00FF11F808191810E94C40A0E5FD4
:1051D0001F4F06301105C1F6CE55DF4F28813981AA
:1051E000C25AD040215031094EEE4203C001439FC4
:1051F000900D1124AF96EEADFFADAF978E0F9F1FB0
:10520000813A91050CF490CB17BC1092B300EF9645
:10521000DFAECEAEEF97C454DF4F68807980CC5BB1
:10522000D040E7964EAC5FACE797C956DF4F188287
:10523000C759D040A3E02A2E312CCC55DF4F19821C
:105240001882C45AD0408091780290917902892BBB
:1052500009F4B6CB1092790210927802211431042D
:1052600009F078CBCD56DF4FE881F981C359D040A2
:10527000EF2B11F40C94D31D0E942F1680EC0E948A
:105280001B1610E180E20E9407161150D9F780EC3E
:105290000E941B16E596FFADE597FF93E496EFACF1
:1052A000E497EF92E396FFACE397FF92E2960FAD9F
:1052B000E2970F9385E392E09F938F938E010F5FA8
:1052C0001F4F1F930F930E94FC2AB80180E00E9499
:1052D0003D16CC57DF4F2881C458D0402F93CD576F
:1052E000DF4F3881C358D0403F9380E492E09F93D2
:1052F0008F931F930F930E94FC2AB80180E40E94B1
:105300003D1670E060E088EB96E00E941611C20145
:105310000E943C14AF96EEACFFACAF970FB6F8947A
:10532000DEBF0FBECDBFCB57DF4F08811981C558F7
:10533000D0409101A701E1966EAD7FADE197CE011E
:1053400083960E943B155FEF251A350A6AE1E60E47
:10535000F11C75E02716310431F7CD56DF4F288058
:105360003980C359D040CC55DF4F39822882C45A86
:10537000D04026CB8F929F92AF92BF92CF92DF9276
:10538000EF92FF92CF93DF93EC01688179818A815C
:105390009B81611571058105910521F464E279ED28
:1053A0008BE597E02DE133EF41E050E00E94162AB3
:1053B00049015A019B01AC01A7EAB1E40E94352AD8
:1053C0006B017C01ACEEB4EFA50194010E94432A6D
:1053D000DC01CB018C0D9D1DAE1DBF1DB7FF03C0B1
:1053E0000197A109B04888839983AA83BB839F77DB
:1053F000DF91CF91FF90EF90DF90CF90BF90AF9073
:105400009F908F9008950E94BA29089580E091E0BE
:105410000E94BA290895B0E0A0E080930001909323
:105420000101A0930201B09303010895052E97FB9B
:105430001EF400940E942D2A57FD07D00E94482A8E
:1054400007FC03D04EF40C942D2A509540953095CE
:1054500021953F4F4F4F5F4F0895909580957095E0
:1054600061957F4F8F4F9F4F08950E946A2AA59F95
:10547000900DB49F900DA49F800D911D112408954F
:10548000B7FF0C94352A0E94352A821B930B08958E
:10549000A1E21A2EAA1BBB1BFD010DC0AA1FBB1F38
:1054A000EE1FFF1FA217B307E407F50720F0A21BAA
:1054B000B30BE40BF50B661F771F881F991F1A9417
:1054C00069F760957095809590959B01AC01BD0141
:1054D000CF010895A29FB001B39FC001A39F700D9B
:1054E000811D1124911DB29F700D811D1124911DEC
:1054F000089597FB072E16F4009407D077FD09D086
:105500000E949C2A07FC05D03EF4909581959F4F00
:105510000895709561957F4F08950E946A2A3323FC
:1055200012F48A1B9B0B0C94972A0E946A2AB7FFDD
:105530000895821B930B0895AA1BBB1B51E107C062
:10554000AA1FBB1FA617B70710F0A61BB70B881F13
:10555000991F5A95A9F780959095BC01CD010895A2
:10556000EE0FFF1F0590F491E02D099481E090E08B
:10557000F8940C94D42DB0E0A0E0E1ECFAE20C94A5
:10558000AD2DAE014B5F5F4FFA0161917191AF019B
:1055900080910607909107070E941F2BE2E00C9470
:1055A000C92D0F931F93CF93DF93E0910607F091DE
:1055B00007072381EC0110E000E021FD08C00FEF98
:1055C0001FEF14C00995892B11F00FEF1FEF899180
:1055D0006091060770910707DB011896ED91FC9129
:1055E0008111F0CF8AE00995892B49F7C801DF9135
:1055F000CF911F910F910895AEE0B0E0E2E0FBE2A1
:105600000C94AB2D0D891E8986E08C831A83098347
:105610008FEF9FE79E838D83AE01475E5F4F6F895B
:10562000788DCE0101960E941F2B2F813885020FA5
:10563000131FF80110822E96E4E00C94C72DABE006
:10564000B0E0E5E2FBE20C949D2D7C013B018A0178
:10565000FC0117821682838181FFC8C1CE010196A9
:105660005C01F7019381F30193FD859193FF819193
:105670003F01882309F453C1853239F493FD8591A4
:1056800093FF81913F01853229F4B70190E00E9498
:105690000F2DE7CF912C212C312CFFE1F31538F0A1
:1056A0008B3211F190F4803209F1833229F137FC09
:1056B0003CC020ED280F2A3050F536FE20C08AE08D
:1056C000989E200D1124922E06C08D3291F08033C9
:1056D00071F7689430F8F30193FD859193FF819100
:1056E0003F018111DACF21C0689431F8689432F813
:1056F000F2CF689433F8EFCF689434F8ECCFEAE057
:105700002E9E200D1124222E689435F8E4CF8E327F
:1057100029F436FC04C1689436F8DDCF8C3619F4D0
:10572000689437F8D8CF8836B1F2982F9F7D95547A
:105730009330E0F08336A1F18337C1F1833509F06E
:1057400063C02801F2E04F0E511CF801C080D180E7
:10575000692D70E036FC02C06FEF7FEFC6010E943A
:10576000F92C4C01689437F882010AC00C5F1F4F76
:10577000FFE3F98388248394912C6501E89437F83A
:1057800033FE2DC0522C8114910471F5552009F47B
:1057900068CFB70180E290E00E940F2D5A94F6CFB7
:1057A000F801808189830E5F1F4FE4CF2801F2E06A
:1057B0004F0E511CF801C080D180692D70E036FC7D
:1057C00002C06FEF7FEFC6010E94042D4C018201E1
:1057D000D5CFB70180E290E00E940F2D2A942814C3
:1057E000190409F0B0F7CECFF60137FC859137FEEA
:1057F00081916F01B70190E00E940F2D51105A94D2
:10580000F1E08F1A9108BFCF843619F0893609F07C
:1058100077C0F80137FE6BC060817181828193810E
:105820000C5F1F4FF32DFF763F2E97FF09C0909519
:105830008095709561957F4F8F4F9F4F689437F893
:105840002AE030E0A5010E943F2DC82ECA188C2CFA
:10585000432C36FE0CC0E89440F8C91440F434FEE2
:1058600005C032FC03C0F32DFE7E4F2E892C44FE72
:1058700095C0FE01EC0DF11D8081803309F087C0D9
:10588000242D297E422E842D8870582E43FC95C0ED
:1058900040FE8FC09C2C821418F42C0C922C98186B
:1058A00044FE91C0B70180E390E00E940F2D42FEBC
:1058B00009C088E790E041FE02C088E590E0B701AA
:1058C0000E940F2DC91408F48AC0CA94D12C9FEFEE
:1058D000C91AD90ACA0CDB1CF60182916F01B70103
:1058E00090E00E940F2DAC14BD04B1F74FCF608142
:1058F0007181072E000C880B990B0E5F1F4F92CF02
:10590000D32CE894D4F82AE030E0853739F1232D00
:10591000297FD22E8F3601F148F48835A9F0F7019E
:10592000868197812B96E2E10C94B92D803749F05E
:105930008837A9F7D4FE02C06894D2F820E130E09D
:105940000DC06894D4F8F6CF34FE03C0822F866071
:10595000D82E20E132E002C028E030E0F801D7FE86
:105960000FC060817181828193810C5F1F4FA501FF
:105970000E943F2DC82ECA183D2CE89437F867CFF7
:105980006081718190E080E00E5F1F4FF0CF42FC9C
:1059900002C0839478CF8394839475CF842D8678C6
:1059A00009F471CFF6CFB70180E290E00E940F2D8D
:1059B00083948214C0F3512C73CF522C5818821444
:1059C00008F46ECFF8CF842D867809F47BCF8BE274
:1059D00041FE80E247FC8DE2B70190E071CFB70154
:1059E00080E390E00E940F2D9A946CCF8FEF9FEF91
:1059F00099CFFC010590615070400110D8F7809557
:105A000090958E0F9F1F0895FC016150704001908A
:105A10000110D8F7809590958E0F9F1F08950F93D2
:105A20001F93CF93DF93182F092FEB018B8181FDFB
:105A300009C01FEF0FEF812F902FDF91CF911F91A2
:105A40000F91089582FF14C02E813F818C819D812A
:105A5000281739073CF4E881F981CF010196998331
:105A6000888310838E819F8101969F838E83E3CFED
:105A7000E885F985812F0995892BA1F3DACFFA0101
:105A8000AA27283051F1203181F1E8946F936E7F7D
:105A90006E5F7F4F8F4F9F4FAF4FB1E03ED0B4E06E
:105AA0003CD0670F781F891F9A1FA11D680F791FAF
:105AB0008A1F911DA11D6A0F711D811D911DA11DC0
:105AC00020D009F468943F912AE0269F11243019D0
:105AD000305D3193DEF6CF010895462F4770405D6B
