:100000000C94D5050C9461170C94FD050C94FD051A
:100010000C94FD050C94FD050C94FD050C9418172B
:100020000C94FD050C94FD050C94FD050C942A1709
:100030000C94FD050C94FD050C944F170C94FD05D4
:100040000C94FD050C94FD050C94FD050C94FD0528
:100050000C94FD050C94FD050C94FD050C94FD0518
:100060000C94FD050C94FD050901809611800A3A57
:1000700081550A3601082A04000000F02B04000014
:10008000014021800A13800A29800A000000000034
:10009000010000000100000000000000010000005D
:1000A000010001000000010000000000010000004C
:1000B000000000000100000000000000010000003E
:1000C000000001000000000001010000000000002D
:1000D000000000010100000000000100000000001D
:1000E000010000000000000001000000000000000E
:1000F00001000000000001000000010001000000FC
:1001000001000000000000000100000001000000EC
:1001100000000000000000000000000000000000DF
:1001200000000000000100010001000000000000CC
:1001300000000000010000000000000000000000BE
:1001400001000000010100010000000000000000AB
:100150000001000101000100000000000001000199
:100160000101010101010000000000000100010186
:100170000101010101000000000000000001010177
:100180000101010101000000000000010101010165
:100190000101010101000100010000010000000057
:1001A000000000000001000001000000000100004C
:1001B0000000010100000100000100000000010139
:1001C000000000000000000000000001000000002E
:1001D0000000000100000000010001010000010119
:1001E000000000010001000000000101010000000A
:1001F00001000000000101010101010101010000F5
:1002000000000000010001010101010101000000E6
:1002100000000101000101010101010100000100D4
:1002200000000000003E5B4F5B3E3E6B4F6B3E1C90
:100230003E7C3E1C183C7E3C181C577D571C1C5EA7
:100240007F5E1C00183C1800FFE7C3E7FF0018247E
:100250001800FFE7DBE7FF30483A060E2629792928
:1002600026407F050507407F05253F5A3CE73C5A5D
:100270007F3E1C1C08081C1C3E7F14227F22145F3A
:100280005F005F5F06097F017F006689956A606095
:1002900060606094A2FFA29408047E040810207E8F
:1002A000201008082A1C08081C2A08081E10101014
:1002B000100C1E0C1E0C30383E3830060E3E0E065A
:1002C000000000000000005F0000000700070014AD
:1002D0007F147F14242A7F2A12231308646236496C
:1002E0005620500008070300001C22410000412254
:1002F0001C002A1C7F1C2A08083E08080080703059
:1003000000080808080800006060002010080402C7
:100310003E5149453E00427F4000724949494621CD
:1003200041494D331814127F1027454545393C4A41
:100330004949314121110907364949493646494958
:10034000291E0000140000004034000000081422A0
:10035000411414141414004122140802015909060E
:100360003E415D594E7C1211127C7F494949363E0F
:10037000414141227F4141413E7F494949417F09F5
:100380000909013E414151737F0808087F00417F00
:1003900041002040413F017F081422417F404040FE
:1003A000407F021C027F7F0408107F3E4141413E96
:1003B0007F090909063E4151215E7F091929462618
:1003C0004949493203017F01033F4040403F1F201C
:1003D00040201F3F4038403F6314081463030478F3
:1003E00004036159494D43007F4141410204081013
:1003F00020004141417F040201020440404040404E
:10040000000307080020545478407F2844443838BB
:1004100044444428384444287F385454541800082D
:100420007E090218A4A49C787F0804047800447D07
:1004300040002040403D007F1028440000417F40A4
:10044000007C047804787C080404783844444438F8
:10045000FC1824241818242418FC7C0804040848D8
:100460005454542404043F44243C4040207C1C2029
:1004700040201C3C4030403C44281028444C909084
:10048000907C4464544C44000836410000007700DE
:1004900000004136080002010204023C2623263CEB
:1004A0001EA1A161123A4040207A38545455592176
:1004B000555579412254547842215554784020545E
:1004C0005579400C1E5272123955555559395454AC
:1004D000545939555454580000457C410002457D1B
:1004E000420001457C407D1211127DF0282528F044
:1004F0007C545545002054547C547C0A097F493271
:10050000494949323A4444443A324A4848303A41E7
:1005100041217A3A42402078009DA0A07D3D424290
:10052000423D3D4040403D3C24FF2424487E494319
:10053000662B2FFC2F2BFF0929F620C0887E09038C
:1005400020545479410000447D413048484A3238B3
:100550004040227A007A0A0A727D0D19317D2629DF
:10056000292F28262929292630484D4020380808D7
:10057000080808080808382F10C8ACBA2F1028340B
:10058000FA00007B000008142A142222142A1408FE
:100590005500550055AA55AA55AAFF55FF55FF000D
:1005A0000000FF00101010FF00141414FF001010C2
:1005B000FF00FF1010F010F0141414FC001414F7D6
:1005C00000FF0000FF00FF1414F404FC14141710C3
:1005D0001F10101F101F1414141F00101010F00013
:1005E0000000001F101010101F10101010F010004D
:1005F0000000FF101010101010101010FF1000005D
:1006000000FF140000FF00FF00001F10170000FC97
:1006100004F414141710171414F404F40000FF0069
:10062000F714141414141414F700F71414141714F2
:1006300010101F101F141414F4141010F010F000F8
:10064000001F101F0000001F14000000FC14000019
:10065000F010F01010FF10FF141414FF14101010FD
:100660001F00000000F010FFFFFFFFFFF0F0F0F0B0
:10067000F0FFFFFF0000000000FFFF0F0F0F0F0F44
:100680003844443844FC4A4A4A347E020206060290
:100690007E027E0263554941633844443C04407EF7
:1006A000201E2006027E020299A5E7A5991C2A4970
:1006B0002A1C4C7201724C304A4D4D3030487848FB
:1006C00030BC625A463D3E494949007E0101017EE7
:1006D0002A2A2A2A2A44445F444440514A4440403A
:1006E000444A51400000FF0103E080FF0000080879
:1006F0006B6B083612362436060F090F06000018F9
:10070000180000001010003040FF0101001F01011F
:100710001E00191D1712003C3C3C3C00000000006C
:1007200000000000240027002A000000000025002F
:1007300028002B000404040404040404020202023E
:100740000202030303030303010204081020408094
:100750000102040810200102040810200000000813
:100760000002010000030407000000000000000078
:100770000000000100000001000001000000000076
:100780000000000001000000010000000000000067
:100790000000010101010101000000000000000053
:1007A0000101010101010101000000000000000140
:1007B000010101010101010100000000000001012F
:1007C0000101010101000000000000000000010122
:1007D0000101010000000000000000000000010015
:1007E0000001000000000000000000010000010006
:1007F00000000100000000000000000000010100F6
:1008000000000000000000000000000101010100E4
:1008100000000000000000000001010101010100D2
:1008200000000000000000010100010100010100C2
:1008300000000000000001010101010101010000B0
:1008400000000000000000010000010000000000A6
:100850000000000000010001010001000000000094
:100860000000000100010000010001000000000084
:100870000000000000000000000000000000000078
:100880000000010000000000010000000000000066
:100890000000010000000100000000000000000056
:1008A000010101010101010000000000000001013F
:1008B000000101010001010000000000010101012F
:1008C000010101010101010000000001000101011D
:1008D0000101010100010000000001000100000011
:1008E0000000010001000000000000000101000103
:1008F00001000000000000000000000000000000F7
:1009000000000000000000000000010101010100E2
:1009100000000000000001010101010101010101CD
:1009200001000000010101010101010101010101BA
:1009300001000001010100000101010000010101AD
:10094000000001010101010101010101010101009A
:100950000000000001010000000101000000000093
:10096000000001010001010100010100000000017F
:100970000100000000000000000001010000000074
:100980000000000000000000000000000000000067
:10099000000101010101000000000000000101014F
:1009A000010101010101010100000001010101013A
:1009B000010101010101010100000101010000012B
:1009C000010100000101010000010101010101011B
:1009D000010101010101000000000101010000000E
:1009E00001010100000000000101000001010100FF
:1009F00000010100000000000101000000000001F2
:100A000001000000000000000000000000000000E5
:100A100000000000000000010000000000010000D4
:100A200000000000010000010000000100000100C2
:100A300000000001000101010101010100010000AD
:100A4000000001010100010101000101010000009D
:100A5000000101010101010101010101000000008B
:100A6000000101010101010101010000000000007D
:100A70000001000000000001000000000000000173
:100A80000000000000000001000000000000000065
:100A90000000000000000000000000000000000056
:100AA0000101000000000000000000000000010142
:100AB0000101000000000000000000000101010130
:100AC0000101000000000000000001010001010020
:100AD000010100000000000000010101010101010D
:100AE0000100000000000000000100010100010001
:100AF00000000000000000010000000000000100F4
:100B000000000000000000010000000001000000E3
:100B100000000000000000000000000000000000D5
:100B200000000000000000000100000000000000C4
:100B300000000000000001010100000000000000B2
:100B400000000000000101010000000000000000A2
:100B50000000000001010100000000000000000191
:100B60000101010101010101010100000101010177
:100B70000101010101010101010101010101010165
:100B80000101010101010101010101010101010155
:100B90000101010101010101010101010101010145
:100BA0000101010101010101751711241FBECFEFE1
:100BB000D8E0DEBFCDBF12E0A0E0B1E0E6E3F8E5AB
:100BC00002C005900D92AA36B107D9F727E0AAE630
:100BD000B2E001C01D92AA30B207E1F715E0C5ED01
:100BE000D5E004C02197FE010E94F528C43DD1073D
:100BF000C9F70E9420180C94192C0C94000090E066
:100C0000FC01E45AF84F2491FC01E85BF84F349161
:100C1000FC01EC5CF84FE491EE23C9F0222339F09B
:100C2000233001F1A8F4213019F1223029F1F0E04C
:100C3000EE0FFF1FE65DF84FA591B4918FB7F894C2
:100C4000EC91611126C030953E233C938FBF0895EF
:100C50002730A9F02830C9F0243049F7809180006E
:100C60008F7D03C0809180008F7780938000DFCFDD
:100C700084B58F7784BDDBCF84B58F7DFBCF80912A
:100C8000B0008F778093B000D2CF8091B0008F7D7D
:100C9000F9CF3E2BDACFCF93DF9390E0FC01E85BF6
:100CA000F84F24918C5C984FFC0184918823D1F0FB
:100CB00090E0880F991FFC01E05EF84FA591B49178
:100CC000FC01E65DF84FC591D49161110EC09FB74C
:100CD000F8948C91E22FE0958E238C932881E22367
:100CE000E8839FBFDF91CF9108958FB7F894EC917F
:100CF000E22BEC938FBFF6CFAF92BF92CF92DF92F1
:100D0000EF92FF920F931F93CF93DF936C017B01C0
:100D10008B01040F151FEB015E01AE18BF08C01751
:100D2000D10759F06991D601ED91FC910190F081C4
:100D3000E02DC6010995892B79F7C501DF91CF9187
:100D40001F910F91FF90EF90DF90CF90BF90AF90E9
:100D50000895FC01A5A1B6A18C9192A589238C933D
:100D6000A5A1B6A18C9191A5892B8C930895DC0146
:100D70009396ED91FC919497908198968C9189230C
:100D800080830895DC019396ED91FC919497908176
:100D900097968C91892B80830895DC019196ED9133
:100DA000FC919297908196968C91892380830895E7
:100DB000DC019196ED91FC919297908195968C91A2
:100DC000892B80830895CF92DF92EF92FF921F9339
:100DD000CF93DF93EC016A017B018DA9811123C0C0
:100DE0008F2D9927AA27BB278EBD0DB407FEFDCFF7
:100DF000C701AA27BB278EBD0DB407FEFDCFBB27B9
:100E0000AF2D9E2D8D2D8EBD0DB407FEFDCFCEBC1A
:100E10000DB407FEFDCFDF91CF911F91FF90EF90B2
:100E2000DF90CF9008958130B1F410E2CE01F7FE4B
:100E30000FC00E94D806CE010E94C206CE010E94B9
:100E4000B706CC0CDD1CEE1CFF1C115079F7E3CF6C
:100E50000E94CD06F0CFEF8DF8A18F2D9927AA27FC
:100E6000BB278083CE010E94A906EF8DF8A1C701A0
:100E7000AA27BB278083CE010E94A906EF8DF8A187
:100E8000BB27AF2D9E2D8D2D8083CE010E94A906FC
:100E9000EF8DF8A1C082CE01DF91CF911F91FF901D
:100EA000EF90DF90CF900C94A906FF920F931F93C1
:100EB000CF93DF93EC018B018DA981110EC01EBD74
:100EC0000DB407FEFDCF0EBD0DB407FEFDCFDF91C3
:100ED000CF911F910F91FF9008958130B1F490E16F
:100EE000F92ECE0117FF0EC00E94D806CE010E9437
:100EF000C206CE010E94B706000F111FFA94F1102E
:100F0000F0CFE5CF0E94CD06F1CFEF8DF8A1108391
:100F1000CE010E94A906EF8DF8A10083CE01DF91DA
:100F2000CF911F910F91FF900C94A9060F931F93DF
:100F3000CF93DF93EC01162F8DA9811109C06EBDEF
:100F40000DB407FEFDCFDF91CF911F910F91089552
:100F5000813099F408E0CE0117FF0CC00E94D8063A
:100F6000CE010E94C206110FCE010E94B7060150A9
:100F700091F7E9CF0E94CD06F3CFEF8DF8A1608302
:100F8000CE01DF91CF911F910F910C94A906CF93C1
:100F9000DF93EC01ED8DFE8D80819CA989238083F8
:100FA000CE010E949607ED8DFE8D80819BA9892B35
:100FB0008083DF91CF9108958F929F92AF92BF92DD
:100FC000CF92DF92EF92FF920F931F93CF93DF9315
:100FD000EC0189AD9AAD680F791F8BAD9CAD480FC0
:100FE000591F21503109260F371F4901B12CA12C5F
:100FF000CB01B0E0A0E0DC0199278827882A992A54
:10100000AA2ABB2A680181E0C81AD108C40ED51EDD
:10101000F12CE12C70E060E0BA0155274427C42A86
:10102000D52AE62AF72A6AE2CE010E94C707B5014F
:10103000A401CE010E94E3066BE2CE010E94C70725
:10104000B701A601CE010E94E3066CE2CE01DF915A
:10105000CF911F910F91FF90EF90DF90CF90BF90B5
:10106000AF909F908F900C94C707FC0185A98111C8
:1010700004C091A182A19CBD8DBD08951F93CF9303
:10108000DF93EC01162FE881F9810284F385E02DCE
:101090000995112371F06DADCE010E94C707E8815B
:1010A000F9810688F789E02DCE01DF91CF911F915C
:1010B00009946EADF1CFAF92BF92CF92DF92EF92D3
:1010C000FF920F931F93CF93DF93EC0177FD38C00E
:1010D00088859985681779079CF557FD31C08A8501
:1010E0009B854817590764F569017A015B01E8811E
:1010F000F9810284F385E02DCE010995E881F9811B
:1011000002A4F3A5E02D01E010E021E030E0A7010A
:10111000B501CE010995B601CE010E945507E881BF
:10112000F9810688F789E02DCE01DF91CF911F91DB
:101130000F91FF90EF90DF90CF90BF90AF90099408
:10114000DF91CF911F910F91FF90EF90DF90CF90A3
:10115000BF90AF9008958F929F92AF92BF92CF921F
:10116000DF92EF92FF920F931F93CF93DF93EC01E7
:1011700049015701E881F98102A4F3A5E02D099501
:101180009401D8010E94D2286B017C01C114D104C2
:10119000E104F10409F47DC08DA9811115C081E03D
:1011A000C81AD108E108F1088FEFC816D806E8067A
:1011B000F80609F46EC0BEBC0DB407FEFDCFAEBC90
:1011C0000DB407FEFDCFEBCF813099F581E0C81A51
:1011D000D108E108F1088FEFC816D806E806F8062E
:1011E00009F457C00B2D18E0CE0107FF1CC00E9468
:1011F000D806CE010E94C206CE010E94B706000F9B
:10120000115091F70A2D18E0CE0107FF0FC00E9480
:10121000D806CE010E94C206CE010E94B706000F7A
:10122000115091F7D3CF0E94CD06E3CF0E94CD0697
:10123000F0CFBA1016C0CC0CDD1CEE1CFF1CEF8DDD
:10124000F8A1B08281E0C81AD108E108F1088FEF57
:10125000C816D806E806F806E1F0CE010E94A906F5
:10126000F1CF81E0C81AD108E108F1088FEFC81664
:10127000D806E806F80669F0EF8DF8A1B082CE0135
:101280000E94A906EF8DF8A1A082CE010E94A906B6
:10129000E8CFDF91CF911F910F91FF90EF90DF90FA
:1012A000CF90BF90AF909F908F9008958F929F9214
:1012B000AF92BF92CF92DF92EF92FF920F931F9364
:1012C000CF93DF935C014B016A01E90177FD52C0C6
:1012D000DC0118968D919C91681779070CF04AC033
:1012E000209709F447C037FF07C0C9010196C80E0F
:1012F000D91ED195C195D109F50182859385C8166E
:10130000D906C4F5A6014C0F5D1F9A012150310981
:1013100037FD30C0D7FE03C0EA01D12CC12C2817FD
:1013200039071CF0EC01CC19DD09D501ED91FC91D8
:101330000284F385E02DC501099578018E0121E035
:1013400030E0A601B401C5010E94AB08D501ED91C2
:10135000FC910688F789E02DC501DF91CF911F919F
:101360000F91FF90EF90DF90CF90BF90AF909F9044
:101370008F900994DF91CF911F910F91FF90EF9083
:10138000DF90CF90BF90AF909F908F9008958F92F5
:101390009F92AF92BF92CF92DF92EF92FF920F9304
:1013A0001F93CF93DF935C016B014A01E90157FD65
:1013B00052C0DC011A968D919C91481759070CF088
:1013C0004AC0209709F447C037FF07C0C9010196FA
:1013D000C80ED91ED195C195D109F5018085918599
:1013E000C816D906C4F5A6014C0F5D1F9A012150FD
:1013F000310937FD30C0D7FE03C0EA01D12CC12C22
:10140000281739071CF0EC01CC19DD09D501ED9145
:10141000FC910284F385E02DC5010995780101E076
:1014200010E09E01A401B601C5010E94AB08D501E0
:10143000ED91FC910688F789E02DC501DF91CF91F0
:101440001F910F91FF90EF90DF90CF90BF90AF90E2
:101450009F908F900994DF91CF911F910F91FF90F2
:10146000EF90DF90CF90BF90AF909F908F900895B6
:101470008F929F92AF92BF92CF92DF92EF92FF92A4
:101480000F931F93CF93DF934C016B015A01E90136
:10149000209709F46CC00115110509F468C037FFE5
:1014A00007C0C9010196C80ED91ED195C195D109B1
:1014B000F401A085B185CA16DB060CF058C017FFF1
:1014C00007C0C8010196A80EB91E11950195110912
:1014D000F40182859385A816B9060CF048C0F60180
:1014E000EC0FFD1FAF014150510957FD40C0B50140
:1014F000600F711F9B012150310937FD38C0D7FEA5
:1015000003C0EF01D12CC12CB7FE03C08B01B12C5D
:10151000A12C4A175B071CF0ED01CC19DD09281737
:1015200039071CF08C010A191B09D401ED91FC91BB
:101530000284F385E02DC40109959E01A501B60141
:10154000C4010E94AB08D401ED91FC910688F78993
:10155000E02DC401DF91CF911F910F91FF90EF908B
:10156000DF90CF90BF90AF909F908F900994DF91C4
:10157000CF911F910F91FF90EF90DF90CF90BF9090
:10158000AF909F908F900895EF92FF920F931F93CB
:10159000F12CE12C89019A01AB01BC0188EB96E0AA
:1015A0000E94380A1F910F91FF90EF900895EF92DB
:1015B000FF920F931F93CF93DF9377FD32C0DC012F
:1015C0001896ED91FC916E177F075CF5211531059A
:1015D00041F137FF07C0F90131964E0F5F1F31957A
:1015E00021953109DC011A96ED91FC914E175F07A8
:1015F000C4F4EA01C20FD31FDE011197B7FD11C079
:1016000057FF03C09E0150E040E0AE17BF071CF03B
:101610009F01241B350B7801890121E030E00E94F5
:10162000AB08DF91CF911F910F91FF90EF9008953C
:10163000EF92FF920F931F93CF93DF9357FD31C02B
:10164000DC011A96ED91FC914E175F0754F52115B8
:10165000310539F137FF07C0F90131966E0F7F1F51
:10166000319521953109DC011896ED91FC916E17A9
:101670007F07BCF4EB01C20FD31FDE011197B7FD4A
:1016800010C077FF03C09E0170E060E0AE17BF0797
:101690001CF09F01261B370B780101E010E00E942F
:1016A000AB08DF91CF911F910F91FF90EF900895BC
:1016B0008F929F92AF92BF92CF92DF92EF92FF9262
:1016C0000F931F93CF93DF9347012115310509F441
:1016D0004BC00115110509F447C037FF07C0F901D8
:1016E00031966E0F7F1F319521953109DC011896D7
:1016F000AD90BC906A157B05BCF517FF07C0F801DB
:1017000031964E0F5F1F119501951109DC011A9654
:10171000ED91FC914E175F073CF56B01C20ED31E95
:10172000E6012197D7FD20C07A01E00EF11ED70116
:101730001197B7FD19C077FF03C0960170E060E014
:1017400057FF03C0870150E040E0CA15DB051CF0DD
:101750009501261B370BAE17BF071CF08F01041B2A
:10176000150B74010E94AB08DF91CF911F910F916F
:10177000FF90EF90DF90CF90BF90AF909F908F90B1
:101780000895EF92FF920F931F93CF93DF93EC0195
:1017900077FD22C08885998568177907ECF457FD95
:1017A0001BC08A859B8548175907B4F47901E881E5
:1017B000F98102A4F3A5E02D01E010E021E030E082
:1017C000CE010995B701CE01DF91CF911F910F9105
:1017D000FF90EF900C945507DF91CF911F910F91DF
:1017E000FF90EF900895CF93DF93EC010E943508AE
:1017F0008FA987FD06C0EB8DFC8D80819AA9892376
:101800008083DF91CF91089508950F931F93CF9315
:10181000DF93EC018B010E9435088FA987FD06C07C
:10182000EB8DFC8D80819AA989238083ED8DFE8DBF
:1018300080819CA98923808366E3CE010E9496075C
:10184000ED8DFE8D80819BA9892B80838DA9F80168
:10185000823091F06081CE010E9496078FA987FDAA
:1018600006C0EB8DFC8D808199A9892B8083DF9147
:10187000CF911F910F91089588A9882359F3608112
:101880007181CE010E945507E9CFCF93DF931F925C
:10189000CDB7DEB7FC0119826370668BDC01AD5BEE
:1018A000BF4F2C9130E011968C9190E0623031F076
:1018B0006330C9F0613081F040EC498332AF21AF31
:1018C00094AF83AFBE016F5F7F4FCF010E94050CC5
:1018D0000F90DF91CF91089540EA498334AF23AF51
:1018E00092AF81AFEFCF40E6F8CF0F931F93CF9326
:1018F000DF931F92CDB7DEB7FC0119826370668B50
:10190000DC01A85BBF4F2D913C91119712968D91F0
:101910009C916230D1F1633009F440C08F010C5BBF
:101920001F4F6130F9F040EC4983AF014D5B5F4FD1
:10193000DA014C9150E052AF41AFD8014C9150E0E8
:1019400054AF43AF3187208793878287BE016F5F93
:101950007F4FCF010E94050C0F90DF91CF911F9117
:101960000F91089540EA4983D8014C9150E052AF5D
:1019700041AFDF01AA5BBF4F4C9150E054AF43AF82
:101980003387228791878087E1CFDF01AA5BBF4F32
:101990004C9150E052AF41AF1196D0CF40E6498311
:1019A000DF01A95BBF4F4C9150E052AF41AF14979C
:1019B000E3CFFC0187A987FD06C0A38DB48D9C9160
:1019C00081A9892B8C9308950895FC016370668B1F
:1019D0008481958126813781613039F0633029F027
:1019E000918780873387228708953187208793875F
:1019F000828708952F923F924F925F926F927F92CB
:101A00008F929F92AF92BF92CF92DF92EF92FF920E
:101A10000F931F93CF93DF93CDB7DEB76A970FB6BF
:101A2000F894DEBF0FBECDBF9A8F898F7A8369830A
:101A30004A01D22E18870F833701BC2CDC0159963E
:101A40002D913C915A972115310509F015C1189631
:101A50008D919C911997681779070CF0D7C11A9648
:101A60008D919C91481759070CF0D0C14C2C512CEA
:101A7000B6E0CB9E600D711D11247C876B87161616
:101A800017060CF0C3C1EA2DF0E0FA87E98793E06E
:101A9000EE0FFF1F9A95E1F7F88BEF87CF01840FC8
:101AA000951F181619060CF0B1C1A98DBA8D58965C
:101AB0008C91811104C0BFEABD1508F4D394A98D9F
:101AC000BA8DED91FC9111970284F385E02DCD0143
:101AD0000995B5E0DB9EC0011124E981FA81FC8300
:101AE000EB83312C212C9C01205E3D4F388F2F8BB6
:101AF0004A2D50E05E8B4D8BEF89F88DE20DF31D82
:101B000044919E828D82D12CC12C69817A81620D93
:101B1000731D7A8B698B842F90E09C8B8B8BE98D66
:101B2000FA8DA081B18140FF82C0F1E0BF126FC089
:101B3000AF126DC01C96ED91FC912F813885A401E8
:101B40004C0D5D1D69897A89898D9A8D0995EB897E
:101B5000FC89F595E7954E2F5FEFC51AD50A6D8183
:101B60007E818D899E89680F791F7E836D8398E0C1
:101B7000C916D10481F6AFEF2A1A3A0AEB81FC812B
:101B8000E40DF51DFC83EB83F5E02F16310409F01D
:101B9000B3CF2F81388526153705B9F0A98DBA8DB9
:101BA000ED91FC91B1E0BB1257C0AB1255C06981F9
:101BB0007A816B5F7F4F0088F189E02D830128E0F7
:101BC00030E0A401898D9A8D0995A98DBA8DED918A
:101BD000FC9111970688F789E02DCD016A960FB622
:101BE000F894DEBF0FBECDBFDF91CF911F910F9153
:101BF000FF90EF90DF90CF90BF90AF909F908F902D
:101C00007F906F905F904F903F902F9009941E9619
:101C1000ED91FC91EF80F88409851A8592014D8140
:101C20005E816B817C81898D9A8D099590CF2F8102
:101C300038852615370509F48ACF31E0B31207C07D
:101C4000A31205C01C96ED91FC91930178CF1E96CE
:101C5000ED91FC917301E0CF6B857C85641975096A
:101C60000684F785E02D73010F8518899201A40180
:101C7000898D9A8D0995A9CFF9013496949132975F
:101C800045915491D91AB7E0DB9E400D511D1124A6
:101C9000F901259134913C8B2B8BFA0125903490DE
:101CA000FA013296749031963491398B3296649061
:101CB0003196449041E04C1518F04A1508F07FC069
:101CC000662D062C000C770B7C836B83842D042CF3
:101CD000000C990B9E838D83A98DBA8DED91FC919B
:101CE00011970284F385E02DCD010995512CD12C5B
:101CF000C12CEA2DF0E0FA87E9872B2D30E03C87F4
:101D00002B87A401440D511D47FC5A95588F4F8BCA
:101D100069817A81660D711D67FC7A957E876D8772
:101D20007989C71608F051CF2C2D30E04D815E81A6
:101D3000420F531FA985BA854A9FC0014B9F900D42
:101D40005A9F900D1124FC01E80DF91DF88BEF87C7
:101D5000852D612C4F89588D420F531F5E8B4D8B03
:101D6000671408F050C044244394480E877041F42F
:101D7000C1010196EB89FC89E20DF31DD4901C0191
:101D8000D7FE19C0A98DBA8DED91FC91662D70E03A
:101D9000B1E0BB1219C0AB1217C02D853E85620F92
:101DA000731F0484F585E02D2F8138854D895E8968
:101DB000898D9A8D0995DD0C6394842DD1CF1E8277
:101DC0001D821C821B8288CF4B815C81640F751F32
:101DD000AB85BC856A9FC0016B9F900D7A9F900D6B
:101DE000112469817A81680F791F0684F785E02DB7
:101DF000EF80F88409851A859D014F855889898D62
:101E00009A8D0995D8CF570CC3948ACF6A960FB68E
:101E1000F894DEBF0FBECDBFDF91CF911F910F9120
:101E2000FF90EF90DF90CF90BF90AF909F908F90FA
:101E30007F906F905F904F903F902F9008958F927A
:101E40009F92AF92CF92EF92FF920F931F93CF93F7
:101E5000DF93EC01262F898D9A8D009709F051C0F0
:101E60006A30D1F41D861C868D8948E0849F9001DC
:101E700011248E859F85820F931F9F878E8781E017
:101E800090E0DF91CF911F910F91FF90EF90CF9055
:101E9000AF909F908F9008956D3089F3CC88AD8876
:101EA0008F898823C1F08C859D8536E0C39E800D87
:101EB000911D1124488559854817590764F44E85AA
:101EC0005F851D861C8638E0A39EC0011124840F07
:101ED000951F9F878E87EA88FB88088919894E8518
:101EE0005F856C857D85CE010E94FA0C2C898C85DE
:101EF0009D8546E0249F800D911D11249D878C8730
:101F0000BECF6A3069F41D861C86FC013896E491C8
:101F10002D898E859F85E29F800D911D1124ADCF67
:101F20006D3009F4ACCFFC0134963491631708F49A
:101F3000A6CF3296E491E61708F4A1CFFC013296C1
:101F400085909490462F431B342F47E0349F800C9C
:101F5000911C1124F401329634913196E49133238B
:101F6000A9F1EE2399F1CC88F4013596E491AD887E
:101F70004F89442301F10E2E000CFF0BE30FF11DDE
:101F8000CE9EA001CF9E500D11246C857D85460FFD
:101F9000571F68857985641775076CF44E855F85D2
:101FA0001D861C86FC013896E491AE9E400D511DA5
:101FB00011245F874E87EA88FB88088919894E8536
:101FC0005F856C857D85CE010E94FA0CF401349604
:101FD000E4912C898C859D85E29F800D911D1124B3
:101FE0008DCF6F927F928F929F92AF92BF92CF923E
:101FF000DF92EF92FF920F931F93CF93DF93EC0149
:102000006B015A0139014801E881F9810284F385A5
:10201000E02D0995E881F9810288F389E02D870197
:102020009301A501B601CE010995A501480D591DE1
:1020300041505109E881F9810288F389E02D93012B
:10204000B601CE010995E881F9810088F189E02D7A
:102050009401A501B601CE010995C60CD71CB601A5
:1020600061507109E881F9810088F189E02D9401BE
:10207000A501CE010995E881F9810688F789E02D4F
:10208000CE01DF91CF911F910F91FF90EF90DF90E4
:10209000CF90BF90AF909F908F907F906F9009945A
:1020A000CF92DF92EF92FF920F931F93CF93DF9324
:1020B000EC016B017A01675F7F4F2AE030E042E07C
:1020C00050E00E94C40A09E010E022E030E0A601DE
:1020D000BE0188EB96E00E94F10FDF91CF911F9136
:1020E0000F91FF90EF90DF90CF900895CF92DF9205
:1020F000EF92FF920F931F93CF93DF936C01EB014D
:102100007A01645171092AE030E042E050E00E9417
:10211000C40AAE014950510909E010E022E030E064
:10212000B60188EB96E00E94F10FDF91CF911F91ED
:102130000F91FF90EF90DF90CF9008956F927F9274
:102140008F929F92AF92BF92CF92DF92EF92FF92C7
:102150000F931F93CF93DF935C01EB016A01490159
:1021600038018701DC01ED91FC916217730719F5C5
:10217000641675062CF0962D872D3A01C92ED82E9F
:102180009601261937092F5F3F4F048CF58DE02DFE
:10219000A301BE01C5010995DF91CF911F910F9158
:1021A000FF90EF90DF90CF90BF90AF909F908F9077
:1021B0007F906F9008954615570591F426173707BD
:1021C00024F0892D4B01C22FD82F9E0128193909DF
:1021D0002F5F3F4F068CF78DE02DA601B401DACFBB
:1021E0000284F385E02D0995D501ED91FC910488D9
:1021F000F589E02D83019401A601BE01C501099571
:10220000D501ED91FC910688F789E02DC501DF919C
:10221000CF911F910F91FF90EF90DF90CF90BF90E3
:10222000AF909F908F907F906F900994EF92FF9264
:102230000F931F93DC011A960D911C911B97189612
:102240002D913C911997ED91FC9100A0F1A1E02D09
:102250007B0150E040E070E060E009951F910F9134
:10226000FF90EF9008954F925F926F927F928F92BE
:102270009F92AF92BF92CF92DF92EF92FF920F9315
:102280001F93CF93DF936C012B015A013901480151
:10229000DC01ED91FC910284F385E02D0995E201CA
:1022A000640C751CD601ED91FC91C615D7055CF444
:1022B0000088F189E02D87019401A501BE01C601C6
:1022C00009952196EFCF0688F789E02DC601DF91A9
:1022D000CF911F910F91FF90EF90DF90CF90BF9023
:1022E000AF909F908F907F906F905F904F900994E8
:1022F0008F929F92AF92BF92CF92DF92EF92FF9216
:102300000F931F93CF93DF93EC015B014A016901A7
:10231000E881F9810284F385E02D099595012C0D62
:102320003D1D21503109E881F9810488F589E02DAE
:1023300078018401A401B501CE010995E881F981F4
:102340000688F789E02DCE01DF91CF911F910F9183
:10235000FF90EF90DF90CF90BF90AF909F908F90C5
:1023600009948F929F92AF92BF92CF92DF92EF9299
:10237000FF920F931F93CF93DF93EC015B014A0110
:1023800069017801E881F9810284F385E02D0995DE
:10239000C80CD91C860101501109E881F981048813
:1023A000F589E02D9501A401B501CE010995E881DB
:1023B000F9810688F789E02DCE01DF91CF911F9139
:1023C0000F91FF90EF90DF90CF90BF90AF909F90D4
:1023D0008F9009940895EF92FF920F931F93DC0161
:1023E000ED91FC9100A0F1A1E02D09951F910F91B5
:1023F000FF90EF9008950F931F93DC01ED91FC91F6
:10240000068CF78DE02D09951F910F9108950F937C
:102410001F93DC01ED91FC91048CF58DE02D099565
:102420001F910F910895DC01ED91FC910084F185DD
:10243000E02D09942F923F924F925F926F927F927C
:102440008F929F92AF92BF92CF92DF92EF92FF92C4
:102450000F931F93CF93DF9300D000D000D0CDB760
:10246000DEB73C016A013E832D83FC82EB8258017A
:10247000A41AB50AB7FE03C0B194A194B1088D8027
:102480009E80861A970A97FE03C0919481949108C2
:102490008A149B045CF0902F812F0D811E819D83F7
:1024A0008E839C2D8D2D6B01692F782F0C151D05AA
:1024B0005CF09D818E817E836D83692F782F902FB4
:1024C000812F8601C92ED82E1601201A310A2B0120
:1024D0002D813E81421A530A57FE03C05194419404
:1024E0005108710137FE03C03FEFE31AF30AF59478
:1024F000E7948D819E81861797075CF5A1E0B0E097
:10250000BA83A983C016D1064CF1D301ED91FC9199
:102510000484F585E02D2B813C81A8016D817E81AD
:102520008A149B041CF04D815E81B801C30109959A
:10253000E418F508F7FE0AC02D813E8189819A8151
:10254000280F391F3E832D83E20CF31C0F5F1F4FB2
:10255000D9CF2FEF3FEF3A832983D4CF26960FB6FA
:10256000F894DEBF0FBECDBFDF91CF911F910F91C9
:10257000FF90EF90DF90CF90BF90AF909F908F90A3
:102580007F906F905F904F903F902F9008950895A7
:1025900090E080E00895CF93CFB7F89480917F02C8
:1025A000811127C0EEE3F7E08491E2E5F7E0949132
:1025B000E82FF0E0EE0FFF1FE05EF84FA591B49119
:1025C000EC91E92321F461E08AE00E94FF0561E0DB
:1025D0008AE00E944B068CB580618CBD8CB580640E
:1025E0008CBD61E08DE00E944B0661E08BE00E94B3
:1025F0004B0680917F028F5F80937F02CFBFCF9188
:102600000895CF93C82F8A3019F48DE00E940113EA
:102610008091C00085FFFCCFC093C60090E080E0B1
:10262000CF9108958093BB0084EC8093BC0080918F
:10263000BC0087FFFCCF08950F931F93CF93DF93C8
:10264000EC01FC0101900020E9F731978F01081B94
:10265000190B70E060E088EB96E00E9416112EEEF8
:102660002003C001219F900D112480519F4F97FDA1
:102670000196959587959093C5068093C40688E842
:1026800090E09093C7068093C6068FEF9FEF9093DC
:10269000CB068093CA069093C9068093C80683E050
:1026A0008093CC068093CD0681E08093CF06FE0117
:1026B00001900020E9F73197AF014C1B5D0BBE0183
:1026C00088EB96E0DF91CF911F910F910C947C06DF
:1026D0004F925F926F927F928F929F92AF92BF9232
:1026E000CF92DF92EF92FF920F931F93CF93DF93DE
:1026F0007C016B018091C0069091C106E816F90635
:1027000084F42091C2063091C306621773074CF41B
:10271000B701635E7F4F77FD04C0D6015196B7FFC6
:1027200027C0DF91CF911F910F91FF90EF90DF9025
:10273000CF90BF90AF909F908F907F906F905F9061
:102740004F900895EC965AC088EB96E0DF91CF91B8
:102750001F910F91FF90EF90DF90CF90BF90AF90BF
:102760009F908F907F906F905F904F900C94D90CBA
:1027700050E040E0EEE18E2E912CF7FE0AC04701BA
:102780004EE1840E911C442755274E195F09F12C08
:10279000E12CF0E0E0E0C2E1AC2EB12CD7FE0AC0A3
:1027A0005601E2E1AE0EB11CEE27FF27EC19FD0940
:1027B000D12CC12C681779071CF04C018E189F088A
:1027C000A217B3071CF05901AC18BD088EE18E9F0B
:1027D000E0018F9FD00D1124C40FD51FCC0FDD1F3A
:1027E000C058DD4F88EB96E00E94F30B8501940101
:1027F000A601B70188EB96E00E94DC07F1E0AF1A72
:10280000B10808F4A1CF2401092C000C6608770850
:10281000411451046104710409F494CF7E0181E0F4
:10282000481A510861087108EFEF4E165E066E06F1
:102830007E0609F487CFF701619171917F0188EBE2
:1028400096E00E945507EBCF0F931F93CF93DF9332
:10285000EC0122E130E047E050E068E171E00797E9
:102860000E94C40A22E130E047E050E068E171E0F4
:10287000CE014E960E94C40A60E872E030E020E08B
:10288000DB0150E040E089010F5D144FF801E40FD7
:10289000F51FE49180EE97E0E11102C090E080E046
:1028A00011969C938E9313969C938E931297DD961C
:1028B0009C938E93DC97DF969C938E93DE974F5F6D
:1028C0005F4F14964F30510509F768587F4F215FCD
:1028D0003F4F27383105A1F668E171E0CE01DF9165
:1028E000CF911F910F910C946813DF92EF92FF929A
:1028F0000F931F93CF93DF93EC018B0122E130E024
:102900004EE150E068E171E00E94C40A60E872E0C4
:1029100030E020E08FE0D82ED29E7001D39EF00CE4
:102920001124E00EF11EDB0150E040E0FA01EE0D53
:10293000FF1DE49180EE97E0E11102C090E080E09D
:1029400011969C938E9313969C938E931297DD967B
:102950009C938E93DC97DF969C938E93DE974F5FCC
:102960005F4F14964F30510509F72F5F3F4F68585E
:102970007F4F2930310581F668E171E0CE01DF91AA
:10298000CF911F910F91FF90EF90DF900C946813FF
:102990008F929F92AF92BF92CF92DF92EF92FF926F
:1029A0000F931F93CF93DF936C015A0180E8E82EB9
:1029B00082E0F82ED0E0C0E08FE08C9F40018D9F38
:1029C000900C11248A0C9B1CD70110E000E0F80148
:1029D000E80DF91DE491522F932FE11102C050E050
:1029E00090E05C9311969C93119712965C931297CA
:1029F00013969C931397DC965C93DC97DD969C93DF
:102A0000DD97DE965C93DE97DF969C93DF970F5FF2
:102A10001F4F14960F301105D1F6219698E7E90E55
:102A2000F11CC930D10549F6C601DF91CF911F9144
:102A30000F91FF90EF90DF90CF90BF90AF909F905D
:102A40008F900C9468138F929F92AF92BF92CF9207
:102A5000DF92EF92FF920F931F93CF93DF934C017E
:102A6000EB015A01690122E130E0AB01B50190E0D0
:102A700080E00E94C40AC114D10459F0D7FC04C0FC
:102A800083E0C816D1046CF1012BB1F505E019E023
:102A900004C0012B59F507EF17E074014E01E2ED78
:102AA0008E0E911CF701819191917F01C816D90674
:102AB00034F52FEF3FEFA801B501CE010E94C814F5
:102AC0006E96C815D90571F7DF91CF911F910F91BF
:102AD000FF90EF90DF90CF90BF90AF909F908F903E
:102AE0000895012B31F40EE718E0D7CF0AE91AE078
:102AF000D4CF03E11AE0D1CF0CE819E0CECF22E128
:102B000030E04EE150E0B501CE010E94C40AD8CFBA
:102B1000EF92FF920F931F93CF93DF9300E812E0A1
:102B200050E040E0D801D0E0C0E09A012059384F91
:102B30007901F701EC0FFD1FE49120E038EFE1117E
:102B400002C030E020E011963C932E9313963C9304
:102B50002E931297DD963C932E93DC97DF963C9351
:102B60002E93DE9721961496CF30D10511F7085891
:102B70001F4F415F5F4F47385105A1F6DF91CF915D
:102B80001F910F91FF90EF900C9468130E94FB2807
:102B9000CF93DF93C82FD62F84EA8093BC00809117
:102BA000BC0087FFFCCF8EE40E941213CD2BDC2FDC
:102BB000D8608D2F0E9412138C2F8C600E941213EC
:102BC0008D2F0E94121384E98093BC0087EC90E063
:102BD0000197F1F700C00000DF91CF910895CF93E6
:102BE000C82F61E0807F0E94C81561E08C2F82951C
:102BF000807F0E94C81587EC90E00197F1F700C034
:102C00000000CF910895CF93C82F60E0807F0E948D
:102C1000C81560E08C2F8295807F0E94C8158FE3D5
:102C20009FE10197F1F700C00000CF910895CF9385
:102C300080E80E940316C0E180E20E94EF15C150B7
:102C4000D9F780E8CF910C9403160F931F93CF937D
:102C5000DF938B0180680E940316E8018991882325
:102C600019F00E94EF15FACFDF91CF911F910F91CC
:102C70000895CF92DF92EF92FF920F931F93CF931D
:102C8000DF93EC016A017B01C114D104E104F1047A
:102C900039F4C12C28E4D22E28EEE22EFF24F3943E
:102CA000FE01FF96C082D182E282F38281E28DAF83
:102CB00080E28EAF369610818FA987FD07C061E054
:102CC0000E944B0661E08FA90E94FF0561E088AD7C
:102CD0000E944B0661E088AD0E94FF058DA981111D
:102CE0005BC040E052E16AE770E0C416D506E60634
:102CF000F70640F476956795579547958F5F863030
:102D0000A1F787E0212F2C702065982F9695922BA4
:102D100099A3809581708AA3812F90E0B0E0A0E014
:102D20008BA39CA3ADA3BEA30E94CB128EA987FD4B
:102D30002AC061E00E944B0661E08EA90E94FF0557
:102D40002FEF81EE94E0215080409040E1F700C0E9
:102D5000000060E08EA90E94FF05EFEFF1EE24E095
:102D6000E150F0402040E1F700C0000061E08EA992
:102D70000E94FF058FEF93ECE9E081509040E04026
:102D8000E1F700C00000DF91CF911F910F91FF90FC
:102D9000EF90DF90CF90089504E317E0F12C81309D
:102DA000B9F461E08AA50E944B0660E08AA50E9402
:102DB000FF0561E08CA50E944B0660E08CA50E9497
:102DC000FF058BA587FDB2CF60E00E944B06AECF1A
:102DD000F8018491E82FF0E0EE0FFF1FE65DF84F59
:102DE000859194912F8D38A12817390741F461E01E
:102DF0008F2D0E944B0660E08F2D0E94FF05F394FB
:102E00000F5F1F4FF4E1FF12E3CF61E08EA50E9438
:102E10004B0661E08EA50E94FF058FA587FD86CF3A
:102E200061E00E944B0661E08FA50E94FF057ECF06
:102E30001F920F920FB60F9211248F939F938BB115
:102E400090E489278BB99F918F910F900FBE0F90BF
:102E50001F9018951F920F920FB60F9211248F9307
:102E60009F93AF93BF9380917B0290917C02A0913E
:102E70007D02B0917E020196A11DB11D80937B025F
:102E800090937C02A0937D02B0937E02BF91AF919C
:102E90009F918F910F900FBE0F901F9018951F92CA
:102EA0000F920FB60F9211248F939F938BB190E2E4
:102EB00089278BB99F918F910F900FBE0F901F9014
:102EC00018951F920F920FB60F9211248F939F9314
:102ED00081E090E090937902809378029F918F91A6
:102EE0000F900FBE0F901F901895A8EBB6E01396A9
:102EF0001C921E92129720EF30E015963C932E9371
:102F0000149780E491E017969C938E9316971996E8
:102F10003C932E9318971B969C938E931A975696D4
:102F20001C9256971D961C921E921C971F961C92DF
:102F30001E921E9781E055968C93559754968C93CC
:102F400054972FEF3FEF53963C932E935297519601
:102F50003C932E93509757968C93579758961C9264
:102F600058975A961C921E925997D5961C92D597AF
:102F70008FEFD6968C93D6978AE0D7968C93D79777
:102F800089E0D8968C93D897DA961C921E92D9979E
:102F9000DC961C921E92DB97DD961C92DD97DE96E6
:102FA0001C92DE971092F7061092F8061092F9061E
:102FB0001092FA068AE792E090969C938E935F9720
:102FC000EDE3F7E0E491F0E0EE0FFF1FE65DF84F70
:102FD000859194915E969C938E935D97E1E5F7E0E1
:102FE0008491D3968C93D397EEE3F7E0E491F0E0ED
:102FF000EE0FFF1FE65DF84F259134915C963C93F0
:103000002E935B97E2E5F7E0E491D196EC93D197AC
:10301000E095D296EC93D297E82FE095D496EC9376
:10302000D4971092FB061092FC061092FD068EE4D7
:1030300091E08D939C931092FE061092FF060895E6
:10304000CF93DF93CDB7DEB7C25ED1090FB6F89448
:10305000DEBF0FBECDBFF89480916900836080937E
:103060006900E89A7894259A5298569A1092C50069
:1030700087E68093C40088E18093C1008EE080934E
:10308000C20081E093E190937302809372021092E8
:1030900075021092740282E080936D0210927702A2
:1030A000109276028AE692E09093070780930607D3
:1030B0008AE791E00E94162914BC15BC84B5826091
:1030C00084BD85B5846085BD80916E0082608093EB
:1030D0006E001092800010928100809181008860C3
:1030E0008093810080918100826080938100809133
:1030F0006F00826080936F008CED95E09093890063
:10310000809388001092B0001092B1008091B000BE
:1031100082608093B0008091B10086608093B1009E
:10312000809170008260809370008DE891E00E9431
:10313000162980917A00876080937A0080917C00C4
:10314000806480937C0080917A00806880937A000C
:1031500081EA91E00E9416290E94CB128CB58C7FE7
:1031600081608CBD8DB58E7F8DBD82EB91E00E941C
:1031700016291092FD0640E050E0BA0188EB96E077
:103180000E9439161092FF061092FC061092FE065D
:103190001092FB0680EF90E0909301078093000768
:1031A00080E491E09093030780930207E8E6F0E063
:1031B000849089E690E08A94EE24EA948E1409F4CF
:1031C0007EC0FC01F4908C010E5F1F4F31969490ED
:1031D000E92CE894E7F888EB96E00E9435088091A6
:1031E000EF0687FD09C0E091D306F091D4068081F7
:1031F0009091EA0689238083E091D506F091D60666
:1032000080819091EC06892380836F2D88EB96E076
:103210000E949607E091D506F091D60680819091A4
:10322000EB06892B8083F801B12CA12CF12CAE1474
:10323000BF04FCF48091ED066F01823089F4809127
:10324000E806882369F0DF016D917D916D0188EBBF
:1032500096E00E945507EFEFAE1ABE0AF601E7CFDF
:10326000BFEFCB1ADB0A649188EB96E00E949607C9
:10327000F2CF8091EF0687FD09C0E091D306F0916F
:10328000D40680819091E906892B80830E0D1F1D45
:10329000C80197FE90CF0196F801049110E00F3F0E
:1032A000110511F404EF11E00150110908F483CF66
:1032B000AFE9BFE01197F1F700C00000F5CF60E083
:1032C00088EB96E00E94750C60E088EB96E00E9427
:1032D0003E0883EC91E00E9416291092BC0088E41D
:1032E0008093B8008091B9008E7F8093B90080915F
:1032F000B9008D7F8093B90010E000E054EAD52E2C
:1033000068EDE62E61E0F62ED092BC008091BC0004
:1033100087FFFCCF802F880F81600E94121380915D
:10332000B900887F803451F41F930F93FF92EF927E
:103330000E9400290F900F900F900F900F5F1F4F6A
:103340000F37110509F784E98093BC00BFEFE0E770
:10335000F2E0B150E040F040E1F700C0000060E072
:1033600080E30E94C8158FE19EE40197F1F700C049
:10337000000060E080E30E94C815A7E5B2E0119765
:10338000F1F700C0000060E080E20E94C815E7E5A8
:10339000F2E03197F1F700C0000088E20E940316C6
:1033A0008CE00E94031681E00E9403168FE39FE1E8
:1033B0000197F1F700C0000086E00E94031683EF3A
:1033C00091E00E94162980917800909179000E94E6
:1033D00050288BE0E5E5F2E0DE01D19601900D92F8
:1033E0008A95E1F78AE0E0E6F2E0DE01DC96019002
:1033F0000D928A95E1F785E090E09CA38BA39EA3B4
:103400008DA398A78FA39AA789A79CA78BA79EA7F0
:103410008DA798AB8FA7A5961FAEA597A6961FAEB2
:10342000A697A7961FAEA7977E0196E4E90EF11C1A
:10343000D70111961C921E9213961C921E921297FF
:1034400015961C921E9214978E01045B1F4FF80173
:103450001182108213821282158214823E01F2E5DB
:103460006F0E711CD30111961C921E9213961C9222
:103470001E92129715961C921E9214976E01B8E533
:10348000CB0ED11CF601118210821382128215829A
:1034900014825E01FEE5AF0EB11CD50111961C929F
:1034A0001E9213961C921E92129715961C921E92B3
:1034B000149764E072E080E00E94251664E172E0F7
:1034C00080E40E94251684E292E00E941629CE0133
:1034D000C1960E941C13CB57DF4F1882C558D040AD
:1034E000C057DF4F19821882C059D040C953DF4FEF
:1034F000188219821A821B82C75CD040CF54DF4FDA
:1035000019821882C15BD040E4E1F0E0C556DF4F7C
:10351000F983E883CB59D040C155DF4F1982188217
:10352000CF5AD040E9961FAE1EAEE997C756DF4F7F
:1035300019821882C959D04029E130E0C956DF4FBD
:1035400039832883C759D040CB56DF4F1982188260
:10355000C559D040CD57DF4F19821882C358D0408B
:10356000C954DF4F188219821A821B82C75BD04070
:10357000C353DF4F1882CD5CD040C253DF4F188257
:10358000CE5CD040C156DF4F19821882CF59D0404F
:10359000CA57DF4F19821882C658D040312C212CCF
:1035A000ED961FAE1EAEED97AB961FAE1EAEAB975F
:1035B000A8961FAEA897EF961FAE1EAEEF9748E1F4
:1035C00050E0C355DF4F59834883CD5AD040E5962C
:1035D0001FAE1EAEE59761E070E0C555DF4F798301
:1035E0006883CB5AD04080E190E0AD969FAF8EAF1C
:1035F000AD97A4E0B0E0CD53DF4FB983A883C35C9F
:10360000D040EEE1F0E0CF53DF4FF983E883C15CB7
:10361000D040C457DF4F19821882CC58D0402EE1D9
:1036200030E0E3963FAF2EAFE39744E050E0C1585F
:10363000DF4F59834883CF57D040CB54DF4F798336
:103640006883C55BD04083E290E0CF55DF4F99831C
:103650008883C15AD0404AE6442E512CE1961CAED4
:103660001DAE1EAE1FAEE197C857DF4F18821982FC
:103670001A821B82C858D040C955DF4F1882198260
:103680001A821B82C75AD040A1E0B0E0C154DF4F7C
:10369000B983A883CF5BD040E3E0F0E0EB96FFAFC7
:1036A000EEAFEB97CF57DF4F19821882C158D04049
:1036B000912C812CCB55DF4F19821882C55AD040EE
:1036C000CE56DF4F19821882C259D040C554DF4F01
:1036D000188219821A821B82CB5BD040CD55DF4FF6
:1036E00019821882C35AD04021E030E0C257DF4F20
:1036F00039832883CE58D04080917B0290917C0200
:10370000A0917D02B0917E02C955DF4FE880F9801B
:103710000A811B81C75AD0408E159F05A007B107AB
:1037200008F050C000917B0210917C0220917D0234
:1037300030917E02C955DF4F088319832A833B836A
:10374000C75AD04020917B0230917C0240917D028B
:1037500050917E02C857DF4F288339834A835B83A9
:10376000C858D04040917B0250917C0260917D020C
:1037700070917E02C554DF4F488359836A837B83EF
:10378000CB5BD04060917B0270917C0280917D0286
:1037900090917E02C954DF4F688379838A839B832B
:1037A000C75BD04080917B0290917C02A0917D020A
:1037B000B0917E02C953DF4F88839983AA83BB836C
:1037C000C75CD0408114910409F0C6C1CB57DF4FCC
:1037D000E880C558D040EE2009F40EC1CE01C19654
:1037E0000E941C1364E072E080E00E94251664E1F0
:1037F00072E080E40E94251685E090E09CA38BA3F4
:103800009EA38DA398A78FA39AA789A79CA78BA7F0
:103810009EA78DA798AB8FA7FE01EC59FF4FBE0165
:103820006A5B7F4FAE01445B5F4F9E012E5A3F4F54
:10383000CE01885A9F4F7E010EE5E00EF11C8F01EC
:103840000D5F1F4F1192DB011D921D92BD01DA0128
:103850001D921D92AD01D9011D921D929D01DC01A9
:103860001D921D92CD01D7011D921D927D01E01781
:10387000F10741F7C155DF4F19821882CF5AD04066
:10388000E9961FAE1EAEE997C756DF4F1982188220
:10389000C959D040CB56DF4F19821882C559D04044
:1038A000CA57DF4F19821882C658D040312C212CBC
:1038B000EF961FAE1EAEEF97E5961FAE1EAEE597D4
:1038C000C457DF4F19821882CC58D040CF57DF4FF2
:1038D00019821882C158D040E4E1F0E0C556DF4FAC
:1038E000F983E883CB59D040CD57DF4F1982188236
:1038F000C358D040C353DF4F1882CD5CD040C25371
:10390000DF4F1882CE5CD040C156DF4F198218823B
:10391000CF59D040ED961FAE1EAEED97AB961FAEC1
:103920001EAEAB97A8961FAEA89708E110E0C3554E
:10393000DF4F19830883CD5AD04021E030E0C555D0
:10394000DF4F39832883CB5AD04040E150E0AD9619
:103950005FAF4EAFAD9764E070E0CD53DF4F79833A
:103960006883C35CD0408EE190E0CF53DF4F9983F2
:103970008883C15CD040AEE1B0E0E396BFAFAEAFAC
:10398000E397E4E0F0E0C158DF4FF983E883CF57D5
:10399000D04001E010E0CB54DF4F19830883C55BB2
:1039A000D04023E230E0CF55DF4F39832883C15A1E
:1039B000D0402AE6422E512CE1961CAE1DAE1EAE22
:1039C0001FAEE197C857DF4F188219821A821B82F7
:1039D000C858D04043E050E0EB965FAF4EAFEB9756
:1039E000CB55DF4F19821882C55AD040CE56DF4FD3
:1039F00019821882C259D04080917B0290917C023A
:103A0000A0917D02B0917E02C955DF4FE880F98018
:103A10000A811B81C75AD0408E199F09A00BB10B98
:103A200080329340A105B10508F46EC020917B025D
:103A300030917C0240917D0250917E02C955DF4F4A
:103A4000288339834A835B83C75AD04081E090E062
:103A5000C154DF4F48815981CF5BD040452B11F4D1
:103A600090E080E066277727681B790BE7967FAFA9
:103A70006EAFE797DE01D196FD0101900020E9F7D6
:103A800031979F012A1B3B0B4EEE42036001439F7F
:103A9000D00C112470EFC70ED11CD7FE03C08FEFDE
:103AA000C81AD80AD594C79482E1829F3001839FB7
:103AB000700C112494EAA92EB12C6C0C7D1CE79695
:103AC000EEACFFACE79785019301A501B60188EB49
:103AD00096E00E949E109FEFA91AB90AA9EAAA16B9
:103AE000B10469F781E0C154DF4FE881F981CF5B10
:103AF000D040EF2B09F080E0E82EF12CC154DF4FCD
:103B0000F982E882CF5BD040CB57DF4F1882C5588F
:103B1000D04069C531E0CB57DF4F3883C558D0401E
:103B200033E0832E912CE8CDC257DF4F88809980F7
:103B3000CE58D04041E050E0C257DF4F5983488310
:103B4000CE58D040D9CD61E070E0CF57DF4F7983B8
:103B50006883C158D040D0CD01E08016910409F0AF
:103B600017C480917B0290917C02A0917D02B0915C
:103B70007E02C857DF4F288139814A815B81C8584E
:103B8000D040821B930BA40BB50B8197A105B10507
:103B900008F429C540917B0250917C0260917D021E
:103BA00070917E02C857DF4F488359836A837B83B5
:103BB000C858D04080917C00807E80937C008091AA
:103BC0007C00816080937C0080917A008064809387
:103BD0007A0080917A0084FFFCCF809178009091E8
:103BE0007900925064EB70E00E94BE28640D751D50
:103BF000633D710514F062ED70E0E7967FAF6EAF44
:103C0000E7971616170634F061E070E0E7967FAF8D
:103C10006EAFE797E796EEACFFACE7974E145F0404
:103C200019F0C7010E942414E5960EAD1FADE5976B
:103C30000F5F1F4FCB53DF4F19830883C55CD04004
:103C4000E5962EAD3FADE597C355DF4F48815981CD
:103C5000CD5AD040241735070CF4D5C0CC56DF4FD1
:103C60005881C459D0405111CEC08AE1C158DF4FAC
:103C700068817981CF57D040869F7001879FF00C73
:103C80001124E3968EAD9FADE397E80EF91EEF96F3
:103C90000EAD1FADEF979B01A701AD966EAD7FAD49
:103CA000AD97CE0183960E942315C457DF4FA8819C
:103CB000B981CC58D040109791F01197C457DF4F7D
:103CC000B983A883CC58D040B7016550710925E06D
:103CD00030E040EF50E090E080E00E94C40AC1581C
:103CE000DF4FE881F981CF57D0403197C158DF4F7E
:103CF000F983E883CF57D040F7FF7FC0CF53DF4F22
:103D0000E880F980C15CD040AD960EAD1FADAD9797
:103D10000E151F05D4F0E3962EAD3FADE3972B5F54
:103D20003F4FE3963FAF2EAFE3974FEF5FEFC555A1
:103D3000DF4F59834883CB5AD04065E070E0C457C9
:103D4000DF4F79836883CC58D040CD53DF4F8881D3
:103D50009981C35CD040AD96AEADBFADAD978A172B
:103D60009B07CCF0E396EEADFFADE3973596E39677
:103D7000FFAFEEAFE39701E010E0C555DF4F1983C9
:103D80000883CB5AD04025E030E0C457DF4F398359
:103D90002883CC58D040C555DF4F88819981CB5AB4
:103DA000D040880F991FAD964EAD5FADAD97480FCF
:103DB000591FAD965FAF4EAFAD9785E090E0BC0167
:103DC000CB54DF4FA881B981C55BD0406A1B7B0B08
:103DD000C158DF4F79836883CF57D04091E080E0AE
:103DE000EF96EEADFFADEF97EF2B09F090E0EE967A
:103DF0009FAFEE97EF968FAFEF97CB53DF4F1982C0
:103E00001882C55CD040A896FFADA897FF2309F49F
:103E100054C7232809F4C8C1ED96EEACFFACED976A
:103E2000CD54DF4FF982E882C35BD04017010AE02E
:103E3000201A3108ED963FAE2EAEED97AB962EAD23
:103E40003FADAB972F5F3F4FCF52DF4F3983288372
:103E5000C15DD04049E051E0C356DF4F59834883EC
:103E6000CD59D04014E0E12E11E0F12EE3966EAD75
:103E70007FADE397E5967FAF6EAFE597F0E0E0E0CA
:103E8000C901092E000CAA0BBB0BC552DF4F88835A
:103E90009983AA83BB83CB5DD040AB960EAD1FAD9B
:103EA000AB97012E000C220B330BC152DF4F08835E
:103EB00019832A833B83CF5DD040E5962EAD3FAD7D
:103EC000E597221633060CF47CC0C9014196821591
:103ED00093050CF476C06E0133E2C30ED11CAD968F
:103EE0008EAD9FADAD97AC01990F660B770BC153AB
:103EF000DF4FD982C882CF5CD040B12CA12C10E01A
:103F000000E0C153DF4FA881B981CF5CD0408D91D3
:103F10009D91C153DF4FB983A883CF5CD040E81790
:103F2000F9070CF041C0C356DF4FA881B981CD59C4
:103F3000D0408C9190E0880F991F092E000CAA0B9D
:103F4000BB0B2C013D01440E551E661E771EC5524B
:103F5000DF4F88819981AA81BB81CB5DD0408415D8
:103F60009505A605B70504F19DE1490E511C611C9C
:103F7000711CD7012C9130E0220F331FC901330F80
:103F8000AA0BBB0B481A590A6A0A7B0AC152DF4FB7
:103F900088819981AA81BB81CF5DD040481659069E
:103FA0006A067B060CF037C50F5F1F4F425E5F4FFE
:103FB0006F4F7F4F9EE1A90EB11C0730110509F02C
:103FC000A0CF3196E596AEADBFADE5975A96E59692
:103FD000BFAFAEAFE597C356DF4F08811981CD590A
:103FE000D0400F5F1F4FC356DF4F19830883CD5951
:103FF000D0401FEFE11AF10AE530F10509F05DCF7D
:10400000BE016C597F4FFE01EA5BFF4FF12CE12CA2
:10401000CD54DF4F88819981C35BD0400996DB0185
:104020002D91BD01222309F475C0A080B1809501B6
:104030002F5F3F4FAB960EAD1FADAB9720173107EB
:104040000CF468C0CF52DF4F28813981C15DD04068
:104050002A153B050CF45EC08701000F111F2CE4EC
:1040600030E02C0F3D1F200F311FD901CD90DC9087
:10407000C214D3040CF44EC09601235131098217A7
:1040800093070CF447C01092B30050E040E0B10138
:10409000AB968EAD9FADAB970E945010E4E6F0E07A
:1040A000EC0FFD1FEE0DFF1D1082E2E5F0E0EC0FBE
:1040B000FD1FE00FF11F87E090E091838083750181
:1040C000BFE0EB1AF108E8E5F0E0EC0FFD1FE00FB0
:1040D000F11FF182E082EEE5F0E0EC0FFD1FE00F52
:1040E000F11FD182C08250E040E0B601C5010E94BC
:1040F0007610B601C7010E948815DAC584E190E008
:104100009DC461E070E0C553DF4F19821882CB5C1B
:10411000D04048C50FEFE01AF00A329613E0E116DE
:10412000F10409F07CCF2AE02216310460F040EE61
:1041300057E0B101AB968EAD9FADAB970E9450108A
:10414000312C212CBAC5AB962EAD3FADAB972E507E
:104150003109C156DF4F39832883CF59D04050E011
:1041600040E0B101AB968EAD9FADAB970E94501071
:10417000B101C156DF4F88819981CF59D0400E944B
:104180008815C353DF4F2882CD5CD040C253DF4F28
:104190003882CE5CD0404FE050E0CA57DF4F5983A1
:1041A0004883C658D04084C522242394312C85C529
:1041B000E4E6F0E0EC0FFD1FCB56DF4F88819981DC
:1041C000C559D040E80FF91F808181116AC081E094
:1041D0008083DE01939610E000E090E080E02D9176
:1041E0003D911216130674F4F801EE0FFF1FEE2432
:1041F000E394F12CEC0EFD1EEE0DFF1D958B848BD0
:104200000F5F1F4F01968730910549F78FEF9FEFA2
:104210000115110561F00E944B28B8010E94BE28CB
:10422000FC01EE0FFF1FEC0FFD1F85899689CB5611
:10423000DF4F48815981C559D040440F551FE6E4EE
:10424000F0E0EC0FFD1FE40FF51F6EE1689F900199
:10425000699F300D1124AD960EAD1FADAD97200FA7
:10426000311F215F3F4F318320832CE430E02C0F3E
:104270003D1F420F531F880F991FFE01E80FF91FC2
:1042800023A134A16AE1629FC001639F900D1124B4
:10429000E3966EAD7FADE397860F971FDA018D939E
:1042A0009C93CB56DF4F88819981C559D0400196A8
:1042B00063E070E00E94BE28CB56DF4F998388836D
:1042C000C559D040C756DF4F19821882C959D0400E
:1042D00006C5E7966EAD7FADE7972617370744F022
:1042E00021E0E596AEADBFADE597AE15BF050CF488
:1042F00020E08E509140859708F4C8C5B6E3CB16F0
:10430000B1E0DB063CF44FEF5FEFB601C7010E945E
:104310007610A8C5F5011082E2E5F0E0EC0FFD1F74
:10432000E00FF11F2FE030E031832083A7014F50D1
:104330005109E9965FAF4EAFE997E8E5F0E0EC0F81
:10434000FD1FE00FF11F51834083EEE5F0E0EC0F1D
:10435000FD1FE00FF11F6EE271E07183608350E09A
:1043600040E0B601C7010E9476106EE271E0E99666
:104370008EAD9FADE9970E94881574C5E996AEADE4
:10438000BFADE9971196E996BFAFAEAFE997CDC53E
:10439000F2E08F16910409F0B6C180917B029091F2
:1043A0007C02A0917D02B0917E02C857DF4FE88069
:1043B000F9800A811B81C858D0408E199F09A00B33
:1043C000B10B8197A105B10508F4A6C000917B024D
:1043D00010917C0220917D0230917E02C857DF4F00
:1043E000088319832A833B83C858D040C556DF4FC2
:1043F00028813981CB59D0402431310509F456C088
:104400002F5F3F4FC556DF4F39832883CB59D040AC
:10441000CF54DF4FA881B981C15BD04017970CF40E
:104420007BC0EB96EEADFFADEB973197EB96FFAF10
:10443000EEAFEB97FF93EF9380E492E09F938F931F
:104440008E010F5F1F4F1F930F930E944129B801E8
:1044500080E40E9425160F900F900F900F900F9000
:104460000F90EB96EEACFFACEB971E141F040CF014
:1044700051CB1092B300C2010E942414C057DF4FE9
:1044800019821882C059D040CF54DF4F1982188248
:10449000C15BD04088248394912C01E010E0CD557D
:1044A000DF4F19830883C35AD04026C9C155DF4F57
:1044B00048815981CF5AD04041305105F9F469E91A
:1044C00071E0C2010E947514C155DF4F1982188234
:1044D000CF5AD040CF54DF4F88819981C15BD04003
:1044E0000196CF54DF4F99838883C15BD040C55676
:1044F000DF4F19821882CB59D0408ACF62E171E038
:10450000C2010E94751461E070E0C155DF4F7983EC
:104510006883CF5AD040DECFC057DF4F2881398122
:10452000C059D0402430310508F05BC000917B02B7
:1045300010917C0220917D0230917E02C953DF4FA1
:10454000488159816A817B81C75CD040041B150B6F
:10455000260B370BC057DF4F88819981C059D04057
:10456000880F991FFC01EE5BFE4F4081518170E086
:1045700060E00417150726073707A8F1E0907B02D3
:10458000F0907C0200917D0210917E02C953DF4FB2
:10459000E882F9820A831B83C75CD040C057DF4F93
:1045A00008811981C059D0400F5F1F4F865C9E4F14
:1045B000DC012D913C9150E040E064E274EF80E03A
:1045C00090E00E945B282093B3000430110509F0AD
:1045D000C7C0E4E0F0E0C057DF4FF983E883C0597B
:1045E000D0401092B3008091780290917902892B8B
:1045F00009F4F2C0109279021092780281149104A9
:1046000009F0B5C0C257DF4F28813981CE58D0405C
:10461000232B09F489CA0E94171680EC0E94031606
:1046200010E180E20E94EF151150D9F780EC0E9452
:104630000316E1963FADE1973F93E0964FADE097CB
:104640004F93AF965FADAF975F93AE966FADAE975A
:104650006F9385E392E09F938F938E010F5F1F4FBF
:104660001F930F930E944129B80180E00E942516F4
:10467000EB967FADEB977F93EA968FADEA978F939A
:1046800080E492E09F938F931F930F930E944129A0
:10469000B80180E40E94251670E060E088EB96E0A7
:1046A0000E941611C2010E942414E396EEACFFACE6
:1046B000E3970FB6F894DEBF0FBECDBFEF960EADF9
:1046C0001FADEF979401A701AD966EAD7FADAD978D
:1046D000CE0183960E942315BFEF8B1A9B0AEAE155
:1046E000EE0EF11CF5E08F16910441F7C257DF4F33
:1046F00088809980CE58D040CD55DF4F99828882EE
:10470000C35AD04069C0F3E08F16910409F06BCF13
:10471000CB57DF4FE880C558D040EE2009F463CF77
:1047200070E060E088EB96E00E941611CE01CC9616
:104730000E941C1364E072E080E00E9425166AE487
:1047400072E080E40E942516CB57DF4F1882C558CF
:10475000D040C257DF4F19821882CE58D04043CF85
:10476000C057DF4F19830883C059D0403CCF01E0C8
:104770008016910409F001C1CF57DF4F288139819C
:10478000C158D040232B09F4DEC9A8963FADA897A5
:10479000311101C1CC56DF4F4881C459D04041117D
:1047A000FAC08FE48093B300B201625F7F4FAB9693
:1047B0007FAF6EAFAB97CF57DF4F28803980C1589E
:1047C000D04041018FE091E0ED969FAF8EAFED9725
:1047D00091E0A8969FAFA897CE56DF4F8881998128
:1047E000C259D040880F991FFC01E65EFE4F208120
:1047F0003181232B09F4D6C030E020E0CD55DF4FC6
:10480000E881F981C35AD040EF2B11F40C947C1B42
:1048100040917B0250917C0260917D0270917E02FA
:10482000C554DF4FE880F9800A811B81CB5BD04003
:104830004E195F09600B710B865D9E4FDC018D91F7
:104840009C91821B930BB0E0A0E0481759076A07C0
:104850007B0760F1E0907B02F0907C0200917D028A
:1048600010917E02C554DF4FE882F9820A831B83D0
:10487000CB5BD040CE56DF4F88819981C259D04062
:1048800001968C0107701127CE56DF4F19830883DC
:10489000C259D040F801EE0FFF1FE65EFE4F2081A7
:1048A00031812115310509F084C017BCCC56DF4F8A
:1048B0003881C459D040332311F40C947C1B4091AF
:1048C0007B0250917C0260917D0270917E02C954FE
:1048D000DF4F88819981AA81BB81C75BD040481B8B
:1048E000590B6A0B7B0BCD57DF4FE881F981C35819
:1048F000D040EE0FFF1FEC5EFE4F80819181B0E053
:10490000A0E0481759076A077B0710F40C947C1B3A
:10491000E0907B02F0907C0200917D0210917E027B
:10492000C954DF4FE882F9820A831B83C75BD040FA
:10493000CD57DF4F08811981C358D040033011058E
:1049400008F041C00F5F1F4FCD57DF4F1983088319
:10495000C358D040F801EE0FFF1FE25FFE4F2081E9
:10496000318150E040E064E274EF80E090E00E942A
:104970005B282093B3000C947C1BA3E08A1691045F
:1049800009F02ACFB1E0CB57DF4FB883C558D040EC
:10499000912C812C21CFCF57DF4F88809980C1582F
:1049A000D0401ACFCB55DF4F28813981C55AD0402E
:1049B00025CF50E040E064E274EF80E090E00E9498
:1049C0005B2827BD73CFA8961FADA89780E1111172
:1049D00001C080E08093B30022E130E04EE150E07E
:1049E000CB52DF4F68817981C55DD040CD52DF4F1A
:1049F00088819981C35DD0400E94C40ACD57DF4FA2
:104A000019821882C358D040CC56DF4F1882C4593F
:104A1000D0400C947C1B1092B300F801EE0FFF1FE6
:104A2000EC0FFD1F83A194A18130910509F42BC2E5
:104A30001CF004970CF462CB8AE090E0092E000C85
:104A4000AA0BBB0BE1962CAD3DAD4EAD5FADE19732
:104A5000280F391F4A1F5B1FE1962CAF3DAF4EAFA9
:104A60005FAFE1970E941716E1963FADE1973F9344
:104A7000E0964FADE0974F93AF965FADAF975F93E2
:104A8000AE966FADAE976F9385E392E09F938F9351
:104A9000CE0101967C019F938F930E944129B7011B
:104AA00080E00E942516C801880F991FE80EF91EA4
:104AB000D70192968D919C9101977AE1772E789EFD
:104AC000B001799E700D1124E396EEADFFADE39732
:104AD0006E0F7F1F2EE1209FC001219F900D11249A
:104AE00020E038EF4BE850E0AD960EAD1FADAD972E
:104AF000800F911F0E94C8140A0D1B1DCD52DF4F5D
:104B000019830883C35DD040D70192968D919C9103
:104B100093970197789E9001799E300D1124E3962A
:104B2000EEADFFADE397E20FF31FCB52DF4FF983FA
:104B3000E883C55DD04093969C938E939297CF5512
:104B4000DF4F08811981C15AD04001501109F60187
:104B50003E960FB6F894DEBF0FBECDBF30E020E02A
:104B600070E060E08FEF9FEFD6014D915D916D0198
:104B7000841795070CF4CA01452B09F0C2CAC55326
:104B8000DF4F48815981CB5CD0404F5F5F4FC553A9
:104B9000DF4F59834883CB5CD0406115710511F418
:104BA0002F5F3F4FEC15FD05F9F646E050E0BA01E6
:104BB000681B790BCB54DF4F79836883C55BD0408A
:104BC00042EE4203C001439F900D1124DC01149674
:104BD000CD53DF4FB983A883C35CD040C553DF4FAB
:104BE00088819981CB5CD04001962EE1289FF0010D
:104BF000299FF00D1124CF53DF4FF983E883C15C67
:104C0000D040CF55DF4F88819981C15AD04063E0B1
:104C100070E00E94BE28892BA1F5C355DF4F288183
:104C20003981CD5AD04022503109C355DF4F3983E5
:104C30002883CD5AD040C956DF4F48815981C75982
:104C4000D04042505109C956DF4F59834883C75954
:104C5000D0401416150644F061E070E0C956DF4FED
:104C600079836883C759D040CB55DF4F88819981BC
:104C7000C55AD040C296CB55DF4F99838883C55A19
:104C8000D04050E040E0B101AB968EAD9FADAB9708
:104C90000E945010A8969FADA897CC56DF4F9883DE
:104CA000C459D040CF55DF4F19830883C15AD04033
:104CB000312C212CA8961FAEA897C756DF4F6881CC
:104CC0007981C959D040663471050CF071CA6F5FA3
:104CD0007F4FC756DF4F79836883C959D040C95683
:104CE000DF4FE881F981C759D040E996EEACFFACBF
:104CF000E997EE15FF050CF041CB2E0104E6400EBE
:104D0000511C3E011CE4610E711C520110E000E0D8
:104D1000E7962EAD3FADE797235E3F4FE5963FAF59
:104D20002EAFE597AB964EAD5FADAB974F5F5F4F44
:104D3000C356DF4F59834883CD59D040ED966EADB1
:104D40007FADED976D5E7F4FCD54DF4F79836883E4
:104D5000C35BD040D5018C91882309F483C0F30153
:104D6000808191816C01FAE0CF0ED11CD301CD92EC
:104D7000DC92E6E4F0E0EC0FFD1FE00FF11FE080B5
:104D8000F18097012F5F3F4FA896BFADA897BB2337
:104D900009F49FCAAB96EEADFFADAB972E173F0758
:104DA0000CF497CAC356DF4F48815981CD59D04082
:104DB0004E155F050CF48DCAED966EAD7FADED9787
:104DC000C616D7060CF485CAAC0149505109CD541A
:104DD000DF4FA881B981C35BD040A417B5070CF49D
:104DE00078CA1092B30050E040E0ED966EAD7FAD12
:104DF000ED97AB968EAD9FADAB970E945010F5012D
:104E00001082E2E5F0E0EC0FFD1FE00FF11F27E05C
:104E100030E031832083A7014F505109A9965FAF3D
:104E20004EAFA997E8E5F0E0EC0FFD1FE00FF11F92
:104E300051834083EEE5F0E0EC0FFD1FE00FF11F22
:104E4000D182C08250E040E0B601C7010E947610D6
:104E5000B601A9968EAD9FADA9970E948815A89618
:104E60001FAEA8977FEFA71AB70A82E0680E711CE1
:104E70000E5F1F4F0630110509F06CCFE9961FAE8B
:104E80001EAEE99752C08EE190E0D8CD222309F4FE
:104E900035CAA896EFADA897EE2361F050E040E048
:104EA000ED966EAD7FADED97AB968EAD9FADAB97AA
:104EB0000E94501010E000E0D2018D912D01882356
:104EC000B9F0ECE4F0E0EC0FFD1FE00FF11F6081A2
:104ED000718150E040E0E6E4F0E0EC0FFD1FE00FF0
:104EE000F11F808191810E947610F201319710822A
:104EF0000E5F1F4F06301105F9F617BC1092B30074
:104F0000E9961FAE1EAEE997CC56DF4F1882C45902
:104F1000D040A8961FAEA89772E0872E912CCD5551
:104F2000DF4F19821882C35AD040CA57DF4FE8803A
:104F3000F980C658D040B1E0EB1AF108CA57DF4FEC
:104F4000E881F981C658D0403197C1F41092B3007E
:104F500022E130E04EE150E0C353DF4F6881CD5C89
:104F6000D040C253DF4F7881CE5CD040C156DF4F76
:104F700088819981CF59D0400E94C40A10E000E096
:104F8000E2E5F0E0EC0FFD1FE00FF11F8081918161
:104F90009C0121503109318320830197B1F4EEE562
:104FA000F0E0EC0FFD1FE00FF11F6081718122E145
:104FB00030E04EE150E0E8E5F0E0EC0FFD1FE00FDF
:104FC000F11F808191810E94C40A0E5F1F4F06303D
:104FD0001105B1F6CA57DF4FF982E882C658D040B2
:104FE000CB53DF4F08811981C55CD040E5961FAFD8
:104FF0000EAFE597E7964EAC5FACE797F4CA8F9299
:105000009F92AF92BF92CF92DF92EF92FF92CF9397
:10501000DF93EC01688179818A819B81611571053B
:105020008105910521F464E279ED8BE597E02DE1AE
:1050300033EF41E050E00E945B2849015A019B0197
:10504000AC01A7EAB1E40E947A286B017C01ACEEC6
:10505000B4EFA50194010E948828DC01CB018C0DDE
:105060009D1DAE1DBF1DB7FF03C00197A109B0482C
:1050700088839983AA83BB839F77DF91CF91FF9029
:10508000EF90DF90CF90BF90AF909F908F9008955A
:105090000E94FF27089580E091E00E94FF27089575
:1050A000B0E0A0E08093000190930101A093020181
:1050B000B09303010895052E97FB1EF400940E94FF
:1050C000722857FD07D00E948D2807FC03D04EF4AC
:1050D0000C94722850954095309521953F4F4F4F35
:1050E0005F4F089590958095709561957F4F8F4F94
:1050F0009F4F08950E94AF28A59F900DB49F900DDB
:10510000A49F800D911D11240895B7FF0C947A2857
:105110000E947A28821B930B0895A1E21A2EAA1BE3
:10512000BB1BFD010DC0AA1FBB1FEE1FFF1FA21757
:10513000B307E407F50720F0A21BB30BE40BF50B54
:10514000661F771F881F991F1A9469F760957095DD
:10515000809590959B01AC01BD01CF010895A29F60
:10516000B001B39FC001A39F700D811D1124911D3B
:10517000B29F700D811D1124911D089597FB072E7C
:1051800016F4009407D077FD09D00E94E12807FCAF
:1051900005D03EF4909581959F4F08957095619547
:1051A0007F4F08950E94AF28332312F48A1B9B0B74
:1051B0000C94DC280E94AF28B7FF0895821B930B44
:1051C0000895AA1BBB1B51E107C0AA1FBB1FA6174E
:1051D000B70710F0A61BB70B881F991F5A95A9F7A0
:1051E00080959095BC01CD010895EE0FFF1F0590AD
:1051F000F491E02D099481E090E0F8940C94192C3E
:10520000B0E0A0E0E6E0F9E20C94F22BAE014B5FD7
:105210005F4FFA0161917191AF0180910607909102
:1052200007070E946429E2E00C940E2C0F931F9351
:10523000CF93DF93E0910607F09107072381EC01FC
:1052400010E000E021FD08C00FEF1FEF14C009952A
:10525000892B11F00FEF1FEF899160910607709174
:105260000707DB011896ED91FC918111F0CF8AE0E0
:105270000995892B49F7C801DF91CF911F910F91B3
:105280000895AEE0B0E0E7E4F9E20C94F02B0D896C
:105290001E8986E08C831A8309838FEF9FE79E83A4
:1052A0008D83AE01475E5F4F6F89788DCE01019689
:1052B0000E9464292F813885020F131FF801108284
:1052C0002E96E4E00C940C2CABE0B0E0EAE6F9E2B8
:1052D0000C94E22B7C013B018A01FC0117821682AF
:1052E000838181FFC8C1CE0101965C01F7019381E2
:1052F000F30193FD859193FF81913F01882309F488
:1053000053C1853239F493FD859193FF81913F011B
:10531000853229F4B70190E00E94542BE7CF912CFD
:10532000212C312CFFE1F31538F08B3211F190F480
:10533000803209F1833229F137FC3CC020ED280F7F
:105340002A3050F536FE20C08AE0989E200D1124A8
:10535000922E06C08D3291F0803371F7689430F848
:10536000F30193FD859193FF81913F018111DACF84
:1053700021C0689431F8689432F8F2CF689433F819
:10538000EFCF689434F8ECCFEAE02E9E200D112484
:10539000222E689435F8E4CF8E3229F436FC04C10D
:1053A000689436F8DDCF8C3619F4689437F8D8CF86
:1053B0008836B1F2982F9F7D95549330E0F0833674
:1053C000A1F18337C1F1833509F063C02801F2E010
:1053D0004F0E511CF801C080D180692D70E036FC61
:1053E00002C06FEF7FEFC6010E943E2B4C01689414
:1053F00037F882010AC00C5F1F4FFFE3F98388244E
:105400008394912C6501E89437F833FE2DC0522C1B
:105410008114910471F5552009F468CFB70180E239
:1054200090E00E94542B5A94F6CFF8018081898332
:105430000E5F1F4FE4CF2801F2E04F0E511CF80120
:10544000C080D180692D70E036FC02C06FEF7FEF25
:10545000C6010E94492B4C018201D5CFB70180E2E1
:1054600090E00E94542B2A942814190409F0B0F7F4
:10547000CECFF60137FC859137FE81916F01B701E0
:1054800090E00E94542B51105A94F1E08F1A910829
:10549000BFCF843619F0893609F077C0F80137FE9E
:1054A0006BC060817181828193810C5F1F4FF32DEE
:1054B000FF763F2E97FF09C0909580957095619576
:1054C0007F4F8F4F9F4F689437F82AE030E0A50157
:1054D0000E94842BC82ECA188C2C432C36FE0CC07C
:1054E000E89440F8C91440F434FE05C032FC03C00F
:1054F000F32DFE7E4F2E892C44FE95C0FE01EC0D4F
:10550000F11D8081803309F087C0242D297E422E31
:10551000842D8870582E43FC95C040FE8FC09C2C73
:10552000821418F42C0C922C981844FE91C0B701E8
:1055300080E390E00E94542B42FE09C088E790E08F
:1055400041FE02C088E590E0B7010E94542BC914C7
:1055500008F48AC0CA94D12C9FEFC91AD90ACA0C80
:10556000DB1CF60182916F01B70190E00E94542B81
:10557000AC14BD04B1F74FCF60817181072E000CD0
:10558000880B990B0E5F1F4F92CFD32CE894D4F861
:105590002AE030E0853739F1232D297FD22E8F364E
:1055A00001F148F48835A9F0F701868197812B969F
:1055B000E2E10C94FE2B803749F08837A9F7D4FE3E
:1055C00002C06894D2F820E130E00DC06894D4F8AD
:1055D000F6CF34FE03C0822F8660D82E20E132E061
:1055E00002C028E030E0F801D7FE0FC06081718171
:1055F000828193810C5F1F4FA5010E94842BC82ECE
:10560000CA183D2CE89437F867CF6081718190E02B
:1056100080E00E5F1F4FF0CF42FC02C0839478CF32
:105620008394839475CF842D867809F471CFF6CF57
:10563000B70180E290E00E94542B83948214C0F35F
:10564000512C73CF522C5818821408F46ECFF8CF17
:10565000842D867809F47BCF8BE241FE80E247FC03
:105660008DE2B70190E071CFB70180E390E00E9436
:10567000542B9A946CCF8FEF9FEF99CFFC0105903C
:10568000615070400110D8F7809590958E0F9F1F44
:105690000895FC016150704001900110D8F7809589
:1056A00090958E0F9F1F08950F931F93CF93DF93B5
:1056B000182F092FEB018B8181FD09C01FEF0FEF20
:1056C000812F902FDF91CF911F910F91089582FF2D
:1056D00014C02E813F818C819D81281739073CF4AD
:1056E000E881F981CF0101969983888310838E81A7
:1056F0009F8101969F838E83E3CFE885F985812F73
:105700000995892BA1F3DACFFA01AA27283051F1A4
:10571000203181F1E8946F936E7F6E5F7F4F8F4FE2
:105720009F4FAF4FB1E03ED0B4E03CD0670F781F41
:10573000891F9A1FA11D680F791F8A1F911DA11D26
:105740006A0F711D811D911DA11D20D009F468945F
:105750003F912AE0269F11243019305D3193DEF607
:10576000CF010895462F4770405D4193B3E00FD0BD
:10577000C9F7F6CF462F4F70405D4A3318F0495DA8
:1057800031FD4052419302D0A9F7EACFB4E0A6958B
:105790009795879577956795BA95C9F700976105AD
:1057A000710508959B01AC010A2E06945795479503
:1057B00037952795BA95C9F7620F731F841F951FF8
:1057C000A01D08952F923F924F925F926F927F9209
:1057D0008F929F92AF92BF92CF92DF92EF92FF9201
:1057E0000F931F93CF93DF93CDB7DEB7CA1BDB0BAD
:1057F0000FB6F894DEBF0FBECDBF09942A88398852
:1058000048885F846E847D848C849B84AA84B98458
:10581000C884DF80EE80FD800C811B81AA81B98164
:10582000CE0FD11D0FB6F894DEBF0FBECDBFED0178
:065830000895F894FFCF7B
:10583600010000000402020101030202010110033B
:10584600BA029302FA00FA00FA0041000000620070
:10585600000083000000C40000002C0130022C016F
:1058660030022C0130022C013002B8015D010B021E
:105876000000E803E803E803E803000000001F0F48
:105886007C06C812C7125B08F30BC10B580BD70A6C
:10589600180B1A12D90C750C3E085609C709380A96
:1058A60016119E10F10F3916DC07496E697469618D
:1058B6006C697365642055534152542100496E69E1
:1058C6007469616C697365642054696D65727321CE
:1058D60000496E697469616C69736564204144436B
:1058E6002100496E697469616C697365642053505F
:1058F600492100496E697469616C69736564204465
:105906006973706C6179210044657669636520640A
:105916006973636F7665726564206F6E20307825D3
:10592600780A00496E697469616C69736564204C14
:1059360043442100507265737320427574746F6E10
:1059460020746F0053746172742074686520476117
:105956006D652100537461727465642070726F679F
:1059660072616D210053636F72653A20256C750074
:105976004C697665733A20256400476F20746F2062
:105986004D656E750053746172742047616D6500D4
:0A59960047616D65204F76657200D1
:00000001FF
