:100000000C94EF020C9488120C9417030C941703B1
:100010000C9417030C9417030C9417030C943F12C1
:100020000C9417030C9417030C9417030C9451129F
:100030000C9417030C9417030C9476120C9417036A
:100040000C9417030C9417030C9417030C941703C8
:100050000C9417030C9417030C9417030C941703B8
:100060000C9417030C9417030901809611800A3A27
:1000700081550A3601082A04000000F02B04000014
:10008000014021800A13800A29800A000000000034
:100090003E5B4F5B3E3E6B4F6B3E1C3E7C3E1C18F6
:1000A0003C7E3C181C577D571C1C5E7F5E1C001854
:1000B0003C1800FFE7C3E7FF0018241800FFE7DB48
:1000C000E7FF30483A060E2629792926407F0505A4
:1000D00007407F05253F5A3CE73C5A7F3E1C1C08E1
:1000E000081C1C3E7F14227F22145F5F005F5F06A6
:1000F000097F017F006689956A606060606094A2F4
:10010000FFA29408047E040810207E201008082A0C
:100110001C08081C2A08081E101010100C1E0C1EAB
:100120000C30383E3830060E3E0E0600000000004F
:1001300000005F00000007000700147F147F1424F4
:100140002A7F2A1223130864623649562050000879
:10015000070300001C2241000041221C002A1C7FD2
:100160001C2A08083E0808008070300008080808AB
:1001700008000060600020100804023E5149453E1E
:1001800000427F400072494949462141494D331898
:1001900014127F1027454545393C4A4949314121D0
:1001A0001109073649494936464949291E000014B4
:1001B00000000040340000000814224114141414FC
:1001C00014004122140802015909063E415D594EAE
:1001D0007C1211127C7F494949363E414141227FC0
:1001E0004141413E7F494949417F090909013E4159
:1001F0004151737F0808087F00417F410020404142
:100200003F017F081422417F404040407F021C0292
:100210007F7F0408107F3E4141413E7F0909090666
:100220003E4151215E7F0919294626494949320339
:10023000017F01033F4040403F1F2040201F3F40BF
:1002400038403F6314081463030478040361594978
:100250004D43007F414141020408102000414141CB
:100260007F040201020440404040400003070800B0
:1002700020545478407F2844443838444444283833
:100280004444287F385454541800087E090218A4A6
:10029000A49C787F0804047800447D4000204040FE
:1002A0003D007F1028440000417F40007C0478041A
:1002B000787C080404783844444438FC1824241812
:1002C00018242418FC7C08040408485454542404BA
:1002D000043F44243C4040207C1C2040201C3C40E7
:1002E00030403C44281028444C9090907C44645406
:1002F0004C440008364100000077000000413608F9
:100300000002010204023C2623263C1EA1A1611228
:100310003A4040207A385454555921555579412254
:1003200054547842215554784020545579400C1E3D
:1003300052721239555555593954545459395554E6
:1003400054580000457C410002457D420001457C37
:10035000407D1211127DF0282528F07C545545006F
:100360002054547C547C0A097F4932494949323A25
:100370004444443A324A4848303A4141217A3A4268
:10038000402078009DA0A07D3D4242423D3D40403E
:10039000403D3C24FF2424487E4943662B2FFC2FFC
:1003A0002BFF0929F620C0887E0903205454794187
:1003B0000000447D413048484A32384040227A00AB
:1003C0007A0A0A727D0D19317D2629292F282629BE
:1003D00029292630484D4020380808080808080810
:1003E00008382F10C8ACBA2F102834FA00007B0050
:1003F0000008142A142222142A1408550055005506
:10040000AA55AA55AAFF55FF55FF000000FF00108E
:100410001010FF00141414FF001010FF00FF101044
:10042000F010F0141414FC001414F700FF0000FF87
:1004300000FF1414F404FC141417101F10101F10E4
:100440001F1414141F00101010F0000000001F10E3
:100450001010101F10101010F010000000FF1010EE
:1004600010101010101010FF10000000FF140000FA
:10047000FF00FF00001F10170000FC04F414141705
:1004800010171414F404F40000FF00F714141414EB
:10049000141414F700F7141414171410101F101F5D
:1004A000141414F4141010F010F000001F101F00AA
:1004B00000001F14000000FC140000F010F01010E9
:1004C000FF10FF141414FF141010101F0000000080
:1004D000F010FFFFFFFFFFF0F0F0F0F0FFFFFF0074
:1004E00000000000FFFF0F0F0F0F0F384444384487
:1004F000FC4A4A4A347E02020606027E027E0263FB
:10050000554941633844443C04407E201E20060285
:100510007E020299A5E7A5991C2A492A1C4C720162
:10052000724C304A4D4D303048784830BC625A46A3
:100530003D3E494949007E0101017E2A2A2A2A2A94
:1005400044445F444440514A444040444A5140007E
:1005500000FF0103E080FF000008086B6B08361203
:10056000362436060F090F06000018180000001088
:1005700010003040FF0101001F01011E00191D176E
:1005800012003C3C3C3C0000000000000000002445
:100590000027002A0000000000250028002B00048E
:1005A000040404040404040202020202020303031A
:1005B0000303030102040810204080010204081014
:1005C00020010204081020000000080002010000C1
:1005D0000304070000000000000000009C1211242A
:1005E0001FBECFEFD8E0DEBFCDBF23E0AAE8B3E067
:1005F00001C01D92A23FB207E1F713E0A0E0B1E015
:10060000E2E0F5E302C005900D92AA38B107D9F7F0
:1006100012E0CFEED2E004C02197FE010E947E17C7
:10062000CE3ED107C9F70E9447130C947F1A0C9451
:100630000000CF93DF93EC0180EA93E0FC0122817C
:1006400033813B832A832CE332E03983288324815E
:1006500035813D832C83268137813F832E832085FE
:10066000318539872887228533853B872A872485EA
:1006700035853D872C87268537853F872E872089BE
:100680003189398B288B228933893B8B2A8B2489AA
:100690002C8B25892D8B26892E8B27892F8B208DBE
:1006A000288F218D328D3A8F298F28E632E03983C9
:1006B0002883238D348D3C8F2B8F258D368D3E8F57
:1006C0002D8F22E1EFEBF3E0DE015F9601900D92BA
:1006D0002A95E1F7FC0121A929AB22A92AAB23A97C
:1006E0002BAB24A92CAB25A92DAB26A92EAB27A972
:1006F0002FAB20AD28AF21AD32AD3AAF29AF23AD3E
:1007000034AD3CAF2BAF25AD2DAF86AD8EAF809114
:10071000DF039091E003A091E103B091E203EF9633
:1007200088839983AA83BB83DF91CF91089590E05A
:10073000FC01E953FA4F2491FC01ED54FA4F349136
:10074000FC01E156FA4FE491EE23C9F0222339F07F
:10075000233001F1A8F4213019F1223029F1F0E021
:10076000EE0FFF1FEB56FA4FA591B4918FB7F89497
:10077000EC91611126C030953E233C938FBF0895C4
:100780002730A9F02830C9F0243049F78091800043
:100790008F7D03C0809180008F7780938000DFCFB2
:1007A00084B58F7784BDDBCF84B58F7DFBCF8091FF
:1007B000B0008F778093B000D2CF8091B0008F7D52
:1007C000F9CF3E2BDACFCF93DF9390E0FC01ED54CD
:1007D000FA4F249181569A4FFC0184918823D1F0DD
:1007E00090E0880F991FFC01E557FA4FA591B4914D
:1007F000FC01EB56FA4FC591D49161110EC09FB721
:10080000F8948C91E22FE0958E238C932881E2233B
:10081000E8839FBFDF91CF9108958FB7F894EC9153
:10082000E22BEC938FBFF6CFAF92BF92CF92DF92C5
:10083000EF92FF920F931F93CF93DF936C017B0195
:100840008B01040F151FEB015E01AE18BF08C01726
:10085000D10759F06991D601ED91FC910190F08199
:10086000E02DC6010995892B79F7C501DF91CF915C
:100870001F910F91FF90EF90DF90CF90BF90AF90BE
:100880000895FC01A5A1B6A18C9192A589238C9312
:10089000A5A1B6A18C9191A5892B8C930895DC011B
:1008A0009396ED91FC919497908198968C918923E1
:1008B00080830895DC019396ED91FC91949790814B
:1008C00097968C91892B80830895DC019196ED9108
:1008D000FC919297908196968C91892380830895BC
:1008E000DC019196ED91FC919297908195968C9177
:1008F000892B80830895CF92DF92EF92FF921F930E
:10090000CF93DF93EC016A017B018DA9811123C094
:100910008F2D9927AA27BB278EBD0DB407FEFDCFCB
:10092000C701AA27BB278EBD0DB407FEFDCFBB278D
:10093000AF2D9E2D8D2D8EBD0DB407FEFDCFCEBCEF
:100940000DB407FEFDCFDF91CF911F91FF90EF9087
:10095000DF90CF9008958130B1F410E2CE01F7FE20
:100960000FC00E947004CE010E945A04CE010E9462
:100970004F04CC0CDD1CEE1CFF1C115079F7E3CFAB
:100980000E946504F0CFEF8DF8A18F2D9927AA273B
:10099000BB278083CE010E944104EF8DF8A1C701DF
:1009A000AA27BB278083CE010E944104EF8DF8A1C6
:1009B000BB27AF2D9E2D8D2D8083CE010E9441043B
:1009C000EF8DF8A1C082CE01DF91CF911F91FF90F2
:1009D000EF90DF90CF900C944104FF920F931F9300
:1009E000CF93DF93EC018B018DA981110EC01EBD49
:1009F0000DB407FEFDCF0EBD0DB407FEFDCFDF9198
:100A0000CF911F910F91FF9008958130B1F490E143
:100A1000F92ECE0117FF0EC00E947004CE010E9475
:100A20005A04CE010E944F04000F111FFA94F110D6
:100A3000F0CFE5CF0E946504F1CFEF8DF8A11083D0
:100A4000CE010E944104EF8DF8A10083CE01DF9119
:100A5000CF911F910F91FF900C9441040F931F931E
:100A6000CF93DF93EC01162F8DA9811109C06EBDC4
:100A70000DB407FEFDCFDF91CF911F910F91089527
:100A8000813099F408E0CE0117FF0CC00E94700479
:100A9000CE010E945A04110FCE010E944F04015052
:100AA00091F7E9CF0E946504F3CFEF8DF8A1608341
:100AB000CE01DF91CF911F910F910C944104CF9300
:100AC000DF93EC01ED8DFE8D80819CA989238083CD
:100AD000CE010E942E05ED8DFE8D80819BA9892B74
:100AE0008083DF91CF9108958F929F92AF92BF92B2
:100AF000CF92DF92EF92FF920F931F93CF93DF93EA
:100B0000EC0189AD9AAD680F791F8BAD9CAD480F94
:100B1000591F21503109260F371F4901B12CA12C33
:100B2000CB01B0E0A0E0DC0199278827882A992A28
:100B3000AA2ABB2A680181E0C81AD108C40ED51EB2
:100B4000F12CE12C70E060E0BA0155274427C42A5B
:100B5000D52AE62AF72A6AE2CE010E945F05B5018E
:100B6000A401CE010E947B046BE2CE010E945F05CE
:100B7000B701A601CE010E947B046CE2CE01DF9199
:100B8000CF911F910F91FF90EF90DF90CF90BF908A
:100B9000AF909F908F900C945F05FC0185A9811107
:100BA00004C091A182A19CBD8DBD08951F93CF93D8
:100BB000DF93EC01162FE881F9810284F385E02DA3
:100BC0000995112371F06DADCE010E945F05E8819A
:100BD000F9810688F789E02DCE01DF91CF911F9131
:100BE00009946EADF1CFAF92BF92CF92DF92EF92A8
:100BF000FF920F931F93CF93DF93EC0177FD38C0E3
:100C000088859985681779079CF557FD31C08A85D5
:100C10009B854817590764F569017A015B01E881F2
:100C2000F9810284F385E02DCE010995E881F981EF
:100C300002A4F3A5E02D01E010E021E030E0A701DF
:100C4000B501CE010995B601CE010E94ED04E881FF
:100C5000F9810688F789E02DCE01DF91CF911F91B0
:100C60000F91FF90EF90DF90CF90BF90AF900994DD
:100C7000DF91CF911F910F91FF90EF90DF90CF9078
:100C8000BF90AF9008958F929F92AF92BF92CF92F4
:100C9000DF92EF92FF920F931F93CF93DF93EC01BC
:100CA00049015701E881F98102A4F3A5E02D0995D6
:100CB0009401D8010E943E176B017C01C114D1043C
:100CC000E104F10409F47DC08DA9811115C081E012
:100CD000C81AD108E108F1088FEFC816D806E8064F
:100CE000F80609F46EC0BEBC0DB407FEFDCFAEBC65
:100CF0000DB407FEFDCFEBCF813099F581E0C81A26
:100D0000D108E108F1088FEFC816D806E806F80602
:100D100009F457C00B2D18E0CE0107FF1CC00E943C
:100D20007004CE010E945A04CE010E944F04000FAD
:100D3000115091F70A2D18E0CE0107FF0FC00E9455
:100D40007004CE010E945A04CE010E944F04000F8D
:100D5000115091F7D3CF0E946504E3CF0E94650440
:100D6000F0CFBA1016C0CC0CDD1CEE1CFF1CEF8DB2
:100D7000F8A1B08281E0C81AD108E108F1088FEF2C
:100D8000C816D806E806F806E1F0CE010E94410434
:100D9000F1CF81E0C81AD108E108F1088FEFC81639
:100DA000D806E806F80669F0EF8DF8A1B082CE010A
:100DB0000E944104EF8DF8A1A082CE010E9441045F
:100DC000E8CFDF91CF911F910F91FF90EF90DF90CF
:100DD000CF90BF90AF909F908F9008958F929F92E9
:100DE000AF92BF92CF92DF92EF92FF920F931F9339
:100DF000CF93DF935C014B016A01E90177FD52C09B
:100E0000DC0118968D919C91681779070CF04AC007
:100E1000209709F447C037FF07C0C9010196C80EE3
:100E2000D91ED195C195D109F50182859385C81642
:100E3000D906C4F5A6014C0F5D1F9A012150310956
:100E400037FD30C0D7FE03C0EA01D12CC12C2817D2
:100E500039071CF0EC01CC19DD09D501ED91FC91AD
:100E60000284F385E02DC501099578018E0121E00A
:100E700030E0A601B401C5010E944306D501ED9101
:100E8000FC910688F789E02DC501DF91CF911F9174
:100E90000F91FF90EF90DF90CF90BF90AF909F9019
:100EA0008F900994DF91CF911F910F91FF90EF9058
:100EB000DF90CF90BF90AF909F908F9008958F92CA
:100EC0009F92AF92BF92CF92DF92EF92FF920F93D9
:100ED0001F93CF93DF935C016B014A01E90157FD3A
:100EE00052C0DC011A968D919C91481759070CF05D
:100EF0004AC0209709F447C037FF07C0C9010196CF
:100F0000C80ED91ED195C195D109F501808591856D
:100F1000C816D906C4F5A6014C0F5D1F9A012150D1
:100F2000310937FD30C0D7FE03C0EA01D12CC12CF6
:100F3000281739071CF0EC01CC19DD09D501ED911A
:100F4000FC910284F385E02DC5010995780101E04B
:100F500010E09E01A401B601C5010E944306D5011F
:100F6000ED91FC910688F789E02DC501DF91CF91C5
:100F70001F910F91FF90EF90DF90CF90BF90AF90B7
:100F80009F908F900994DF91CF911F910F91FF90C7
:100F9000EF90DF90CF90BF90AF909F908F9008958B
:100FA0008F929F92AF92BF92CF92DF92EF92FF9279
:100FB0000F931F93CF93DF934C016B015A01E9010B
:100FC000209709F46CC00115110509F468C037FFBA
:100FD00007C0C9010196C80ED91ED195C195D10986
:100FE000F401A085B185CA16DB060CF058C017FFC6
:100FF00007C0C8010196A80EB91E119501951109E7
:10100000F40182859385A816B9060CF048C0F60154
:10101000EC0FFD1FAF014150510957FD40C0B50114
:10102000600F711F9B012150310937FD38C0D7FE79
:1010300003C0EF01D12CC12CB7FE03C08B01B12C32
:10104000A12C4A175B071CF0ED01CC19DD0928170C
:1010500039071CF08C010A191B09D401ED91FC9190
:101060000284F385E02DC40109959E01A501B60116
:10107000C4010E944306D401ED91FC910688F789D2
:10108000E02DC401DF91CF911F910F91FF90EF9060
:10109000DF90CF90BF90AF909F908F900994DF9199
:1010A000CF911F910F91FF90EF90DF90CF90BF9065
:1010B000AF909F908F900895EF92FF920F931F93A0
:1010C000CF93DF9377FD32C0DC011896ED91FC9150
:1010D0006E177F075CF52115310541F137FF07C019
:1010E000F90131964E0F5F1F319521953109DC01D1
:1010F0001A96ED91FC914E175F07C4F4EA01C20FF6
:10110000D31FDE011197B7FD11C057FF03C09E0129
:1011100050E040E0AE17BF071CF09F01241B350BC9
:101120007801890121E030E00E944306DF91CF91F0
:101130001F910F91FF90EF900895EF92FF920F9300
:101140001F93CF93DF9357FD31C0DC011A96ED91C9
:10115000FC914E175F0754F52115310539F137FF22
:1011600007C0F90131966E0F7F1F31952195310926
:10117000DC011896ED91FC916E177F07BCF4EB0132
:10118000C20FD31FDE011197B7FD10C077FF03C058
:101190009E0170E060E0AE17BF071CF09F01261BA8
:1011A000370B780101E010E00E944306DF91CF91F8
:1011B0001F910F91FF90EF9008958F929F92AF92A1
:1011C000BF92CF92DF92EF92FF920F931F93CF9334
:1011D000DF9347012115310509F44BC001151105B5
:1011E00009F447C037FF07C0F90131966E0F7F1F22
:1011F000319521953109DC011896AD90BC906A15A6
:101200007B05BCF517FF07C0F80131964E0F5F1F35
:10121000119501951109DC011A96ED91FC914E177B
:101220005F073CF56B01C20ED31EE6012197D7FD87
:1012300020C07A01E00EF11ED7011197B7FD19C049
:1012400077FF03C0960170E060E057FF03C087019D
:1012500050E040E0CA15DB051CF09501261B370B5A
:10126000AE17BF071CF08F01041B150B74010E9401
:101270004306DF91CF911F910F91FF90EF90DF9088
:10128000CF90BF90AF909F908F900895EF92FF9274
:101290000F931F93CF93DF93EC0177FD22C08885D6
:1012A000998568177907ECF457FD1BC08A859B85E3
:1012B00048175907B4F47901E881F98102A4F3A52C
:1012C000E02D01E010E021E030E0CE010995B7010A
:1012D000CE01DF91CF911F910F91FF90EF900C9471
:1012E000ED04DF91CF911F910F91FF90EF90089542
:1012F000CF93DF93EC010E94CD058FA987FD06C037
:10130000EB8DFC8D80819AA989238083DF91CF9119
:10131000089508950F931F93CF93DF93EC018B01F2
:101320000E94CD058FA987FD06C0EB8DFC8D8081C5
:101330009AA989238083ED8DFE8D80819CA98923C4
:10134000808366E3CE010E942E05ED8DFE8D8081A7
:101350009BA9892B80838DA9F801823091F060814F
:10136000CE010E942E058FA987FD06C0EB8DFC8D56
:10137000808199A9892B8083DF91CF911F910F9153
:10138000089588A9882359F360817181CE010E9454
:10139000ED04E9CFCF93DF931F92CDB7DEB7FC0109
:1013A00019826370668BDC01AD5BBF4F2C9130E01E
:1013B00011968C9190E0623031F06330C9F0613069
:1013C00081F040EC498332AF21AF94AF83AFBE01CF
:1013D0006F5F7F4FCF010E948A090F90DF91CF91FD
:1013E000089540EA498334AF23AF92AF81AFEFCF86
:1013F00040E6F8CF0F931F93CF93DF931F92CDB7A3
:10140000DEB7FC0119826370668BDC01A85BBF4FFD
:101410002D913C91119712968D919C916230D1F152
:10142000633009F440C08F010C5B1F4F6130F9F04D
:1014300040EC4983AF014D5B5F4FDA014C9150E0C6
:1014400052AF41AFD8014C9150E054AF43AF318718
:10145000208793878287BE016F5F7F4FCF010E94F5
:101460008A090F90DF91CF911F910F91089540EA63
:101470004983D8014C9150E052AF41AFDF01AA5BE4
:10148000BF4F4C9150E054AF43AF338722879187D1
:101490008087E1CFDF01AA5BBF4F4C9150E052AF94
:1014A00041AF1196D0CF40E64983DF01A95BBF4F22
:1014B0004C9150E052AF41AF1497E3CFFC0187A9A4
:1014C00087FD06C0A38DB48D9C9181A9892B8C9337
:1014D00008950895FC016370668B8481958126814F
:1014E0003781613039F0633029F091878087338705
:1014F00022870895318720879387828708952F92C6
:101500003F924F925F926F927F928F929F92AF9293
:10151000BF92CF92DF92EF92FF920F931F93CF93E0
:10152000DF93CDB7DEB76A970FB6F894DEBF0FBE74
:10153000CDBF9A8F898F7A8369834A01D22E18870B
:101540000F833701BC2CDC0159962D913C915A97A1
:101550002115310509F015C118968D919C911997A7
:10156000681779070CF0D7C11A968D919C9148178E
:1015700059070CF0D0C14C2C512CB6E0CB9E600D1D
:10158000711D11247C876B87161617060CF0C3C1DA
:10159000EA2DF0E0FA87E98793E0EE0FFF1F9A95B6
:1015A000E1F7F88BEF87CF01840F951F1816190606
:1015B0000CF0B1C1A98DBA8D58968C91811104C0DF
:1015C000BFEABD1508F4D394A98DBA8DED91FC91B5
:1015D00011970284F385E02DCD010995B5E0DB9EDE
:1015E000C0011124E981FA81FC83EB83312C212C89
:1015F0009C0125573F4F388F2F8B4A2D50E05E8B33
:101600004D8BEF89F88DE20DF31D44919E828D8202
:10161000D12CC12C69817A81620D731D7A8B698B03
:10162000842F90E09C8B8B8BE98DFA8DA081B1810A
:1016300040FF82C0F1E0BF126FC0AF126DC01C96B8
:10164000ED91FC912F813885A4014C0D5D1D6989B8
:101650007A89898D9A8D0995EB89FC89F595E795AD
:101660004E2F5FEFC51AD50A6D817E818D899E89C7
:10167000680F791F7E836D8398E0C916D10481F6C7
:10168000AFEF2A1A3A0AEB81FC81E40DF51DFC83C9
:10169000EB83F5E02F16310409F0B3CF2F813885A5
:1016A00026153705B9F0A98DBA8DED91FC91B1E001
:1016B000BB1257C0AB1255C069817A816B5F7F4FF7
:1016C0000088F189E02D830128E030E0A401898DB4
:1016D0009A8D0995A98DBA8DED91FC911197068887
:1016E000F789E02DCD016A960FB6F894DEBF0FBEE4
:1016F000CDBFDF91CF911F910F91FF90EF90DF90C1
:10170000CF90BF90AF909F908F907F906F905F90A1
:101710004F903F902F9009941E96ED91FC91EF8091
:10172000F88409851A8592014D815E816B817C81E7
:10173000898D9A8D099590CF2F813885261537058B
:1017400009F48ACF31E0B31207C0A31205C01C967A
:10175000ED91FC91930178CF1E96ED91FC91730170
:10176000E0CF6B857C85641975090684F785E02DCB
:1017700073010F8518899201A401898D9A8D0995AD
:10178000A9CFF90134969491329745915491D91A81
:10179000B7E0DB9E400D511D1124F90125913491D4
:1017A0003C8B2B8BFA0125903490FA013296749081
:1017B00031963491398B329664903196449041E061
:1017C0004C1518F04A1508F07FC0662D062C000C49
:1017D000770B7C836B83842D042C000C990B9E83E8
:1017E0008D83A98DBA8DED91FC9111970284F385BB
:1017F000E02DCD010995512CD12CC12CEA2DF0E022
:10180000FA87E9872B2D30E03C872B87A401440D14
:10181000511D47FC5A95588F4F8B69817A81660D0F
:10182000711D67FC7A957E876D877989C71608F0E8
:1018300051CF2C2D30E04D815E81420F531FA98581
:10184000BA854A9FC0014B9F900D5A9F900D11245D
:10185000FC01E80DF91DF88BEF87852D612C4F8970
:10186000588D420F531F5E8B4D8B671408F050C08C
:1018700044244394480E877041F4C1010196EB89DA
:10188000FC89E20DF31DD4901C01D7FE19C0A98D6F
:10189000BA8DED91FC91662D70E0B1E0BB1219C0DC
:1018A000AB1217C02D853E85620F731F0484F5852A
:1018B000E02D2F8138854D895E89898D9A8D099516
:1018C000DD0C6394842DD1CF1E821D821C821B826D
:1018D00088CF4B815C81640F751FAB85BC856A9F87
:1018E000C0016B9F900D7A9F900D112469817A81C0
:1018F000680F791F0684F785E02DEF80F88409854D
:101900001A859D014F855889898D9A8D0995D8CF63
:10191000570CC3948ACF6A960FB6F894DEBF0FBEF9
:10192000CDBFDF91CF911F910F91FF90EF90DF908E
:10193000CF90BF90AF909F908F907F906F905F906F
:101940004F903F902F9008958F929F92AF92CF9299
:10195000EF92FF920F931F93CF93DF93EC01262F0B
:10196000898D9A8D009709F051C06A30D1F41D8697
:101970001C868D8948E0849F900111248E859F8567
:10198000820F931F9F878E8781E090E0DF91CF9138
:101990001F910F91FF90EF90CF90AF909F908F90FD
:1019A00008956D3089F3CC88AD888F898823C1F084
:1019B0008C859D8536E0C39E800D911D1124488540
:1019C00059854817590764F44E855F851D861C8626
:1019D00038E0A39EC0011124840F951F9F878E8736
:1019E000EA88FB88088919894E855F856C857D8525
:1019F000CE010E947F0A2C898C859D8546E0249F1C
:101A0000800D911D11249D878C87BECF6A3069F4AB
:101A10001D861C86FC013896E4912D898E859F8554
:101A2000E29F800D911D1124ADCF6D3009F4ACCF34
:101A3000FC0134963491631708F4A6CF3296E491F2
:101A4000E61708F4A1CFFC01329685909490462FBA
:101A5000431B342F47E0349F800C911C1124F40168
:101A6000329634913196E4913323A9F1EE2399F122
:101A7000CC88F4013596E491AD884F89442301F177
:101A80000E2E000CFF0BE30FF11DCE9EA001CF9E8A
:101A9000500D11246C857D85460F571F688579850B
:101AA000641775076CF44E855F851D861C86FC01E6
:101AB0003896E491AE9E400D511D11245F874E87EC
:101AC000EA88FB88088919894E855F856C857D8544
:101AD000CE010E947F0AF4013496E4912C898C8512
:101AE0009D85E29F800D911D11248DCF6F927F9275
:101AF0008F929F92AF92BF92CF92DF92EF92FF921E
:101B00000F931F93CF93DF93EC016B015A013901BF
:101B10004801E881F9810284F385E02D0995E88187
:101B2000F9810288F389E02D87019301A501B601AF
:101B3000CE010995A501480D591D41505109E88173
:101B4000F9810288F389E02D9301B601CE01099550
:101B5000E881F9810088F189E02D9401A501B601A1
:101B6000CE010995C60CD71CB60161507109E881F8
:101B7000F9810088F189E02D9401A501CE01099534
:101B8000E881F9810688F789E02DCE01DF91CF91B8
:101B90001F910F91FF90EF90DF90CF90BF90AF908B
:101BA0009F908F907F906F9009946F927F928F9209
:101BB0009F92AF92BF92CF92DF92EF92FF920F93DC
:101BC0001F93CF93DF935C01EB016A014901380158
:101BD0008701DC01ED91FC916217730719F564161A
:101BE00075062CF0962D872D3A01C92ED82E960118
:101BF000261937092F5F3F4F048CF58DE02DA30187
:101C0000BE01C5010995DF91CF911F910F91FF9002
:101C1000EF90DF90CF90BF90AF909F908F907F908C
:101C20006F9008954615570591F42617370724F04D
:101C3000892D4B01C22FD82F9E01281939092F5FFA
:101C40003F4F068CF78DE02DA601B401DACF028458
:101C5000F385E02D0995D501ED91FC910488F58976
:101C6000E02D83019401A601BE01C5010995D501AE
:101C7000ED91FC910688F789E02DC501DF91CF91A8
:101C80001F910F91FF90EF90DF90CF90BF90AF909A
:101C90009F908F907F906F900994EF92FF920F9397
:101CA0001F93DC011A960D911C911B9718962D918C
:101CB0003C911997ED91FC9100A0F1A1E02D7B01E1
:101CC00050E040E070E060E009951F910F91FF90B7
:101CD000EF9008954F925F926F927F928F929F92B2
:101CE000AF92BF92CF92DF92EF92FF920F931F932A
:101CF000CF93DF936C012B015A0139014801DC01BC
:101D0000ED91FC910284F385E02D0995E201640CCC
:101D1000751CD601ED91FC91C615D7055CF40088C1
:101D2000F189E02D87019401A501BE01C601099545
:101D30002196EFCF0688F789E02DC601DF91CF917C
:101D40001F910F91FF90EF90DF90CF90BF90AF90D9
:101D50009F908F907F906F905F904F9009948F929B
:101D60009F92AF92BF92CF92DF92EF92FF920F932A
:101D70001F93CF93DF93EC015B014A016901E88176
:101D8000F9810284F385E02D099595012C0D3D1D07
:101D900021503109E881F9810488F589E02D780125
:101DA0008401A401B501CE010995E881F981068875
:101DB000F789E02DCE01DF91CF911F910F91FF9018
:101DC000EF90DF90CF90BF90AF909F908F9009944D
:101DD0008F929F92AF92BF92CF92DF92EF92FF923B
:101DE0000F931F93CF93DF93EC015B014A016901CD
:101DF0007801E881F9810284F385E02D0995C80C0A
:101E0000D91C860101501109E881F9810488F589FE
:101E1000E02D9501A401B501CE010995E881F98174
:101E20000688F789E02DCE01DF91CF911F910F91A8
:101E3000FF90EF90DF90CF90BF90AF909F908F90EA
:101E400009940895EF92FF920F931F93DC01ED9197
:101E5000FC9100A0F1A1E02D09951F910F91FF9039
:101E6000EF9008950F931F93DC01ED91FC91068C88
:101E7000F78DE02D09951F910F9108950F931F93F2
:101E8000DC01ED91FC91048CF58DE02D09951F91FD
:101E90000F910895DC01ED91FC910084F185E02D16
:101EA00009942F923F924F925F926F927F928F92FE
:101EB0009F92AF92BF92CF92DF92EF92FF920F93D9
:101EC0001F93CF93DF9300D000D000D0CDB7DEB703
:101ED0003C016A013E832D83FC82EB825801A41AE7
:101EE000B50AB7FE03C0B194A194B1088D809E805D
:101EF000861A970A97FE03C09194819491088A14D8
:101F00009B045CF0902F812F0D811E819D838E8319
:101F10009C2D8D2D6B01692F782F0C151D055CF004
:101F20009D818E817E836D83692F782F902F812FE5
:101F30008601C92ED82E1601201A310A2B012D81B7
:101F40003E81421A530A57FE03C0519441945108EE
:101F5000710137FE03C03FEFE31AF30AF594E794EB
:101F60008D819E81861797075CF5A1E0B0E0BA836A
:101F7000A983C016D1064CF1D301ED91FC910484E4
:101F8000F585E02D2B813C81A8016D817E818A142D
:101F90009B041CF04D815E81B801C3010995E418D2
:101FA000F508F7FE0AC02D813E8189819A81280FAC
:101FB000391F3E832D83E20CF31C0F5F1F4FD9CFD7
:101FC0002FEF3FEF3A832983D4CF26960FB6F894AC
:101FD000DEBF0FBECDBFDF91CF911F910F91FF905C
:101FE000EF90DF90CF90BF90AF909F908F907F90B9
:101FF0006F905F904F903F902F900895CF93CFB701
:10200000F89480919F03811127C0E9EAF5E084915B
:10201000EDEBF5E09491E82FF0E0EE0FFF1FE557B0
:10202000FA4FA591B491EC91E92321F461E08AE0A3
:102030000E94970361E08AE00E94E3038CB580610F
:102040008CBD8CB580648CBD61E08DE00E94E303A3
:1020500061E08BE00E94E30380919F038F5F809398
:102060009F03CFBFCF910895CF93C82F8A3019F423
:102070008DE00E9434108091C00085FFFCCFC0939A
:10208000C60090E080E0CF9108958093BB0084EC7F
:102090008093BC008091BC0087FFFCCF0895089519
:1020A00090E080E0089570E060E00C944D0E909117
:1020B0007C00907E90937C0090917C00892B809393
:1020C0007C0080917A00806480937A0080917A000D
:1020D00084FFFCCF809178009091790008950E9450
:1020E0008417CF93DF93C82FD62F84EA8093BC0048
:1020F0008091BC0087FFFCCF8EE40E944510CD2B61
:10210000DC2FD8608D2F0E9445108C2F8C600E9490
:1021100045108D2F0E94451084E98093BC0087EC08
:1021200090E00197F1F700C00000DF91CF91089592
:10213000CF93C82F61E0807F0E94711061E08C2FE7
:102140008295807F0E94711087EC90E00197F1F7F3
:1021500000C00000CF910895CF93DF93EC018991E7
:10216000882319F00E949810FACFDF91CF9108953B
:10217000CF93C82F60E0807F0E94711060E08C2FA9
:102180008295807F0E9471108FE39FE10197F1F7A4
:1021900000C00000CF910895CF92DF92EF92FF929E
:1021A0000F931F93CF93DF93EC016A017B01C1145E
:1021B000D104E104F10439F4C12C28E4D22E28EE34
:1021C000E22EFF24F394FE01FF96C082D182E282C8
:1021D000F38281E28DAF80E28EAF369610818FA9B7
:1021E00087FD07C061E00E94E30361E08FA90E94C0
:1021F000970361E088AD0E94E30361E088AD0E942F
:1022000097038DA981115BC040E052E16AE770E05D
:10221000C416D506E606F70640F4769567955795F9
:1022200047958F5F8630A1F787E0212F2C702065BE
:10223000982F9695922B99A3809581708AA3812FD0
:1022400090E0B0E0A0E08BA39CA3ADA3BEA30E944E
:10225000FE0F8EA987FD2AC061E00E94E30361E0C2
:102260008EA90E9497032FEF81EE94E021508040C9
:102270009040E1F700C0000060E08EA90E94970343
:10228000EFEFF1EE24E0E150F0402040E1F700C034
:10229000000061E08EA90E9497038FEF93ECE9E0C4
:1022A00081509040E040E1F700C00000DF91CF9105
:1022B0001F910F91FF90EF90DF90CF9008950FE95D
:1022C00015E0F12C8130B9F461E08AA50E94E303A6
:1022D00060E08AA50E94970361E08CA50E94E30359
:1022E00060E08CA50E9497038BA587FDB2CF60E0CC
:1022F0000E94E303AECFF8018491E82FF0E0EE0FE7
:10230000FF1FEB56FA4F859194912F8D38A1281716
:10231000390741F461E08F2D0E94E30360E08F2DC7
:102320000E949703F3940F5F1F4FF4E1FF12E3CF76
:1023300061E08EA50E94E30361E08EA50E949703F1
:102340008FA587FD86CF61E00E94E30361E08FA542
:102350000E9497037ECF6F927F928F929F92AF924F
:10236000BF92CF92DF92EF92FF920F931F93CF9382
:10237000DF93EC016A01FB0101900020E9F731973E
:10238000AF01461B570B2EEE2403B001259F700DA5
:102390001124605C7E4F77FF02C06F5F7F4F5B014F
:1023A000B594A79482E1849F4001859F900C1124ED
:1023B0009CE7692E712C8A0C9B1C76018301940189
:1023C000A301B501CE010E94D50D8FEF681A780ADE
:1023D00081E86816710489F7DF91CF911F910F9101
:1023E000FF90EF90DF90CF90BF90AF909F908F9035
:1023F0007F906F900895EF92FF920F931F93CF936A
:10240000DF93EC018B01FB0101900020E9F731978C
:102410007F01E61AF70A70E060E00E944D0E2EEE92
:10242000A7012403C001259F900D1124805C9E4FBD
:1024300097FD0196959587959D878C8780E690E01E
:102440009F878E878FEF9FEF9B8B8A8B998B888BD3
:1024500083E08C8B8D8B81E08F8BF80101900020C5
:10246000E9F73197AF01401B510BB801CE01DF9165
:10247000CF911F910F91FF90EF900C9414041F9235
:102480000F920FB60F9211248F939F938BB190E40C
:1024900089278BB99F918F910F900FBE0F901F903E
:1024A00018951F920F920FB60F9211248F939F933E
:1024B000AF93BF9380919B0390919C03A0919D0348
:1024C000B0919E030196A11DB11D80939B03909333
:1024D0009C03A0939D03B0939E03BF91AF919F91E6
:1024E0008F910F900FBE0F901F9018951F920F9213
:1024F0000FB60F9211248F939F938BB190E289278F
:102500008BB99F918F910F900FBE0F901F901895D0
:102510001F920F920FB60F9211248F939F9381E019
:1025200090E090939903809398039F918F910F90DF
:102530000FBE0F901F901895A0EAB3E013961C925F
:102540001E92129720EF30E015963C932E9314972D
:1025500080E491E017969C938E93169719963C937E
:102560002E9318971B969C938E931A9756961C92AF
:1025700056971D961C921E921C971F961C921E9297
:102580001E9781E055968C93559754968C9354974B
:102590002FEF3FEF53963C932E93529751963C93D7
:1025A0002E93509757968C93579758961C925897FE
:1025B0005A961C921E925997D5961C92D5978FEFDA
:1025C000D6968C93D6978AE0D7968C93D79789E046
:1025D000D8968C93D897DA961C921E92D997DC964F
:1025E0001C921E92DB97DD961C92DD97DE961C9264
:1025F000DE971092DF031092E0031092E103109235
:10260000E2038AE993E090969C938E935F97E8EAC1
:10261000F5E0E491F0E0EE0FFF1FEB56FA4F8591E5
:1026200094915E969C938E935D97ECEBF5E084918C
:10263000D3968C93D397E9EAF5E0E491F0E0EE0FBE
:10264000FF1FEB56FA4F259134915C963C932E93E5
:102650005B97EDEBF5E0E491D196EC93D197E095A3
:10266000D296EC93D297E82FE095D496EC93D4973A
:102670001092E3031092E4031092E5038CE092E0E1
:102680008D939C931092E6031092E7030895CF93E5
:10269000DF93CDB7DEB7C156D1090FB6F894DEBFD0
:1026A0000FBECDBFF894809169008360809369006C
:1026B000E89A7894259A52981092C50087E68093FC
:1026C000C40088E18093C1008EE08093C20084E35F
:1026D00090E190939303809392031092950310924C
:1026E000940382E080938D031092970310929603D7
:1026F0008AE893E09093EF038093EE0384E992E0FD
:102700000E949F1714BC15BC84B5826084BD85B53A
:10271000846085BD80916E00826080936E0010920F
:1027200080001092810080918100886080938100F8
:102730008091810082608093810080916F0082602F
:1027400080936F008CED95E09093890080938800D2
:102750001092B0001092B1008091B000826080931E
:10276000B0008091B10086608093B10080917000CC
:1027700082608093700087EA92E00E949F178091A8
:102780007A00876080937A0080917C0080648093D7
:102790007C0080917A00806880937A008BEB92E0D5
:1027A0000E949F170E94FE0F8CB58C7F81608CBDAC
:1027B0008DB58E7F8DBD8CEC92E00E949F1710929C
:1027C000E50340E050E0BA0180EA93E00E94CC10BB
:1027D0001092E7031092E4031092E6031092E303D1
:1027E00080EF90E09093E9038093E80380E491E028
:1027F0009093EB038093EA03E8E6F0E0E49029E6A7
:1028000030E0EA944FEFE41609F47EC0F901D49069
:1028100089010E5F1F4F3196F490CF2CE894C7F8D2
:1028200080EA93E00E94CD058091D70387FD09C01F
:10283000E091BB03F091BC0380819091D203892386
:102840008083E091BD03F091BE0380819091D40319
:10285000892380836D2D80EA93E00E942E05E0910C
:10286000BD03F091BE0380819091D303892B8083B7
:10287000F801912C812CD12C8C149D04FCF48091B6
:10288000D5035F01823089F48091D003882369F0F9
:10289000DF016D917D915D0180EA93E00E94ED047E
:1028A000EFEF8E1A9E0AF501E7CFBFEFAB1ABB0A16
:1028B000649180EA93E00E942E05F2CF8091D703C5
:1028C00087FD09C0E091BB03F091BC03808190912A
:1028D000D103892B8083F801EC0DFD1D9F01F7FECC
:1028E00090CF2F5F3F4F849190E08F3F910511F47F
:1028F00084EF91E0019708F484CFAFE9BFE011972E
:10290000F1F700C00000F6CF60E080EA93E00E949B
:10291000FA0960E080EA93E00E94D60561E080EA6F
:1029200093E00E94FA098DED92E00E949F171092A9
:10293000BC0088E48093B8008091B9008E7F8093BA
:10294000B9008091B9008D7F8093B90010E000E05C
:1029500044EAD42E52EFE52E52E0F52ED092BC0080
:102960008091BC0087FFFCCF802F880F81600E9480
:1029700045108091B900887F803451F41F930F93E4
:10298000FF92EF920E9489170F900F900F900F9077
:102990000F5F1F4F0F37110509F784E98093BC00C3
:1029A000BFEFE0E7F2E0B150E040F040E1F700C0F7
:1029B000000060E080E30E9471108FE19EE40197C7
:1029C000F1F700C0000060E080E30E947110A7E50D
:1029D000B2E01197F1F700C0000060E080E20E94D1
:1029E0007110E7E5F2E03197F1F700C0000088E2EE
:1029F0000E94B8108CE00E94B81081E00E94B810CC
:102A00008FE39FE10197F1F700C0000086E00E948C
:102A1000B8108DE093E00E949F178BE0EEE7F3E0A3
:102A2000DE01A35BBF4F01900D928A95E1F780E82C
:102A30000E94B8108EE193E00E94AC1080EC0E94DE
:102A4000B8108FE293E00E94AC108FE393E00E94F5
:102A50009F17CE0101960E9419038091E3032596EA
:102A60008FAF25978091E40326968FAF26974E016E
:102A700096E4890E911C8091E503D4018C938CE03F
:102A800092E09A8389835E01B7E4AB0EB11C80911A
:102A9000E603F50180836E01F8E4CF0ED11C80912E
:102AA000E703D6018C937E01B9E4EB0EF11C809113
:102AB000E8039091E903F701918380838E01055B20
:102AC0001F4F8091EA039091EB03D8018D939C9363
:102AD000BE01635B7F4FCE0101960E94FB11412C2A
:102AE000512C3201E1E0F0E06C96FFAFEEAF6C9755
:102AF0006A961FAE1EAE6A97312C212CA2961CAE90
:102B00001DAE1EAE1FAEA29781E090E06E969FAF05
:102B10008EAF6E972CE0822E22E0922E34E2C32EEE
:102B200034EFD32EE12CF12C80919B0390919C03E8
:102B3000A0919D03B0919E0384159505A605B70548
:102B400080F440909B0350909C0360909D03709094
:102B50009E0380919B0390919C03A0919D03B09153
:102B60009E036A96AEADBFAD6A97AB2B09F0FBC072
:102B700080919B0390919C03A0919D03B0919E0333
:102B800084199509A609B70980399140A105B105B5
:102B900008F44EC040909B0350909C0360909D03AE
:102BA00070909E03CE0101960E9419038091E30369
:102BB00025968FAF25978091E40326968FAF2697B1
:102BC0008091E50327968FAF27979A82898280911B
:102BD000E603D5018C938091E70329968FAF29975F
:102BE0008091E8039091E9032B969FAF8EAF2B97CE
:102BF0008091EA039091EB032D969FAF8EAF2D97B6
:102C00006C964EAD5FAD6C97519541955109BE01E3
:102C1000635B7F4FCE0101960E94AB116C96EEADC7
:102C2000FFAD6C9721E0E2276C96FFAFEEAF6C979B
:102C300080E00E9457108C0181E00E9457104A9B4F
:102C40009BC020E032E0201B310B3F932F9392502A
:102C50009F938F9380E593E09F938F930E948917B2
:102C6000B8E7B093B3000F900F900F900F900F90B4
:102C70000F908091980390919903892B09F47FC05C
:102C80008EE593E00E949F1710929903109298038B
:102C90006A96EEADFFAD6A97EF2B09F070C080E841
:102CA0000E94B81010E180E20E9498101150D9F7EC
:102CB00080E80E94B81080EC0E94B81010E180E219
:102CC0000E9498101150D9F780EC0E94B81080E84B
:102CD0000E94B8108FE693E00E94AC1080EC0E9436
:102CE000B81087E793E00E94AC10CE0101960E94D5
:102CF00019038091E30325968FAF25978091E40314
:102D000026968FAF26978091E50327968FAF27975A
:102D10009A8289828091E603D5018C938091E703A2
:102D200029968FAF29978091E8039091E9032B961C
:102D30009FAF8EAF2B978091EA039091EB032D9676
:102D40009FAF8EAF2D97CE0101960E94531017BCF6
:102D50006E961FAE1EAE6E97E1E0F0E06A96FFAF92
:102D6000EEAF6A97E1CE80919B0390919C03A09176
:102D70009D03B0919E035CCF1092B3007ACF6E9604
:102D80008EAD9FAD6E97892B09F4CECE40919B03FB
:102D900050919C0360919D0370919E03A2968CAD0F
:102DA0009DADAEADBFADA297481B590B6A0B7B0B17
:102DB000F101EE0FFF1FEC57FE4F80819181B0E0D3
:102DC000A0E0481759076A077B0708F4ADCE809149
:102DD0009B0390919C03A0919D03B0919E03A296AA
:102DE0008CAF9DAFAEAFBFAFA297C101019662E4B9
:102DF00070E00E940B171C01FC01EE0FFF1FE0505A
:102E0000FF4F2081318150E040E0C701B6010E94B0
:102E10001F1727BD89CEAA1BBB1B51E107C0AA1FE4
:102E2000BB1FA617B70710F0A61BB70B881F991F6B
:102E30005A95A9F780959095BC01CD010895052E6E
:102E400097FB1EF400940E94361757FD07D00E948E
:102E50005C1707FC03D04EF40C9436175095409540
:102E6000309521953F4F4F4F5F4F08959095809536
:102E7000709561957F4F8F4F9F4F08950E94461721
:102E8000332312F48A1B9B0B0C945717A29FB0019B
:102E9000B39FC001A39F700D811D1124911DB29F8E
:102EA000700D811D1124911D08950E944617B7FFD2
:102EB0000895821B930B0895A1E21A2EAA1BBB1B37
:102EC000FD010DC0AA1FBB1FEE1FFF1FA217B307F6
:102ED000E407F50720F0A21BB30BE40BF50B661F0C
:102EE000771F881F991F1A9469F7609570958095D0
:102EF00090959B01AC01BD01CF010895EE0FFF1F1E
:102F00000590F491E02D099481E090E0F8940C9400
:102F10007F1AB0E0A0E0EFE8F7E10C94581AAE0198
:102F20004B5F5F4FFA0161917191AF018091EE03A8
:102F30009091EF030E94CA17E2E00C94741A0F9369
:102F40001F93CF93DF93E091EE03F091EF03238182
:102F5000EC0110E000E021FD08C00FEF1FEF14C0EE
:102F60000995892B11F00FEF1FEF89916091EE0306
:102F70007091EF03DB011896ED91FC918111F0CF78
:102F80008AE00995892B49F7C801DF91CF911F91FC
:102F90000F910895ABE0B0E0E0EDF7E10C94481A32
:102FA0007C013B018A01FC0117821682838181FF2B
:102FB000C8C1CE0101965C01F7019381F30193FD35
:102FC000859193FF81913F01882309F453C1853294
:102FD00039F493FD859193FF81913F01853229F466
:102FE000B70190E00E94BA19E7CF912C212C312C27
:102FF000FFE1F31538F08B3211F190F4803209F1D2
:10300000833229F137FC3CC020ED280F2A3050F5DF
:1030100036FE20C08AE0989E200D1124922E06C014
:103020008D3291F0803371F7689430F8F30193FD9D
:10303000859193FF81913F018111DACF21C068947E
:1030400031F8689432F8F2CF689433F8EFCF68948F
:1030500034F8ECCFEAE02E9E200D1124222E689445
:1030600035F8E4CF8E3229F436FC04C1689436F882
:10307000DDCF8C3619F4689437F8D8CF8836B1F2A2
:10308000982F9F7D95549330E0F08336A1F18337DC
:10309000C1F1833509F063C02801F2E04F0E511CE5
:1030A000F801C080D180692D70E036FC02C06FEF5E
:1030B0007FEFC6010E94A4194C01689437F8820181
:1030C0000AC00C5F1F4FFFE3F98388248394912C7F
:1030D0006501E89437F833FE2DC0522C8114910419
:1030E00071F5552009F468CFB70180E290E00E94A5
:1030F000BA195A94F6CFF801808189830E5F1F4F69
:10310000E4CF2801F2E04F0E511CF801C080D180BD
:10311000692D70E036FC02C06FEF7FEFC6010E94A0
:10312000AF194C018201D5CFB70180E290E00E9437
:10313000BA192A942814190409F0B0F7CECFF60171
:1031400037FC859137FE81916F01B70190E00E94B5
:10315000BA1951105A94F1E08F1A9108BFCF8436F2
:1031600019F0893609F077C0F80137FE6BC060812D
:103170007181828193810C5F1F4FF32DFF763F2E6B
:1031800097FF09C090958095709561957F4F8F4FFF
:103190009F4F689437F82AE030E0A5010E94EA19B1
:1031A000C82ECA188C2C432C36FE0CC0E89440F86C
:1031B000C91440F434FE05C032FC03C0F32DFE7E7A
:1031C0004F2E892C44FE95C0FE01EC0DF11D80812F
:1031D000803309F087C0242D297E422E842D8870EB
:1031E000582E43FC95C040FE8FC09C2C821418F4CE
:1031F0002C0C922C981844FE91C0B70180E390E00B
:103200000E94BA1942FE09C088E790E041FE02C060
:1032100088E590E0B7010E94BA19C91408F48AC081
:10322000CA94D12C9FEFC91AD90ACA0CDB1CF6012B
:1032300082916F01B70190E00E94BA19AC14BD04ED
:10324000B1F74FCF60817181072E000C880B990B6D
:103250000E5F1F4F92CFD32CE894D4F82AE030E0D1
:10326000853739F1232D297FD22E8F3601F148F48D
:103270008835A9F0F701868197812B96E2E10C94BD
:10328000641A803749F08837A9F7D4FE02C06894E1
:10329000D2F820E130E00DC06894D4F8F6CF34FEC7
:1032A00003C0822F8660D82E20E132E002C028E0E1
:1032B00030E0F801D7FE0FC0608171818281938177
:1032C0000C5F1F4FA5010E94EA19C82ECA183D2C99
:1032D000E89437F867CF6081718190E080E00E5FFD
:1032E0001F4FF0CF42FC02C0839478CF8394839425
:1032F00075CF842D867809F471CFF6CFB70180E2BF
:1033000090E00E94BA1983948214C0F3512C73CFB9
:10331000522C5818821408F46ECFF8CF842D86787A
:1033200009F47BCF8BE241FE80E247FC8DE2B701DE
:1033300090E071CFB70180E390E00E94BA199A94AF
:103340006CCF8FEF9FEF99CFFC01059061507040DB
:103350000110D8F7809590958E0F9F1F0895FC015E
:103360006150704001900110D8F7809590958E0FB4
:103370009F1F08950F931F93CF93DF93182F092F4B
:10338000EB018B8181FD09C01FEF0FEF812F902F83
:10339000DF91CF911F910F91089582FF14C02E816C
:1033A0003F818C819D81281739073CF4E881F981A0
:1033B000CF0101969983888310838E819F81019626
:1033C0009F838E83E3CFE885F985812F0995892B2B
:1033D000A1F3DACFFA01AA27283051F1203181F187
:1033E000E8946F936E7F6E5F7F4F8F4F9F4FAF4F0D
:1033F000B1E03ED0B4E03CD0670F781F891F9A1F20
:10340000A11D680F791F8A1F911DA11D6A0F711DD3
:10341000811D911DA11D20D009F468943F912AE0DF
:10342000269F11243019305D3193DEF6CF010895C7
:10343000462F4770405D4193B3E00FD0C9F7F6CFF8
:10344000462F4F70405D4A3318F0495D31FD4052C0
:10345000419302D0A9F7EACFB4E0A6959795879556
:1034600077956795BA95C9F7009761057105089535
:103470009B01AC010A2E06945795479537952795E1
:10348000BA95C9F7620F731F841F951FA01D089579
:103490002F923F924F925F926F927F928F929F9264
:1034A000AF92BF92CF92DF92EF92FF920F931F9352
:1034B000CF93DF93CDB7DEB7CA1BDB0B0FB6F89403
:1034C000DEBF0FBECDBF09942A88398848885F8443
:1034D0006E847D848C849B84AA84B984C884DF80B4
:1034E000EE80FD800C811B81AA81B981CE0FD11D98
:1034F0000FB6F894DEBF0FBECDBFED010895F8946E
:02350000FFCFFB
:10350200B801B801B8015D010B02B8015D010B02FF
:10351200B801930293029302BA020B029F015D016A
:103522000B02B8017003B801B80170033E03100327
:10353200E402BA02E402C7016E024B022A020B0243
:10354200D2010B025D019F015D01B8010B02B801BE
:103552000B0293027003B801B80170033E0310031B
:10356200E402BA02E402C7016E024B022A020B0213
:10357200D2010B025D019F015D010B02B8015D01E9
:103582000B02B801F401F401F4015E019600F401AA
:103592005E0196008A02F401F401F4015E019600D4
:1035A200F4015E0196008A02F4012C01960090015A
:1035B200C800C8007D007D00FA00FA009001C80032
:1035C200C8007D007D00FA007D00F40177017D00D6
:1035D200F40177017D008A02F4012C01960090012A
:1035E200C800C8007D007D00FA00FA009001C80002
:1035F200C8007D007D00FA00FA00F40177017D0029
:10360200F40177017D008A0200000000A40C14047A
:1036120050104F10F30578094609DD085C089D0833
:10362200510F5E0AFA09D605EE065F07D0074D0E66
:10363200D50D760DCC10740500000000A40C140406
:1036420050104F106F10210F4A0F220F3E0F320FF2
:10365200510F210F6A0A690AE80EAF0E6A0E4D0E6B
:10366200D50D760D00000000A40C140450104F106C
:10367200F30578094609DD085C089D08510F5E0ACA
:103682006A0AD605EE065F07D0074D0ED50D760DF8
:103692006F106F10496E697469616C69736564209B
:1036A20055534152542100496E697469616C6973C2
:1036B20065642054696D6572732100496E6974698D
:1036C200616C69736564204144432100496E6974E9
:1036D20069616C69736564205350492100496E69C0
:1036E2007469616C6973656420446973706C617993
:1036F200210044657669636520646973636F76654A
:10370200726564206F6E20307825780A00496E69F0
:103712007469616C69736564204C43442100507282
:103722006573732074686520427574746F6E0053FC
:1037320074617274207468652047616D652100535D
:103742007461727465642070726F6772616D2100BA
:10375200583A2025640A593A2025640A0A00596514
:10376200792C20696E74726572757065726500538A
:10377200636F72653A200054696D653A2000537494
:0A3782006172742047616D6500005C
:00000001FF
