:100000000C944E050C94CF150C9476050C94760543
:100010000C9476050C9476050C9476050C94861554
:100020000C9476050C9476050C9476050C94981532
:100030000C9476050C9476050C94BD150C947605FD
:100040000C9476050C9476050C9476050C94760544
:100050000C9476050C9476050C9476050C94760534
:100060000C9476050C9476050901809611800A3A65
:1000700081550A3601082A04000000F02B04000014
:10008000014021800A13800A29800A000000000034
:10009000010000000100000000000000010000005D
:1000A000010001000000010000000000010000004C
:1000B000000000000100000000000000010000003E
:1000C000000001000000000001010000000000002D
:1000D000000000010100000000000100000000001D
:1000E000010000000000000001000000000000000E
:1000F00001000000000001000000010001000000FC
:1001000001000000000000000100000001000000EC
:1001100000000000000100000001000001000000DC
:1001200000000000000001000000010000000000CD
:1001300000000000010101010101000000000000B9
:1001400000000101010101010101000000000000A7
:100150000001010101010101010100000000000096
:100160000101010101010100000000000000000088
:10017000010101010100000000000000000000007A
:10018000010000010000000000000000000100006C
:1001900001000000010000000000000000003E5BC4
:1001A0004F5B3E3E6B4F6B3E1C3E7C3E1C183C7EC4
:1001B0003C181C577D571C1C5E7F5E1C00183C18A9
:1001C00000FFE7C3E7FF0018241800FFE7DBE7FFA5
:1001D00030483A060E2629792926407F0505074032
:1001E0007F05253F5A3CE73C5A7F3E1C1C08081CF3
:1001F0001C3E7F14227F22145F5F005F5F06097F31
:10020000017F006689956A606060606094A2FFA2C9
:100210009408047E040810207E201008082A1C0878
:10022000081C2A08081E101010100C1E0C1E0C3082
:10023000383E3830060E3E0E06000000000000007A
:100240005F00000007000700147F147F14242A7F3A
:100250002A12231308646236495620500008070307
:1002600000001C2241000041221C002A1C7F1C2A85
:1002700008083E08080080703000080808080800D8
:100280000060600020100804023E5149453E0042D3
:100290007F400072494949462141494D33181412A3
:1002A0007F1027454545393C4A49493141211109CB
:1002B000073649494936464949291E0000140000BD
:1002C00000403400000008142241141414141400D7
:1002D0004122140802015909063E415D594E7C1223
:1002E00011127C7F494949363E414141227F4141BB
:1002F000413E7F494949417F090909013E41415138
:10030000737F0808087F00417F41002040413F0182
:100310007F081422417F404040407F021C027F7FC3
:100320000408107F3E4141413E7F090909063E41D4
:1003300051215E7F09192946264949493203017F27
:1003400001033F4040403F1F2040201F3F403840B6
:100350003F631408146303047804036159494D434F
:10036000007F4141410204081020004141417F04C7
:1003700002010204404040404000030708002054AE
:100380005478407F2844443838444444283844440E
:10039000287F385454541800087E090218A4A49CDD
:1003A000787F0804047800447D40002040403D00F0
:1003B0007F1028440000417F40007C047804787C52
:1003C000080404783844444438FC182424181824B9
:1003D0002418FC7C08040408485454542404043FA2
:1003E00044243C4040207C1C2040201C3C403040A9
:1003F0003C44281028444C9090907C4464544C44D5
:100400000008364100000077000000413608000275
:10041000010204023C2623263C1EA1A161123A409F
:1004200040207A3854545559215555794122545415
:100430007842215554784020545579400C1E527210
:1004400012395555555939545454593955545458ED
:100450000000457C410002457D420001457C407D15
:100460001211127DF0282528F07C545545002054A7
:10047000547C547C0A097F4932494949323A444400
:10048000443A324A4848303A4141217A3A4240207F
:1004900078009DA0A07D3D4242423D3D4040403D10
:1004A0003C24FF2424487E4943662B2FFC2F2BFF3E
:1004B0000929F620C0887E090320545479410000A0
:1004C000447D413048484A32384040227A007A0A16
:1004D0000A727D0D19317D2629292F2826292929DF
:1004E0002630484D40203808080808080808083811
:1004F0002F10C8ACBA2F102834FA00007B00000877
:10050000142A142222142A14085500550055AA55FD
:10051000AA55AAFF55FF55FF000000FF001010105C
:10052000FF00141414FF001010FF00FF1010F01053
:10053000F0141414FC001414F700FF0000FF00FF77
:100540001414F404FC141417101F10101F101F149F
:1005500014141F00101010F0000000001F101010E5
:10056000101F10101010F010000000FF10101010DD
:100570001010101010FF10000000FF140000FF000A
:10058000FF00001F10170000FC04F41414171017CC
:100590001414F404F40000FF00F7141414141414D9
:1005A00014F700F7141414171410101F101F14144C
:1005B00014F4141010F010F000001F101F000000C1
:1005C0001F14000000FC140000F010F01010FF10C9
:1005D000FF141414FF141010101F00000000F0107E
:1005E000FFFFFFFFFFF0F0F0F0F0FFFFFF00000063
:1005F0000000FFFF0F0F0F0F0F3844443844FC4A30
:100600004A4A347E02020606027E027E0263554991
:1006100041633844443C04407E201E2006027E0292
:100620000299A5E7A5991C2A492A1C4C7201724C13
:10063000304A4D4D303048784830BC625A463D3ED5
:10064000494949007E0101017E2A2A2A2A2A444476
:100650005F444440514A444040444A51400000FFF6
:100660000103E080FF000008086B6B083612362497
:1006700036060F090F0600001818000000101000C1
:100680003040FF0101001F01011E00191D1712005B
:100690003C3C3C3C0000000000000000002400271F
:1006A000002A0000000000250028002B000404049C
:1006B000040404040402020202020203030303030B
:1006C00003010204081020408001020408102001E8
:1006D00002040810200000000800020100000304CA
:1006E0000700000000000000000000000000000102
:1006F00001000000000000000000000000010101F6
:1007000001000000000000000000000101010101E3
:1007100001000000000000000001010001010001D3
:1007200001000000000000000101010101010101C0
:1007300000000000000000000001000001000000B7
:1007400000000000000000010001010001000000A5
:100750000000000000010001000001000100000095
:100760000000000000000000000000000000000089
:100770000000000001000000000001000000000077
:100780000000000001000000010000000000000067
:100790000000010101010101010000000000000052
:1007A0000101000101010001010000000000010140
:1007B000010101010101010101000000000100012E
:1007C0000101010101010001000000000100010020
:1007D0000000000001000100000000000000010115
:1007E0000001010000000000000000000000000007
:1007F00000000000000000000000000001010101F5
:1008000001000000000000000101010101010101DF
:1008100001010100000001010101010101010101CB
:1008200001010100000101010000010101000001BE
:1008300001010000010101010101010101010101AA
:1008400001000000000001010000000101000000A3
:100850000000000001010001010100010100000091
:100860000001010000000000000000000101000084
:100870000000000000000000000000000000000078
:100880000000000101010101000000000000000162
:10089000010101010101010101010000000101014B
:1008A000010101010101010101010000010101003B
:1008B000000101010000010101000001010101012D
:1008C000010101010101010100000000010101001D
:1008D0000000010101000000000001010000010111
:1008E0000100000101000000000001010000000003
:1008F00000010100000000000000000000000000F6
:1009000000000000000000000001000000000001E5
:1009100000000000000001000001000000010000D4
:1009200001000000000100010101010101010001BD
:1009300000000000010101000101010001010100AE
:10094000000000010101010101010101010100009C
:10095000000000010101010101010101000000008E
:100960000000000100000000000100000000000085
:100970000001000000000000000100000000000075
:100980000000000000000000000000000000000067
:100990000000010100000000000000000000000055
:1009A0000101010100000000000000000000010141
:1009B0000101010100000000000000000101000130
:1009C000010001010000000000000001010101011F
:1009D0000101010000000000000000010001010011
:1009E0000100000000000000000100000000000005
:1009F00001000000000000000001000000000100F4
:100A000000000000000000000000000000000000E6
:100A100000000000000000000000010000000000D5
:100A200000000000000000000101010000000000C3
:100A300000000000000000010101000000000000B3
:100A400000000000000001010100000000000000A3
:100A50000001010101010101010101010000010189
:100A60000101010101010101010101010101010176
:100A70000101010101010101010101010101010166
:100A80000101010101010101010101010101010156
:100A900001010101010101010101E31511241FBE42
:100AA000CFEFD8E0DEBFCDBF27E0ACE3B3E001C0BD
:100AB0001D92AC3DB207E1F713E0A0E0B1E0E0E841
:100AC000F3E402C005900D92AC33B107D9F715E0FD
:100AD000CEE4D5E004C02197FE010E949A1ECD34D9
:100AE000D107C9F70E948E160C94BE210C94000009
:100AF00090E0FC01EB52F94F2491FC01EF53F94FC8
:100B00003491FC01E355F94FE491EE23C9F022231F
:100B100039F0233001F1A8F4213019F1223029F104
:100B2000F0E0EE0FFF1FED55F94FA591B4918FB78F
:100B3000F894EC91611126C030953E233C938FBF11
:100B400008952730A9F02830C9F0243049F7809162
:100B500080008F7D03C0809180008F77809380001C
:100B6000DFCF84B58F7784BDDBCF84B58F7DFBCF9E
:100B70008091B0008F778093B000D2CF8091B00089
:100B80008F7DF9CF3E2BDACFCF93DF9390E0FC013E
:100B9000EF53F94F24918355994FFC018491882399
:100BA000D1F090E0880F991FFC01E756F94FA5910D
:100BB000B491FC01ED55F94FC591D49161110EC06E
:100BC0009FB7F8948C91E22FE0958E238C93288127
:100BD000E223E8839FBFDF91CF9108958FB7F89408
:100BE000EC91E22BEC938FBFF6CFAF92BF92CF92F6
:100BF000DF92EF92FF920F931F93CF93DF936C01DD
:100C00007B018B01040F151FEB015E01AE18BF08BD
:100C1000C017D10759F06991D601ED91FC9101906F
:100C2000F081E02DC6010995892B79F7C501DF9187
:100C3000CF911F910F91FF90EF90DF90CF90BF90D9
:100C4000AF900895FC01A5A1B6A18C9192A589232E
:100C50008C93A5A1B6A18C9191A5892B8C93089515
:100C6000DC019396ED91FC919497908198968C91EC
:100C7000892380830895DC019396ED91FC919497EC
:100C8000908197968C91892B80830895DC019196B1
:100C9000ED91FC919297908196968C918923808317
:100CA0000895DC019196ED91FC9192979081959633
:100CB0008C91892B80830895CF92DF92EF92FF92DF
:100CC0001F93CF93DF93EC016A017B018DA9811102
:100CD00023C08F2D9927AA27BB278EBD0DB407FEF1
:100CE000FDCFC701AA27BB278EBD0DB407FEFDCFE0
:100CF000BB27AF2D9E2D8D2D8EBD0DB407FEFDCFD4
:100D0000CEBC0DB407FEFDCFDF91CF911F91FF90B8
:100D1000EF90DF90CF9008958130B1F410E2CE01D2
:100D2000F7FE0FC00E945106CE010E943B06CE0185
:100D30000E943006CC0CDD1CEE1CFF1C115079F714
:100D4000E3CF0E944606F0CFEF8DF8A18F2D9927B3
:100D5000AA27BB278083CE010E942206EF8DF8A12F
:100D6000C701AA27BB278083CE010E942206EF8DF0
:100D7000F8A1BB27AF2D9E2D8D2D8083CE010E9423
:100D80002206EF8DF8A1C082CE01DF91CF911F9195
:100D9000FF90EF90DF90CF900C942206FF920F937C
:100DA0001F93CF93DF93EC018B018DA981110EC0AE
:100DB0001EBD0DB407FEFDCF0EBD0DB407FEFDCF69
:100DC000DF91CF911F910F91FF9008958130B1F481
:100DD00090E1F92ECE0117FF0EC00E945106CE0100
:100DE0000E943B06CE010E943006000F111FFA94AC
:100DF000F110F0CFE5CF0E944606F1CFEF8DF8A1BC
:100E00001083CE010E942206EF8DF8A10083CE014F
:100E1000DF91CF911F910F91FF900C9422060F93B9
:100E20001F93CF93DF93EC01162F8DA9811109C079
:100E30006EBD0DB407FEFDCFDF91CF911F910F91D5
:100E40000895813099F408E0CE0117FF0CC00E948C
:100E50005106CE010E943B06110FCE010E943006C2
:100E6000015091F7E9CF0E944606F3CFEF8DF8A12C
:100E70006083CE01DF91CF911F910F910C942206D8
:100E8000CF93DF93EC01ED8DFE8D80819CA98923AA
:100E90008083CE010E940F07ED8DFE8D80819BA97E
:100EA000892B8083DF91CF9108958F929F92AF928B
:100EB000BF92CF92DF92EF92FF920F931F93CF9347
:100EC000DF93EC0189AD9AAD680F791F8BAD9CADB6
:100ED000480F591F21503109260F371F4901B12CE6
:100EE000A12CCB01B0E0A0E0DC0199278827882A5B
:100EF000992AAA2ABB2A680181E0C81AD108C40E1F
:100F0000D51EF12CE12C70E060E0BA015527442792
:100F1000C42AD52AE62AF72A6AE2CE010E944007AF
:100F2000B501A401CE010E945C066BE2CE010E94D5
:100F30004007B701A601CE010E945C066CE2CE011B
:100F4000DF91CF911F910F91FF90EF90DF90CF90A5
:100F5000BF90AF909F908F900C944007FC0185A9A3
:100F6000811104C091A182A19CBD8DBD08951F93E4
:100F7000CF93DF93EC01162FE881F9810284F3858A
:100F8000E02D0995112371F06DADCE010E9440074F
:100F9000E881F9810688F789E02DCE01DF91CF91B4
:100FA0001F9109946EADF1CFAF92BF92CF92DF92B5
:100FB000EF92FF920F931F93CF93DF93EC0177FD96
:100FC00038C088859985681779079CF557FD31C029
:100FD0008A859B854817590764F569017A015B0189
:100FE000E881F9810284F385E02DCE010995E8813D
:100FF000F98102A4F3A5E02D01E010E021E030E04A
:10100000A701B501CE010995B601CE010E94CE0619
:10101000E881F9810688F789E02DCE01DF91CF9133
:101020001F910F91FF90EF90DF90CF90BF90AF9006
:101030000994DF91CF911F910F91FF90EF90DF9076
:10104000CF90BF90AF9008958F929F92AF92BF9232
:10105000CF92DF92EF92FF920F931F93CF93DF9384
:10106000EC0149015701E881F98102A4F3A5E02DC3
:1010700009959401D8010E945A1E6B017C01C1148C
:10108000D104E104F10409F47DC08DA9811115C0DA
:1010900081E0C81AD108E108F1088FEFC816D80618
:1010A000E806F80609F46EC0BEBC0DB407FEFDCF1D
:1010B000AEBC0DB407FEFDCFEBCF813099F581E0DA
:1010C000C81AD108E108F1088FEFC816D806E8065B
:1010D000F80609F457C00B2D18E0CE0107FF1CC01D
:1010E0000E945106CE010E943B06CE010E943006AE
:1010F000000F115091F70A2D18E0CE0107FF0FC025
:101100000E945106CE010E943B06CE010E9430068D
:10111000000F115091F7D3CF0E944606E3CF0E94F3
:101120004606F0CFBA1016C0CC0CDD1CEE1CFF1C1E
:10113000EF8DF8A1B08281E0C81AD108E108F1086A
:101140008FEFC816D806E806F806E1F0CE010E9437
:101150002206F1CF81E0C81AD108E108F1088FEF2B
:10116000C816D806E806F80669F0EF8DF8A1B08237
:10117000CE010E942206EF8DF8A1A082CE010E942E
:101180002206E8CFDF91CF911F910F91FF90EF9052
:10119000DF90CF90BF90AF909F908F9008958F92E7
:1011A0009F92AF92BF92CF92DF92EF92FF920F93F6
:1011B0001F93CF93DF935C014B016A01E90177FD37
:1011C00052C0DC0118968D919C91681779070CF03C
:1011D0004AC0209709F447C037FF07C0C9010196EC
:1011E000C80ED91ED195C195D109F5018285938587
:1011F000C816D906C4F5A6014C0F5D1F9A012150EF
:10120000310937FD30C0D7FE03C0EA01D12CC12C13
:10121000281739071CF0EC01CC19DD09D501ED9137
:10122000FC910284F385E02DC501099578018E01BA
:1012300021E030E0A601B401C5010E942408D501D7
:10124000ED91FC910688F789E02DC501DF91CF91E2
:101250001F910F91FF90EF90DF90CF90BF90AF90D4
:101260009F908F900994DF91CF911F910F91FF90E4
:10127000EF90DF90CF90BF90AF909F908F900895A8
:101280008F929F92AF92BF92CF92DF92EF92FF9296
:101290000F931F93CF93DF935C016B014A01E90128
:1012A00057FD52C0DC011A968D919C914817590741
:1012B0000CF04AC0209709F447C037FF07C0C901A6
:1012C0000196C80ED91ED195C195D109F501808529
:1012D0009185C816D906C4F5A6014C0F5D1F9A0169
:1012E0002150310937FD30C0D7FE03C0EA01D12CAF
:1012F000C12C281739071CF0EC01CC19DD09D501E8
:10130000ED91FC910284F385E02DC50109957801EA
:1013100001E010E09E01A401B601C5010E9424086D
:10132000D501ED91FC910688F789E02DC501DF918B
:10133000CF911F910F91FF90EF90DF90CF90BF90D2
:10134000AF909F908F900994DF91CF911F910F9153
:10135000FF90EF90DF90CF90BF90AF909F908F90D5
:1013600008958F929F92AF92BF92CF92DF92EF92A9
:10137000FF920F931F93CF93DF934C016B015A01A0
:10138000E901209709F46CC00115110509F468C042
:1013900037FF07C0C9010196C80ED91ED195C19566
:1013A000D109F401A085B185CA16DB060CF058C03E
:1013B00017FF07C0C8010196A80EB91E1195019527
:1013C0001109F40182859385A816B9060CF048C06E
:1013D000F601EC0FFD1FAF014150510957FD40C010
:1013E000B501600F711F9B012150310937FD38C0D5
:1013F000D7FE03C0EF01D12CC12CB7FE03C08B0177
:10140000B12CA12C4A175B071CF0ED01CC19DD09AA
:10141000281739071CF08C010A191B09D401ED911A
:10142000FC910284F385E02DC40109959E01A5017C
:10143000B601C4010E942408D401ED91FC910688F4
:10144000F789E02DC401DF91CF911F910F91FF909B
:10145000EF90DF90CF90BF90AF909F908F900994C6
:10146000DF91CF911F910F91FF90EF90DF90CF9080
:10147000BF90AF909F908F900895EF92FF920F933F
:101480001F93F12CE12C89019A01AB01BC018AE880
:1014900097E00E94B1091F910F91FF90EF9008957E
:1014A000EF92FF920F931F93CF93DF9377FD32C09C
:1014B000DC011896ED91FC916E177F075CF5211504
:1014C000310541F137FF07C0F90131964E0F5F1F1B
:1014D000319521953109DC011A96ED91FC914E1759
:1014E0005F07C4F4EA01C20FD31FDE011197B7FDF5
:1014F00011C057FF03C09E0150E040E0AE17BF0788
:101500001CF09F01241B350B7801890121E030E09C
:101510000E942408DF91CF911F910F91FF90EF90CF
:101520000895EF92FF920F931F93CF93DF9357FD90
:1015300031C0DC011A96ED91FC914E175F0754F50E
:101540002115310539F137FF07C0F90131966E0FCA
:101550007F1F319521953109DC011896ED91FC91A1
:101560006E177F07BCF4EB01C20FD31FDE0111978A
:10157000B7FD10C077FF03C09E0170E060E0AE17BA
:10158000BF071CF09F01261B370B780101E010E01C
:101590000E942408DF91CF911F910F91FF90EF904F
:1015A00008958F929F92AF92BF92CF92DF92EF9267
:1015B000FF920F931F93CF93DF93470121153105BE
:1015C00009F44BC00115110509F447C037FF07C0E6
:1015D000F90131966E0F7F1F319521953109DC019C
:1015E0001896AD90BC906A157B05BCF517FF07C037
:1015F000F80131964E0F5F1F119501951109DC011D
:101600001A96ED91FC914E175F073CF56B01C20EE7
:10161000D31EE6012197D7FD20C07A01E00EF11E0E
:10162000D7011197B7FD19C077FF03C0960170E08D
:1016300060E057FF03C0870150E040E0CA15DB05BA
:101640001CF09501261B370BAE17BF071CF08F014E
:10165000041B150B74010E942408DF91CF911F9188
:101660000F91FF90EF90DF90CF90BF90AF909F9041
:101670008F900895EF92FF920F931F93CF93DF9374
:10168000EC0177FD22C08885998568177907ECF40D
:1016900057FD1BC08A859B8548175907B4F479010B
:1016A000E881F98102A4F3A5E02D01E010E021E03A
:1016B00030E0CE010995B701CE01DF91CF911F91A6
:1016C0000F91FF90EF900C94CE06DF91CF911F9178
:1016D0000F91FF90EF900895CF93DF93EC010E945C
:1016E000AE078FA987FD06C0EB8DFC8D80819AA97E
:1016F00089238083DF91CF91089508950F931F93DD
:10170000CF93DF93EC018B010E94AE078FA987FD79
:1017100006C0EB8DFC8D80819AA989238083ED8D95
:10172000FE8D80819CA98923808366E3CE010E947F
:101730000F07ED8DFE8D80819BA9892B80838DA95C
:10174000F801823091F06081CE010E940F078FA9CD
:1017500087FD06C0EB8DFC8D808199A9892B808344
:10176000DF91CF911F910F91089588A9882359F394
:1017700060817181CE010E94CE06E9CFCF93DF93C5
:101780001F92CDB7DEB7FC0119826370668BDC0156
:10179000AD5BBF4F2C9130E011968C9190E06230A0
:1017A00031F06330C9F0613081F040EC498332AFF1
:1017B00021AF94AF83AFBE016F5F7F4FCF010E9417
:1017C0007E0B0F90DF91CF91089540EA498334AFAB
:1017D00023AF92AF81AFEFCF40E6F8CF0F931F93C7
:1017E000CF93DF931F92CDB7DEB7FC0119826370F0
:1017F000668BDC01A85BBF4F2D913C91119712962F
:101800008D919C916230D1F1633009F440C08F0119
:101810000C5B1F4F6130F9F040EC4983AF014D5B29
:101820005F4FDA014C9150E052AF41AFD8014C917B
:1018300050E054AF43AF3187208793878287BE0142
:101840006F5F7F4FCF010E947E0B0F90DF91CF9192
:101850001F910F91089540EA4983D8014C9150E0BF
:1018600052AF41AFDF01AA5BBF4F4C9150E054AF84
:1018700043AF3387228791878087E1CFDF01AA5B5F
:10188000BF4F4C9150E052AF41AF1196D0CF40E6E0
:101890004983DF01A95BBF4F4C9150E052AF41AF8C
:1018A0001497E3CFFC0187A987FD06C0A38DB48DF3
:1018B0009C9181A9892B8C9308950895FC016370F4
:1018C000668B8481958126813781613039F0633060
:1018D00029F0918780873387228708953187208771
:1018E0009387828708952F923F924F925F926F92D3
:1018F0007F928F929F92AF92BF92CF92DF92EF92A0
:10190000FF920F931F93CF93DF93CDB7DEB76A9704
:101910000FB6F894DEBF0FBECDBF9A8F898F7A8342
:1019200069834A01D22E18870F833701BC2CDC0152
:1019300059962D913C915A972115310509F015C101
:1019400018968D919C911997681779070CF0D7C15B
:101950001A968D919C91481759070CF0D0C14C2CC8
:10196000512CB6E0CB9E600D711D11247C876B87D6
:10197000161617060CF0C3C1EA2DF0E0FA87E987C6
:1019800093E0EE0FFF1F9A95E1F7F88BEF87CF01F9
:10199000840F951F181619060CF0B1C1A98DBA8DC8
:1019A00058968C91811104C0BFEABD1508F4D394F8
:1019B000A98DBA8DED91FC9111970284F385E02DEC
:1019C000CD010995B5E0DB9EC0011124E981FA81C2
:1019D000FC83EB83312C212C9C0127563E4F388F02
:1019E0002F8B4A2D50E05E8B4D8BEF89F88DE20DE9
:1019F000F31D44919E828D82D12CC12C69817A8104
:101A0000620D731D7A8B698B842F90E09C8B8B8B7E
:101A1000E98DFA8DA081B18140FF82C0F1E0BF1253
:101A20006FC0AF126DC01C96ED91FC912F8138856F
:101A3000A4014C0D5D1D69897A89898D9A8D09955E
:101A4000EB89FC89F595E7954E2F5FEFC51AD50A0E
:101A50006D817E818D899E89680F791F7E836D835C
:101A600098E0C916D10481F6AFEF2A1A3A0AEB8141
:101A7000FC81E40DF51DFC83EB83F5E02F163104AA
:101A800009F0B3CF2F81388526153705B9F0A98D18
:101A9000BA8DED91FC91B1E0BB1257C0AB1255C0AD
:101AA00069817A816B5F7F4F0088F189E02D830126
:101AB00028E030E0A401898D9A8D0995A98DBA8D11
:101AC000ED91FC9111970688F789E02DCD016A967A
:101AD0000FB6F894DEBF0FBECDBFDF91CF911F913F
:101AE0000F91FF90EF90DF90CF90BF90AF909F90BD
:101AF0008F907F906F905F904F903F902F900994C0
:101B00001E96ED91FC91EF80F88409851A8592016B
:101B10004D815E816B817C81898D9A8D099590CFF5
:101B20002F8138852615370509F48ACF31E0B312A5
:101B300007C0A31205C01C96ED91FC91930178CFCC
:101B40001E96ED91FC917301E0CF6B857C85641945
:101B500075090684F785E02D73010F8518899201B8
:101B6000A401898D9A8D0995A9CFF9013496949194
:101B7000329745915491D91AB7E0DB9E400D511D23
:101B80001124F901259134913C8B2B8BFA0125907E
:101B90003490FA013296749031963491398B3296A2
:101BA00064903196449041E04C1518F04A1508F0C5
:101BB0007FC0662D062C000C770B7C836B83842DF5
:101BC000042C000C990B9E838D83A98DBA8DED9109
:101BD000FC9111970284F385E02DCD010995512CDC
:101BE000D12CC12CEA2DF0E0FA87E9872B2D30E0CB
:101BF0003C872B87A401440D511D47FC5A95588FF3
:101C00004F8B69817A81660D711D67FC7A957E879D
:101C10006D877989C71608F051CF2C2D30E04D81A2
:101C20005E81420F531FA985BA854A9FC0014B9F11
:101C3000900D5A9F900D1124FC01E80DF91DF88BB1
:101C4000EF87852D612C4F89588D420F531F5E8B76
:101C50004D8B671408F050C044244394480E87709D
:101C600041F4C1010196EB89FC89E20DF31DD4908A
:101C70001C01D7FE19C0A98DBA8DED91FC91662D7E
:101C800070E0B1E0BB1219C0AB1217C02D853E85C4
:101C9000620F731F0484F585E02D2F8138854D89EF
:101CA0005E89898D9A8D0995DD0C6394842DD1CF41
:101CB0001E821D821C821B8288CF4B815C81640F37
:101CC000751FAB85BC856A9FC0016B9F900D7A9F85
:101CD000900D112469817A81680F791F0684F78538
:101CE000E02DEF80F88409851A859D014F8558897C
:101CF000898D9A8D0995D8CF570CC3948ACF6A964F
:101D00000FB6F894DEBF0FBECDBFDF91CF911F910C
:101D10000F91FF90EF90DF90CF90BF90AF909F908A
:101D20008F907F906F905F904F903F902F9008958D
:101D30008F929F92AF92CF92EF92FF920F931F9349
:101D4000CF93DF93EC01262F898D9A8D009709F0B0
:101D500051C06A30D1F41D861C868D8948E0849F6D
:101D6000900111248E859F85820F931F9F878E87F8
:101D700081E090E0DF91CF911F910F91FF90EF9064
:101D8000CF90AF909F908F9008956D3089F3CC885D
:101D9000AD888F898823C1F08C859D8536E0C39EF0
:101DA000800D911D1124488559854817590764F401
:101DB0004E855F851D861C8638E0A39EC0011124D8
:101DC000840F951F9F878E87EA88FB880889198969
:101DD0004E855F856C857D85CE010E94730C2C89B4
:101DE0008C859D8546E0249F800D911D11249D8743
:101DF0008C87BECF6A3069F41D861C86FC0138963C
:101E0000E4912D898E859F85E29F800D911D11247F
:101E1000ADCF6D3009F4ACCFFC013496349163172B
:101E200008F4A6CF3296E491E61708F4A1CFFC019E
:101E3000329685909490462F431B342F47E0349F71
:101E4000800C911C1124F401329634913196E49166
:101E50003323A9F1EE2399F1CC88F4013596E4916E
:101E6000AD884F89442301F10E2E000CFF0BE30FC8
:101E7000F11DCE9EA001CF9E500D11246C857D8555
:101E8000460F571F68857985641775076CF44E8572
:101E90005F851D861C86FC013896E491AE9E400D40
:101EA000511D11245F874E87EA88FB8808891989AC
:101EB0004E855F856C857D85CE010E94730CF40193
:101EC0003496E4912C898C859D85E29F800D911D2F
:101ED00011248DCF6F927F928F929F92AF92BF927B
:101EE000CF92DF92EF92FF920F931F93CF93DF93E6
:101EF000EC016B015A0139014801E881F981028442
:101F0000F385E02D0995E881F9810288F389E02DB8
:101F100087019301A501B601CE010995A501480DE0
:101F2000591D41505109E881F9810288F389E02D5A
:101F30009301B601CE010995E881F9810088F18904
:101F4000E02D9401A501B601CE010995C60CD71C60
:101F5000B60161507109E881F9810088F189E02DAD
:101F60009401A501CE010995E881F9810688F789D8
:101F7000E02DCE01DF91CF911F910F91FF90EF9057
:101F8000DF90CF90BF90AF909F908F907F906F9099
:101F90000994CF92DF92EF92FF920F931F93CF930A
:101FA000DF93EC016B017A01675F7F4F2AE030E03D
:101FB00042E050E00E943D0A09E010E022E030E0FB
:101FC000A601BE018AE897E00E946A0FDF91CF91D7
:101FD0001F910F91FF90EF90DF90CF9008956F9237
:101FE0007F928F929F92AF92BF92CF92DF92EF92A9
:101FF000FF920F931F93CF93DF935C01EB016A0174
:10200000490138018701DC01ED91FC9162177307EA
:1020100019F5641675062CF0962D872D3A01C92EF8
:10202000D82E9601261937092F5F3F4F048CF58D66
:10203000E02DA301BE01C5010995DF91CF911F914C
:102040000F91FF90EF90DF90CF90BF90AF909F9057
:102050008F907F906F9008954615570591F426173D
:10206000370724F0892D4B01C22FD82F9E01281944
:1020700039092F5F3F4F068CF78DE02DA601B40183
:10208000DACF0284F385E02D0995D501ED91FC911D
:102090000488F589E02D83019401A601BE01C501E4
:1020A0000995D501ED91FC910688F789E02DC501D0
:1020B000DF91CF911F910F91FF90EF90DF90CF9024
:1020C000BF90AF909F908F907F906F900994EF9208
:1020D000FF920F931F93DC011A960D911C911B9791
:1020E00018962D913C911997ED91FC9100A0F1A1CA
:1020F000E02D7B0150E040E070E060E009951F9129
:102100000F91FF90EF9008954F925F926F927F92A0
:102110008F929F92AF92BF92CF92DF92EF92FF92F7
:102120000F931F93CF93DF936C012B015A01390159
:102130004801DC01ED91FC910284F385E02D0995C5
:10214000E201640C751CD601ED91FC91C615D70512
:102150005CF40088F189E02D87019401A501BE019E
:10216000C60109952196EFCF0688F789E02DC601B3
:10217000DF91CF911F910F91FF90EF90DF90CF9063
:10218000BF90AF909F908F907F906F905F904F9097
:1021900009948F929F92AF92BF92CF92DF92EF926B
:1021A000FF920F931F93CF93DF93EC015B014A01E2
:1021B0006901E881F9810284F385E02D0995950193
:1021C0002C0D3D1D21503109E881F9810488F589E4
:1021D000E02D78018401A401B501CE010995E881C3
:1021E000F9810688F789E02DCE01DF91CF911F910B
:1021F0000F91FF90EF90DF90CF90BF90AF909F90A6
:102200008F9009948F929F92AF92BF92CF92DF925C
:10221000EF92FF920F931F93CF93DF93EC015B013B
:102220004A0169017801E881F9810284F385E02D92
:102230000995C80CD91C860101501109E881F98162
:102240000488F589E02D9501A401B501CE01099519
:10225000E881F9810688F789E02DCE01DF91CF91E1
:102260001F910F91FF90EF90DF90CF90BF90AF90B4
:102270009F908F9009940895EF92FF920F931F9370
:10228000DC01ED91FC9100A0F1A1E02D09951F91D9
:102290000F91FF90EF9008950F931F93DC01ED9144
:1022A000FC91068CF78DE02D09951F910F910895F3
:1022B0000F931F93DC01ED91FC91048CF58DE02DC3
:1022C00009951F910F910895DC01ED91FC91008417
:1022D000F185E02D09942F923F924F925F926F9279
:1022E0007F928F929F92AF92BF92CF92DF92EF92A6
:1022F000FF920F931F93CF93DF9300D000D000D0B5
:10230000CDB7DEB73C016A013E832D83FC82EB82B0
:102310005801A41AB50AB7FE03C0B194A194B1083C
:102320008D809E80861A970A97FE03C091948194AF
:1023300091088A149B045CF0902F812F0D811E81DF
:102340009D838E839C2D8D2D6B01692F782F0C150D
:102350001D055CF09D818E817E836D83692F782FB2
:10236000902F812F8601C92ED82E1601201A310AEE
:102370002B012D813E81421A530A57FE03C051940E
:1023800041945108710137FE03C03FEFE31AF30A8D
:10239000F594E7948D819E81861797075CF5A1E0FF
:1023A000B0E0BA83A983C016D1064CF1D301ED91F8
:1023B000FC910484F585E02D2B813C81A8016D8181
:1023C0007E818A149B041CF04D815E81B801C3019B
:1023D0000995E418F508F7FE0AC02D813E81898130
:1023E0009A81280F391F3E832D83E20CF31C0F5F67
:1023F0001F4FD9CF2FEF3FEF3A832983D4CF2696B3
:102400000FB6F894DEBF0FBECDBFDF91CF911F9105
:102410000F91FF90EF90DF90CF90BF90AF909F9083
:102420008F907F906F905F904F903F902F90089586
:10243000089590E080E00895CF93CFB7F89480910D
:102440005103811127C0E7EBF6E08491EBECF6E055
:102450009491E82FF0E0EE0FFF1FE756F94FA5919A
:10246000B491EC91E92321F461E08AE00E947805BF
:1024700061E08AE00E94C4058CB580618CBD8CB59A
:1024800080648CBD61E08DE00E94C40561E08BE05A
:102490000E94C405809151038F5F80935103CFBF89
:1024A000CF910895CF93C82F8A3019F48DE00E9400
:1024B00052128091C00085FFFCCFC093C60090E00F
:1024C00080E0CF9108958093BB0084EC8093BC00A2
:1024D0008091BC0087FFFCCF08954F925F926F926E
:1024E0007F928F929F92AF92BF92CF92DF92EF92A4
:1024F000FF920F931F93CF93DF937C016B01809129
:10250000920790919307E816F90684F420919407B6
:1025100030919507621773074CF4B701635E7F4FE4
:1025200077FD04C0D6015196B7FF27C0DF91CF9148
:102530001F910F91FF90EF90DF90CF90BF90AF90E1
:102540009F908F907F906F905F904F900895EC9642
:102550005AC08AE897E0DF91CF911F910F91FF90C9
:10256000EF90DF90CF90BF90AF909F908F907F9033
:102570006F905F904F900C94520C50E040E0EEE171
:102580008E2E912CF7FE0AC047014EE1840E911C5D
:10259000442755274E195F09F12CE12CF0E0E0E0CB
:1025A000C2E1AC2EB12CD7FE0AC05601E2E1AE0E5C
:1025B000B11CEE27FF27EC19FD09D12CC12C68179F
:1025C00079071CF04C018E189F08A217B3071CF066
:1025D0005901AC18BD088EE18E9FE0018F9FD00D90
:1025E0001124C40FD51FCC0FDD1FCE5ADC4F8AE853
:1025F00097E00E946C0B85019401A601B7018AE85F
:1026000097E00E945507F1E0AF1AB10808F4A1CF96
:102610002401092C000C6608770841145104610458
:10262000710409F494CF7E0181E0481A51086108D1
:102630007108EFEF4E165E066E067E0609F487CF30
:10264000F701619171917F018AE897E00E94CE06BF
:10265000EBCF0F931F93CF93DF93EC0122E130E098
:10266000AC0168E171E090E080E00E943D0A42ED3B
:1026700050E04C1B5D0B22E130E068E171E0CE01DF
:102680004E960E943D0A62E573E030E020E0DB01F7
:1026900050E040E089010D5E154FF801E40FF51F91
:1026A000E49180EE97E0E11102C090E080E01196A5
:1026B0009C938E9313969C938E931297DD969C9386
:1026C0008E93DC97DF969C938E93DE974F5F5F4FE0
:1026D00014964F30510509F768587F4F215F3F4FDF
:1026E00027383105A1F668E171E0CE01DF91CF9185
:1026F0001F910F910C946D128F929F92AF92BF9287
:10270000CF92DF92EF92FF920F931F93CF93DF93BD
:102710006C015A0182E5E82E83E0F82ED0E0C0E09B
:102720008FE08C9F40018D9F900C11248A0C9B1C84
:10273000D70110E000E0F801E80DF91DE491522FF7
:10274000932FE11102C050E090E05C9311969C93AE
:10275000119712965C93129713969C931397DC969D
:102760005C93DC97DD969C93DD97DE965C93DE9719
:10277000DF969C93DF970F5F1F4F14960F30110564
:10278000D1F6219698E7E90EF11CC930D10549F63A
:10279000C601DF91CF911F910F91FF90EF90DF90D5
:1027A000CF90BF90AF909F908F900C946D128F92AE
:1027B0009F92AF92BF92CF92DF92EF92FF920F93D0
:1027C0001F93CF93DF934C01EB015A01690122E182
:1027D00030E0AB01B50190E080E00E943D0AC114F9
:1027E000D10459F0D7FC04C083E0C816D1046CF1C1
:1027F000012BB1F507EF17E004C0012B59F509EEE5
:1028000016E074014E01E2ED8E0E911CF7018191EC
:1028100091917F01C816D90634F52FEF3FEFA8013B
:10282000B501CE010E947C136E96C815D90571F7CB
:10283000DF91CF911F910F91FF90EF90DF90CF909C
:10284000BF90AF909F908F900895012B31F400E7D7
:1028500017E0D7CF0CE819E0D4CF05E019E0D1CFCD
:102860000EE718E0CECF22E130E04EE150E0B501B6
:10287000CE010E943D0AD8CF0E94A01ECF93DF93C5
:10288000C82FD62F84EA8093BC008091BC0087FFBC
:10289000FCCF8EE40E946312CD2BDC2FD8608D2FED
:1028A0000E9463128C2F8C600E9463128D2F0E94F5
:1028B000631284E98093BC0087EC90E00197F1F704
:1028C00000C00000DF91CF910895CF93C82F61E041
:1028D000807F0E943E1461E08C2F8295807F0E9451
:1028E0003E1487EC90E00197F1F700C00000CF9113
:1028F0000895CF93DF93EC018991882319F00E940A
:102900006514FACFDF91CF910895CF93C82F60E07F
:10291000807F0E943E1460E08C2F8295807F0E9411
:102920003E148FE39FE10197F1F700C00000CF91C3
:102930000895CF9380E80E948514C0E180E20E9450
:102940006514C150D9F780E8CF910C948514CF92CB
:10295000DF92EF92FF920F931F93CF93DF93EC01DF
:102960006A017B01C114D104E104F10439F4C12CE2
:1029700028E4D22E28EEE22EFF24F394FE01FF96E7
:10298000C082D182E282F38281E28DAF80E28EAF9B
:10299000369610818FA987FD07C061E00E94C405AB
:1029A00061E08FA90E94780561E088AD0E94C405AE
:1029B00061E088AD0E9478058DA981115BC040E07F
:1029C00052E16AE770E0C416D506E606F70640F461
:1029D00076956795579547958F5F8630A1F787E085
:1029E000212F2C702065982F9695922B99A3809576
:1029F00081708AA3812F90E0B0E0A0E08BA39CA31C
:102A0000ADA3BEA30E941C128EA987FD2AC061E05F
:102A10000E94C40561E08EA90E9478052FEF81EE27
:102A200094E0215080409040E1F700C0000060E059
:102A30008EA90E947805EFEFF1EE24E0E150F0401E
:102A40002040E1F700C0000061E08EA90E947805F7
:102A50008FEF93ECE9E081509040E040E1F700C057
:102A60000000DF91CF911F910F91FF90EF90DF90C9
:102A7000CF9008950DEA16E0F12C8130B9F461E0B1
:102A80008AA50E94C40560E08AA50E94780561E0DD
:102A90008CA50E94C40560E08CA50E9478058BA5DA
:102AA00087FDB2CF60E00E94C405AECFF8018491EB
:102AB000E82FF0E0EE0FFF1FED55F94F859194914F
:102AC0002F8D38A12817390741F461E08F2D0E941E
:102AD000C40560E08F2D0E947805F3940F5F1F4FAF
:102AE000F4E1FF12E3CF61E08EA50E94C40561E02E
:102AF0008EA50E9478058FA587FD86CF61E00E9494
:102B0000C40561E08FA50E9478057ECF1F920F92C9
:102B10000FB60F9211248F939F938BB190E4892766
:102B20008BB99F918F910F900FBE0F901F901895AA
:102B30001F920F920FB60F9211248F939F93AF9312
:102B4000BF9380914D0390914E03A0914F03B0919C
:102B500050030196A11DB11D80934D0390934E0328
:102B6000A0934F03B0935003BF91AF919F918F916A
:102B70000F900FBE0F901F9018951F920F920FB6D7
:102B80000F9211248F939F938BB190E289278BB979
:102B90009F918F910F900FBE0F901F9018951F92CD
:102BA0000F920FB60F9211248F939F9381E090E0C4
:102BB00090934B0380934A039F918F910F900FBE88
:102BC0000F901F901895AAE8B7E013961C921E92DA
:102BD000129720EF30E015963C932E93149780E4E3
:102BE00091E017969C938E93169719963C932E938B
:102BF00018971B969C938E931A9756961C925697ED
:102C00001D961C921E921C971F961C921E921E9738
:102C100081E055968C93559754968C9354972FEF4B
:102C20003FEF53963C932E93529751963C932E939D
:102C3000509757968C93579758961C9258975A9638
:102C40001C921E925997D5961C92D5978FEFD696C7
:102C50008C93D6978AE0D7968C93D79789E0D896AD
:102C60008C93D897DA961C921E92D997DC961C9278
:102C70001E92DB97DD961C92DD97DE961C92DE9706
:102C80001092C9071092CA071092CB071092CC0776
:102C90008CE493E090969C938E935F97E6EBF6E03E
:102CA000E491F0E0EE0FFF1FED55F94F85919491FF
:102CB0005E969C938E935D97EAECF6E08491D396B2
:102CC0008C93D397E7EBF6E0E491F0E0EE0FFF1F73
:102CD000ED55F94F259134915C963C932E935B977B
:102CE000EBECF6E0E491D196EC93D197E095D29697
:102CF000EC93D297E82FE095D496EC93D49710926A
:102D0000CD071092CE071092CF0786E192E08D9307
:102D10009C931092D0071092D1070895CF93DF9320
:102D2000CDB7DEB7CC57D1090FB6F894DEBF0FBED2
:102D3000CDBFF89480916900836080936900E89A20
:102D40007894259A52981092C50087E68093C40023
:102D500088E18093C1008EE08093C20082E592E119
:102D600090934503809344031092470310924603C7
:102D700082E080933F0310924903109248038CE352
:102D800093E09093D9078093D80782E492E00E9461
:102D9000BB1E14BC15BC84B5826084BD85B584603F
:102DA00085BD80916E00826080936E0010928000DD
:102DB00010928100809181008860809381008091D1
:102DC000810082608093810080916F008260809397
:102DD0006F008CED95E090938900809388001092AD
:102DE000B0001092B1008091B00082608093B0007A
:102DF0008091B10086608093B10080917000826004
:102E00008093700085E592E00E94BB1E80917A005D
:102E1000876080937A0080917C00806480937C003E
:102E200080917A00806880937A0089E692E00E941F
:102E3000BB1E0E941C128CB58C7F81608CBD8DB531
:102E40008E7F8DBD8AE792E00E94BB1E1092CF0755
:102E500040E050E0BA018AE897E00E94A71410927F
:102E6000D1071092CE071092D0071092CD0780EFB5
:102E700090E09093D3078093D20780E491E0909301
:102E8000D5078093D407E8E6F0E0949029E630E097
:102E90009A944FEF941609F47EC0F901F4908901D9
:102EA0000E5F1F4F31968490E82CE894E7F88AE88B
:102EB00097E00E94AE078091C10787FD09C0E091AD
:102EC000A507F091A60780819091BC078923808394
:102ED000E091A707F091A80780819091BE07892310
:102EE00080836F2D8AE897E00E940F07E091A70783
:102EF000F091A80780819091BD07892B8083F8010C
:102F0000B12CA12CF12CAE14BF04FCF48091BF07AE
:102F10006F01823089F48091BA07882369F0DF015C
:102F20006D917D916D018AE897E00E94CE06EFEFEA
:102F3000AE1ABE0AF601E7CFBFEFCB1ADB0A6491E7
:102F40008AE897E00E940F07F2CF8091C10787FDC2
:102F500009C0E091A507F091A60780819091BB0779
:102F6000892B8083F801EE0DFF1D9F0187FE90CF16
:102F70002F5F3F4F849190E08F3F910511F484EFD4
:102F800091E0019708F484CFAFE9BFE01197F1F722
:102F900000C00000F6CF60E08AE897E00E94EE0BE8
:102FA00060E08AE897E00E94B7078BE892E00E9411
:102FB000BB1E1092BC0088E48093B8008091B900D9
:102FC0008E7F8093B9008091B9008D7F8093B90086
:102FD00010E000E0F4EADF2EA0EAEA2EA2E0FA2EEA
:102FE000D092BC008091BC0087FFFCCF802F880F5F
:102FF00081600E9463128091B900887F803451F40F
:103000001F930F93FF92EF920E94A51E0F900F90B7
:103010000F900F900F5F1F4F0F37110509F784E9CD
:103020008093BC00BFEFE0E7F2E0B150E040F04039
:10303000E1F700C0000060E080E30E943E148FE1F1
:103040009EE40197F1F700C0000060E080E30E9479
:103050003E14A7E5B2E01197F1F700C0000060E070
:1030600080E20E943E14E7E5F2E03197F1F700C0FC
:10307000000088E20E9485148CE00E94851481E0A3
:103080000E9485148FE39FE10197F1F700C00000D3
:1030900086E00E9485148BEB92E00E94BB1E8BE0C1
:1030A000E1E3F3E0DE01939601900D928A95E1F75A
:1030B00085E090E09E8B8D8B988F8F8B9A8F898F78
:1030C0009C8F8B8F9E8F8D8F98A38F8F9AA389A3B0
:1030D00080E80E9485148CEC92E00E94791480ECC8
:1030E0000E9485148DED92E00E9479148DEE92E09D
:1030F0000E94BB1EDE019396FD0101900020E9F7BE
:1031000031978F010A1B1B0B70E060E08AE897E0A3
:103110000E9467102EEE2003C001219F900D112404
:1031200080519F4F97FD01969595879590939707AE
:103130008093960788E890E090939907809398078A
:103140008FEF9FEF90939D0780939C0790939B0731
:1031500080939A0783E080939E0780939F0781E086
:103160008093A1078E010D5D1F4FF8010190002093
:10317000E9F73197AF01401B510BB8018AE897E09E
:103180000E94F5051FAE1EAEA8E1B0E06F96BFAF7E
:10319000AEAF6F9727961FAE1EAE2797E1E0F0E027
:1031A0006D96FFAFEEAF6D9720E130E03FAB2EABF9
:1031B00044E050E0AD965FAF4EAFAD978EE190E04A
:1031C000AB969FAF8EAFAB9725961FAE1EAE2597E1
:1031D00078E2872E912CA4E0B0E0BDAFACAFA99609
:1031E000FFAFEEAFA99723E230E06B963FAF2EAF73
:1031F0006B97E0961FAEE097E1961FAEE197699658
:103200001FAE1EAE6997B12CA12C312C212C6796D4
:103210001FAE1EAE679719AE18AE23961FAE23974A
:10322000EAE64E2E512C18AA19AA1AAA1BAA6596CC
:103230001CAE1DAE1EAE1FAE65972F961CAE1DAE0A
:103240001EAE1FAE2F9741E050E061965FAF4EAFCC
:1032500061971BAE1AAE2B961FAE1EAE2B97A7968C
:103260001CAE1DAE1EAE1FAEA79781E090E0A396E8
:103270009FAF8EAFA3971FA70EA780914D0390918C
:103280004E03A0914F03B09150032F962CAD3DAD4E
:103290004EAD5FAD2F9782179307A407B507E0F4F3
:1032A00080914D0390914E03A0914F03B091500334
:1032B0002F968CAF9DAFAEAFBFAF2F9720914D0330
:1032C00030914E0340914F035091500365962CAFBF
:1032D0003DAF4EAF5FAF65974AAD5BAD80914D039B
:1032E00090914E03A0914F03B0915003452B09F0EC
:1032F000F1C02F962CAD3DAD4EAD5FAD2F97821B2B
:10330000930BA40BB50B80329340A105B10508F4D3
:103310006DC080914D0390914E03A0914F03B091E9
:1033200050032F968CAF9DAFAEAFBFAF2F9781E00C
:1033300090E06196AEADBFAD6197AB2B11F490E01C
:1033400080E0EE27FF27E81BF90B2296FFAFEEAFD8
:103350002297EEA5FFA501900020E9F731979F0184
:103360004EA55FA5241B350B4EEE42036001439F23
:10337000D00C112450EFC50ED11CD7FE03C06FEF47
:10338000C61AD60AC601959587959DAB8CAB82E18E
:10339000829F3001839F700C112454EAC52ED12CDA
:1033A000ACA9BDA96A0E7B1E2296EEACFFAC22979B
:1033B00086019301A6016CA97DA98AE897E00E9485
:1033C000EF0FBFEFCB1ADB0AE9EACE16D10461F7A3
:1033D00081E061962EAD3FAD6197232B09F080E02F
:1033E000482F50E061965FAF4EAF61974A9B92C302
:1033F00088E78093B30080914A0390914B03892B17
:1034000009F4A1C310924B0310924A032AAD3BADBD
:10341000232B09F082C30E94991480EC0E9485142A
:1034200010E180E20E9465141150D9F780EC0E94EF
:1034300085143BA93F934AA94F9359A95F9368A963
:103440006F938EEF92E09F938F9381E090E08C0FCB
:103450009D1F9F938F930E94E61E80E80E94851413
:10346000CE0101960E94791480EC0E94851488E2B6
:1034700093E00E94791470E060E08AE897E00E948F
:103480006710C2010E94291364010FB6F894DEBFD1
:103490000FBECDBFF12CE12C0EAD1FAD9701A601E3
:1034A0006EA97FA9CE0145960E94D713BFEFEB1AF4
:1034B000FB0AEAE1CE0ED11CF5E0EF16F10461F74C
:1034C00017BCA3961FAE1EAEA39721E030E03BAF22
:1034D0002AAFD3CE65962CAD3DAD4EAD5FAD6597B1
:1034E000821B930BA40BB50B8197A105B10508F4C2
:1034F0007DCF80914D0390914E03A0914F03B091E9
:10350000500365968CAF9DAFAEAFBFAF659780910E
:103510007C00807E80937C0080917C008160809321
:103520007C0080917A00806480937A0080917A0098
:1035300084FFFCCF8091780090917900925064EBE9
:1035400070E00E94271E640D751D633D710514F027
:1035500062ED70E06B01161617061CF0CC24C394C4
:10356000D12C4C145D0419F0C6010E942913279632
:10357000AEADBFAD27976F96EEADFFAD6F97AE17AF
:10358000BF070CF0DDC011962796BFAFAEAF2797EF
:1035900023963FAD2397332309F447C2232809F428
:1035A000B3C267962EAC3FAC67974AE0241A310845
:1035B00067963FAE2EAE679785E091E0A1969FAFEC
:1035C0008EAFA19710E0E12E11E0F12E22969FAE72
:1035D0008EAE2297F0E0E0E088AD99AD01969C01B7
:1035E000990F440B550BE9962CAF3DAF4EAF5FAF33
:1035F000E99788AD99AD092E000CAA0BBB0BED968F
:103600008CAF9DAFAEAFBFAFED972296AEADBFAD65
:1036100022972A163B060CF469C0CD01419682150B
:1036200093050CF463C09E012B5E3F4F3DAB2CAB6A
:103630008EA99FA9AC01990F660B770BAF963FAF90
:103640002EAFAF9710E000E0AF96AEADBFADAF9735
:103650008D919D91AF96BFAFAEAFAF97E817F907C9
:10366000DCF5A196AEADBFADA1978C9190E0880F2F
:10367000991F092E000CAA0BBB0B2C013D01440E17
:10368000551E661E771EE9968CAD9DADAEADBFADE5
:10369000E99784159505A605B705F4F09DE1490E57
:1036A000511C611C711CD7012C9130E0220F331F7B
:1036B000C901330FAA0BBB0B481A590A6A0A7B0AC5
:1036C000ED968CAD9DADAEADBFADED9748165906EC
:1036D0006A067B060CF08EC20F5F1F4F425E5F4F83
:1036E0006F4F7F4F0730110509F0AECF319622960C
:1036F000AEADBFAD22975A962296BFAFAEAF22971E
:10370000A1962EAD3FADA1972F5F3F4FA1963FAF42
:103710002EAFA1973FEFE31AF30AE530F10509F068
:1037200074CF5AE02516310408F4A0C140EE57E0EA
:10373000B10188AD99AD0E94C90F312C212C75C102
:103740008AE12CAD3DAD829F7001839FF00C112466
:10375000E80CF91C0EAD1FADA7016EA97FA9CE0123
:1037600045960E94D71325964EAD5FAD259741151E
:10377000510589F04150510925965FAF4EAF25970D
:10378000B7016550710925E030E040EF50E090E06E
:1037900080E00E943D0A8CAD9DAD01979DAF8CAF3E
:1037A00097FF50C0AB96AEADBFADAB97EEA9FFA9EA
:1037B000EA17FB077CF0F5E08F0E911C2FEF3FEF2F
:1037C0006D963FAF2EAF6D9745E050E025965FAF09
:1037D0004EAF2597AD968EAD9FADAD97AEA9BFA963
:1037E0008A179B077CF0B5E08B0E911CEAADFBAD10
:1037F0006D96FFAFEEAF6D9725E030E025963FAFB9
:103800002EAF25976D968EAD9FAD6D97880F991F42
:103810004EA95FA9480F591F5FAB4EAB85E090E002
:10382000DC01A996EEADFFADA997AE1BBF0BBDAFF6
:10383000ACAF91E080E02EAD3FAD232B09F090E0DE
:103840009EAF8FAF27961FAE1EAE2797A1CE8AE000
:1038500090E0092E000CAA0BBB0B28A939A94AA994
:103860005BA9280F391F4A1F5B1F28AB39AB4AAB36
:103870005BAB0E9499143BA93F934AA94F9359A966
:103880005F9368A96F938EEF92E09F938F9381E08F
:1038900090E08C0F9D1F9F938F930E94E61E80E8FF
:1038A0000E948514CE0101960E9479147801EE0CD5
:1038B000FF1CA1E0B0E0AC0FBD1FEA0EFB1EF7013C
:1038C0008489958901972AE1289FB001299F700D6D
:1038D0001124680D791D2EE1209FC001219F900DBC
:1038E000112420E038EF4BE850E0AEA9BFA98A0FC1
:1038F0009B1F0E947C13F701848995890197958B02
:10390000848B6B96EEACFFAC6B97F1E0EF1AF1088D
:103910006CA97DA9625F7F4F0FB6F894DEBF0FBE22
:10392000CDBF10E000E050E040E08FEF9FEFACA98A
:10393000BDA92D913D91BDABACAB821793070CF4A3
:10394000C901232B09F08BC02996EEADFFAD299755
:1039500031962996FFAFEEAF29974115510511F425
:103960000F5F1F4F2CA93DA96217730701F726E0CF
:1039700030E0A901481B590BA9965FAF4EAFA9973C
:1039800029965FAD29975F9328966FAD28976F931F
:103990001F930F9389E093E09F938F930E94A51E3E
:1039A00022EE2003C001219F900D1124DC0114960A
:1039B000AD96BFAFAEAFAD9729968EAD9FAD2997AF
:1039C00001962EE1289FF001299FF00D1124AB965E
:1039D000FFAFEEAFAB976B968EAD9FAD6B9763E08D
:1039E00070E00E94271E0F900F900F900F900F9085
:1039F0000F90892B51F46F962EAD3FAD6F972250EB
:103A000031096F963FAF2EAF6F9750E040E0B101A4
:103A100088AD99AD0E94C90F6B96FFAEEEAE6B9765
:103A2000312C212C23961FAE2397C5010197AA9410
:103A3000AB2809F06CC022E130E04EE150E0E096A6
:103A40006FADE097E1967FADE19769968EAD9FAD42
:103A500069970E943D0A2601B12CA12CC7CC4AAD22
:103A60005BAD29961FAE1EAE29977CCF48AD59ADF0
:103A70004E50510969965FAF4EAF699750E040E0F4
:103A8000B10188AD99AD0E94C90F22E533E090E005
:103A900080E0D901B12CA12CAC014E5E5E4FFA0141
:103AA000EA0DFB1DE49160E078EFE11102C070E0E7
:103AB00060E011967C936E9313967C936E931297AD
:103AC000DD967C936E93DC97DF967C936E93DE9706
:103AD0006FEFA61AB60A1496EFE0AE16B104F9F627
:103AE00028583F4F0F968738910599F6B10169968E
:103AF0008EAD9FAD69970E946D12E0962FAEE09754
:103B0000E1963FAEE1978CCF2AAC3BAC8ECF5C0107
:103B100026016CCC1092B3006ECC23963FAD239758
:103B2000311111C0A201425F5F4F59AF48AF2AACBB
:103B30003BAC8FE091E067969FAF8EAF679791E0C7
:103B400023969FAF2397A396AEADBFADA397AB2BA4
:103B500009F493CB40914D0350914E0360914F0374
:103B600070915003A7968CAD9DADAEADBFADA7973C
:103B7000481B590B6A0B7B0B2B96EEADFFAD2B97B9
:103B8000EE0FFF1FE257FE4F80819181B0E0A0E071
:103B9000481759076A077B0708F46FCB20914D033C
:103BA00030914E0340914F0350915003A7962CAF94
:103BB0003DAF4EAF5FAFA7972B968EAD9FAD2B97C6
:103BC000019662E470E00E94131E2B969FAF8EAFA9
:103BD0002B97FC01EE0FFF1FE65FFE4F2081318126
:103BE00050E040E064E274EF80E090E00E943B1E11
:103BF00027BD43CBF801EE0FFF1F41E050E04C0F13
:103C00005D1FE40FF51F848995898130910541F08E
:103C10000CF41DCE04970CF01ACE84E190E019CE7E
:103C20008EE190E016CEAA1BBB1B51E107C0AA1F74
:103C3000BB1FA617B70710F0A61BB70B881F991F4D
:103C40005A95A9F780959095BC01CD01089597FBF1
:103C5000072E16F4009407D077FD09D00E94131E9A
:103C600007FC05D03EF4909581959F4F089570957F
:103C700061957F4F0895052E97FB1EF400940E94D6
:103C8000521E57FD07D00E94781E07FC03D04EF449
:103C90000C94521E50954095309521953F4F4F4FB3
:103CA0005F4F089590958095709561957F4F8F4FE8
:103CB0009F4F08950E94621E332312F48A1B9B0BB0
:103CC0000C94731EA29FB001B39FC001A39F700DFF
:103CD000811D1124911DB29F700D811D1124911D14
:103CE00008950E94621EB7FF0895821B930B0895EA
:103CF000A1E21A2EAA1BBB1BFD010DC0AA1FBB1FF0
:103D0000EE1FFF1FA217B307E407F50720F0A21B61
:103D1000B30BE40BF50B661F771F881F991F1A94CE
:103D200069F760957095809590959B01AC01BD01F8
:103D3000CF010895EE0FFF1F0590F491E02D099437
:103D400081E090E0F8940C94BE21B0E0A0E0EBEAB2
:103D5000FEE10C949721AE014B5F5F4FFA01619138
:103D60007191AF018091D8079091D9070E94091FE6
:103D7000E2E00C94B3210F931F93CF93DF93E09174
:103D8000D807F091D9072381EC0110E000E021FD74
:103D900008C00FEF1FEF14C00995892B11F00FEF2A
:103DA0001FEF89916091D8077091D907DB011896B0
:103DB000ED91FC918111F0CF8AE00995892B49F7AB
:103DC000C801DF91CF911F910F910895AEE0B0E04F
:103DD000ECEEFEE10C9495210D891E8986E08C8322
:103DE0001A8309838FEF9FE79E838D83AE01475E21
:103DF0005F4F6F89788DCE0101960E94091F2F8138
:103E00003885020F131FF80110822E96E4E00C94FF
:103E1000B121ABE0B0E0EFE0FFE10C9487217C0141
:103E20003B018A01FC0117821682838181FFC8C190
:103E3000CE0101965C01F7019381F30193FD859119
:103E400093FF81913F01882309F453C1853239F4EE
:103E500093FD859193FF81913F01853229F4B7014C
:103E600090E00E94F920E7CF912C212C312CFFE12A
:103E7000F31538F08B3211F190F4803209F183326E
:103E800029F137FC3CC020ED280F2A3050F536FED2
:103E900020C08AE0989E200D1124922E06C08D32FB
:103EA00091F0803371F7689430F8F30193FD8591B8
:103EB00093FF81913F018111DACF21C0689431F8DD
:103EC000689432F8F2CF689433F8EFCF689434F8FE
:103ED000ECCFEAE02E9E200D1124222E689435F8B6
:103EE000E4CF8E3229F436FC04C1689436F8DDCF75
:103EF0008C3619F4689437F8D8CF8836B1F2982FF9
:103F00009F7D95549330E0F08336A1F18337C1F162
:103F1000833509F063C02801F2E04F0E511CF8010F
:103F2000C080D180692D70E036FC02C06FEF7FEF5A
:103F3000C6010E94E3204C01689437F882010AC050
:103F40000C5F1F4FFFE3F98388248394912C650154
:103F5000E89437F833FE2DC0522C8114910471F58A
:103F6000552009F468CFB70180E290E00E94F92063
:103F70005A94F6CFF801808189830E5F1F4FE4CFFA
:103F80002801F2E04F0E511CF801C080D180692D4C
:103F900070E036FC02C06FEF7FEFC6010E94EE209A
:103FA0004C018201D5CFB70180E290E00E94F92058
:103FB0002A942814190409F0B0F7CECFF60137FC83
:103FC000859137FE81916F01B70190E00E94F92041
:103FD00051105A94F1E08F1A9108BFCF843619F02E
:103FE000893609F077C0F80137FE6BC060817181B6
:103FF000828193810C5F1F4FF32DFF763F2E97FF39
:1040000009C090958095709561957F4F8F4F9F4F18
:10401000689437F82AE030E0A5010E942921C82ED3
:10402000CA188C2C432C36FE0CC0E89440F8C914F6
:1040300040F434FE05C032FC03C0F32DFE7E4F2E4B
:10404000892C44FE95C0FE01EC0DF11D808180336A
:1040500009F087C0242D297E422E842D8870582E89
:1040600043FC95C040FE8FC09C2C821418F42C0C8D
:10407000922C981844FE91C0B70180E390E00E9412
:10408000F92042FE09C088E790E041FE02C088E5C1
:1040900090E0B7010E94F920C91408F48AC0CA94BC
:1040A000D12C9FEFC91AD90ACA0CDB1CF6018291E8
:1040B0006F01B70190E00E94F920AC14BD04B1F784
:1040C0004FCF60817181072E000C880B990B0E5F1A
:1040D0001F4F92CFD32CE894D4F82AE030E08537F4
:1040E00039F1232D297FD22E8F3601F148F48835FE
:1040F000A9F0F701868197812B96E2E10C94A32128
:10410000803749F08837A9F7D4FE02C06894D2F806
:1041100020E130E00DC06894D4F8F6CF34FE03C03F
:10412000822F8660D82E20E132E002C028E030E005
:10413000F801D7FE0FC060817181828193810C5F8D
:104140001F4FA5010E942921C82ECA183D2CE894B2
:1041500037F867CF6081718190E080E00E5F1F4F7C
:10416000F0CF42FC02C0839478CF8394839475CFC0
:10417000842D867809F471CFF6CFB70180E290E004
:104180000E94F92083948214C0F3512C73CF522CD7
:104190005818821408F46ECFF8CF842D867809F46D
:1041A0007BCF8BE241FE80E247FC8DE2B70190E0DD
:1041B00071CFB70180E390E00E94F9209A946CCF10
:1041C0008FEF9FEF99CFFC01059061507040011077
:1041D000D8F7809590958E0F9F1F0895FC01615030
:1041E000704001900110D8F7809590958E0F9F1F19
:1041F00008950F931F93CF93DF93182F092FEB018F
:104200008B8181FD09C01FEF0FEF812F902FDF9170
:10421000CF911F910F91089582FF14C02E813F818D
:104220008C819D81281739073CF4E881F981CF0101
:1042300001969983888310838E819F8101969F8345
:104240008E83E3CFE885F985812F0995892BA1F32A
:10425000DACFFA01AA27283051F1203181F1E89410
:104260006F936E7F6E5F7F4F8F4F9F4FAF4FB1E069
:104270003ED0B4E03CD0670F781F891F9A1FA11D64
:10428000680F791F8A1F911DA11D6A0F711D811D65
:10429000911DA11D20D009F468943F912AE0269F2A
:1042A00011243019305D3193DEF6CF010895462F89
:1042B0004770405D4193B3E00FD0C9F7F6CF462F6A
:1042C0004F70405D4A3318F0495D31FD40524193D3
:1042D00002D0A9F7EACFB4E0A69597958795779590
:1042E0006795BA95C9F700976105710508959B0117
:1042F000AC010A2E06945795479537952795BA95A0
:10430000C9F7620F731F841F951FA01D08952F9278
:104310003F924F925F926F927F928F929F92AF9255
:10432000BF92CF92DF92EF92FF920F931F93CF93A2
:10433000DF93CDB7DEB7CA1BDB0B0FB6F894DEBF39
:104340000FBECDBF09942A88398848885F846E845F
:104350007D848C849B84AA84B984C884DF80EE80A9
:10436000FD800C811B81AA81B981CE0FD11D0FB6B2
:10437000F894DEBF0FBECDBFED010895F894FFCFD6
:1043800004020201010302020101B801B801B801EF
:104390005D010B02B8015D010B02B80193029302AB
:1043A0009302BA020B029F015D010B02B801700378
:1043B000B801B80170033E031003E402BA02E4023C
:1043C000C7016E024B022A020B02D2010B025D01F1
:1043D0009F015D01B8010B02B8010B02930270034B
:1043E000B801B80170033E031003E402BA02E4020C
:1043F000C7016E024B022A020B02D2010B025D01C1
:104400009F015D010B02B8015D010B02B801F401CF
:10441000F401F4015E019600F4015E0196008A0247
:10442000F401F401F4015E019600F4015E019600CE
:104430008A02F4012C0196009001C800C8007D009A
:104440007D00FA00FA009001C800C8007D007D00E0
:10445000FA007D00F40177017D00F40177017D0011
:104460008A02F4012C0196009001C800C8007D006A
:104470007D00FA00FA009001C800C8007D007D00B0
:10448000FA00FA00F40177017D00F40177017D0064
:104490008A0200000000980EF50519121812D407C0
:1044A0006C0B3A0BD10A500A910A6B11520CEE0BAD
:1044B000B707CF084009B1096710EF0F6A0FA714BB
:1044C0005507496E697469616C6973656420555359
:1044D0004152542100496E697469616C6973656465
:1044E0002054696D6572732100496E697469616C4D
:1044F00069736564204144432100496E69746961B0
:104500006C69736564205350492100496E69746970
:10451000616C6973656420446973706C6179210012
:1045200044657669636520646973636F7665726557
:1045300064206F6E20307825780A00496E697469AE
:10454000616C69736564204C43442100507265734B
:10455000732074686520427574746F6E00537461C3
:104560007274207468652047616D65210053746121
:10457000727465642070726F6772616D210053639D
:104580006F72653A20256C750046726565206C6512
:1045900066743A2025640946726565207269676809
:1045A000743A2025640A0A004C697665733A203310
:0C45B0000053746172742047616D650057
:00000001FF
